:020000040800F2
:100000005011002005010008AD0A0008A50A0008EB
:10001000A90A000863070008652500080000000021
:100020000000000000000000000000009D0D00081E
:100030003508000800000000650C0008B10E00083B
:100040001F0100081F0100081F0100081F01000810
:100050001F0100081F01000839080008690800088E
:100060008108000899080008B10800081F0100086D
:100070001F0100081F0100081F0100081F010008E0
:100080001F0100081F0100081F0100081F010008D0
:100090001F0100081F0100081F010008C90800080F
:1000A0001F0100081F0100081F0100081F010008B0
:1000B0001F0100081F010008551100081F0100085A
:1000C0001F0100081F0100081F0100081F01000890
:1000D0001F010008C3220008CD220008D722000813
:1000E000510800081F0100081F010008DFF810D0A8
:1000F00000F0EAFA00480047C9270008AFF3008083
:10010000501100200648804706480047FEE7FEE7FA
:10011000FEE7FEE7FEE7FEE7FEE7FEE7FEE7FEE7B7
:10012000B50E0008ED000008D2B201E000F8012B86
:10013000491EFBD270470022F6E710B513460A4667
:1001400004461946FFF7F0FF204610BDF0B480EAE0
:100150000102D40F4200B2EB410F02D20246084620
:1001600011464A0042D0C30DDDB2C1F3C752AD1AE9
:10017000202D35DAC1F3160141F4000204B15242D8
:10018000C5F1200602FA06F12A411044B3EBD05F14
:1001900023D0C4B1012DA0EBC35009DCF0BC4FF05B
:1001A000004202EAC352DBB200F5000000F000BAE0
:1001B000400000F1807000EBC350A0F1807040EA75
:1001C000D170490009E0490841EAC071A0EBC35071
:1001D00000F50000400800EBC350F0BC00F0DFB9B0
:1001E0006142012202EB4101001BF6E7F0BC7047BF
:1001F00081F00041AAE780F00040A7E780EA010211
:1002000010B502F00043400022D04A001FD0010E7A
:1002100001EB1261C0F35600C2F3560240F4000035
:1002200042F40002A0FB022000047F39140400D035
:10023000401C50EA124001D44000491EC2B20C06D4
:1002400004EBD010401C4008802A02D003E00020BC
:1002500010BD20F00100002900DA0020184310BD75
:1002600030B480EA010202F0004530F0004221F093
:10027000004013D090B1C30DD40DC2F31601C0F3EA
:100280001600E41A41F4000140F400027D3491426A
:1002900001D3641C00E04900002C02DA30BC0020CD
:1002A00070474FF400000023914201D3891A0343A1
:1002B00040084FEA4101F7D151B1914202D14FF0CC
:1002C000004105E002D24FF0010101E06FF00101B1
:1002D00003EBC450284430BC00F061B92DE9FE4F57
:1002E00081EA030404F0004421F0004100944FF03F
:1002F000000B23F0004350EA01045ED052EA0304ED
:100300005BD0C3F30A54C1F30A552C44A4F2F3346E
:100310000194A0FB0254C1F3130141F48011C3F313
:10032000130343F4801301FB024400FB034E840AD1
:10033000970A44EA815447EA8357A4FB0768029569
:100340008D0A05FB07854FEA932C04FB0C54270507
:10035000029D4FEA065847EA1637B5EB08056EEBE3
:10036000070C870E920E47EA811742EA8312A7FB19
:100370000201B6EB0B0164EB00042B0D43EA0C33D6
:100380005E1844EB1C50DA465146E7FB0201C5F308
:1003900013044FEA0B3343EA14534FEA0432019C2F
:1003A00043EA0603A4F10C040294009CCDE900B4D6
:1003B00000F03BF903B0BDE8F08F00200146F9E7FB
:1003C0002DE9F04D81EA030404F0004B21F00045D3
:1003D00014464FF0000A23F0004150EA050220D0F5
:1003E00054EA01021DD0C5F30A570246C5F31303B0
:1003F000C1F31300C1F30A5640F4801543F480138F
:10040000A7EB0608101BD64608F2FD3873EB050073
:1004100002D308F1010801E092185B41B8F1000F26
:1004200003DA00200146BDE8F08D00204FF4801172
:10043000064684460EE0171B73EB050705D3121B17
:1004400063EB050306434CEA010C49084FEA300010
:1004500092185B4150EA0107EDD152EA030012D035
:1004600082EA040083EA0501084305D0101BAB4172
:1004700006D20122002306E000224FF0004302E0F2
:100480006FF0010253101AEB06004CEB085110EB11
:100490000A0041EB0B01BDE8F04D00F0B7B8C10F09
:1004A00080EAE0700844CA079623002100F080B873
:1004B00096230022114600F07BB80EB5C10F80EAEA
:1004C000E0700844CA07002140F233438DE80E0073
:1004D0000A460B4600F0A9F803B000BD0EB540F285
:1004E000334102910021CDE900110A460B4600F08C
:1004F0009CF803B000BD20F00040C10DC0F3160011
:1005000040F400007F2901DA00207047962903DCBF
:10051000C1F19601C840704796398840704701F094
:10052000004330B421F0004150EA010206D00A0D28
:10053000A2F56072C1F31301002A02DC30BC002076
:100540007047440F44EAC104C100E01830BC00EB1E
:10055000C25000F024B80000002801DBC0F10040C8
:10056000002901DBC1F1004181427047002801DB15
:10057000C0F10040002901DBC1F100418842704711
:10058000202A04DB203A00FA02F100207047914053
:10059000C2F1200320FA03F3194390407047002969
:1005A000A8BF7047401C490008BF20F001007047F9
:1005B00010B4B0FA80FC00FA0CF050EA010404BF59
:1005C00010BC704749B1CCF1200421FA04F411FAAF
:1005D0000CF118BF012121430843A3EB0C01CB1DF3
:1005E0004FEA00614FEA102042BF002010BC704764
:1005F00000EBC35010440029A4BF10BC7047401C3E
:10060000490008BF20F0010010BC704710B5141E4F
:1006100073F1000408DA401C41F1000192185B41BB
:100620001A4301D120F0010010BD2DE9F04D924692
:100630009B4611B1B1FA81F202E0B0FA80F22032A9
:100640009046FFF79DFF04460F4640EA0A0041EA44
:100650000B0153465A46084313D0114653EA010092
:1006600019D0C8F14002504600F040F805460E4649
:10067000504659464246FFF783FF084305D0012004
:1006800004E020463946BDE8F08D0020054346EAE7
:10069000E0762C4337430A986305E40AA0EB080090
:1006A0000022FD0A44EA47540A3002D500200146E0
:1006B000E9E7010510196941DDE9084500196941BB
:1006C000BDE8F04DA2E70000064C074D06E0E068EB
:1006D00040F0010394E8070098471034AC42F6D389
:1006E000FFF708FD3C3500085C350008202A04DBD4
:1006F000203A21FA02F00021704721FA02F3D0409B
:10070000C2F12002914008431946704770B58C1819
:1007100010F8015B15F0070301D110F8013B2A1115
:1007200006D110F8012B03E010F8016B01F8016B02
:100730005B1EF9D12B0705D40023521E0DD401F8FE
:10074000013BFAE710F8013BCB1A921C03E013F8C7
:10075000015B01F8015B521EF9D5A142D8D30020FC
:1007600070BD00BFFEE700002DE9FC470F48008880
:10077000FFF7B4FE04460D460D4801F066FB0D4937
:100780000988A0EB010A5046FFF797FE06460022B3
:10079000094BFFF7A3FD804622462B46FFF710FECC
:1007A000CDE90001FFF7BBFEBDE8FC871800002083
:1007B000000800401A0000200000594010B503480E
:1007C00001F043FB0249088010BD00000008004012
:1007D0001A00002021B1026842F00102026004E028
:1007E00002684FF6FE731A4002607047014648687F
:1007F00080B2704710B50022026847F6F0739A4342
:100800000C6A8B6823430C6923434C6923438C692E
:100810002343CC6923434C6A23438C6A23431A4302
:100820000260CB6843600B6883604B68C36010BD97
:10083000416070477047000010B5034800F050F861
:1008400002480068804710BDFFFF0F001C00002019
:1008500010B5034800F044F802480068804710BD16
:10086000FFFF0F001C00002010B5034800F038F80F
:1008700002480068804710BDFFFF0F001C000020E9
:1008800010B5034800F02CF802480068804710BDFE
:10089000FFFF0F001C00002010B5034800F020F8F7
:1008A00002480068804710BDFFFF0F001C000020B9
:1008B00010B5034800F014F802480068804710BDE6
:1008C000FFFF0F001C00002010B5034800F008F8DF
:1008D00002480068804710BDFFFF0F001C00002089
:1008E0000149086070470000140401402DE9F041FF
:1008F000024600250026002000230024002791F84E
:1009000003C00CF00F0591F803C00CF0100CBCF103
:10091000000F03D091F802C04CEA050591F800C021
:10092000BCF1000F31D0146800202BE04FF0010C17
:100930000CFA00F3B1F800C00CEA03069E4220D185
:1009400083004FF00F0C0CFA03F7BC4305FA03FCCD
:100950004CEA040491F803C0BCF1280F06D14FF013
:10096000010C0CFA00FCC2F814C00AE091F803C0B4
:10097000BCF1480F05D14FF0010C0CFA00FCC2F895
:1009800010C0401C0828D1D31460B1F800C0BCF1DD
:10099000FF0F34DD546800202EE000F1080C4FF00A
:1009A000010808FA0CF3B1F800C00CEA03069E42F5
:1009B00021D183004FF00F0C0CFA03F7BC4305FA6A
:1009C00003FC4CEA040491F803C0BCF1280F05D1E4
:1009D00000F1080C08FA0CF8C2F8148091F803C072
:1009E000BCF1480F07D100F1080C4FF0010808FADC
:1009F0000CF8C2F81080401C0828CED35460BDE823
:100A0000F0810000F0B50A460023002400210025F3
:100A100000F00046B6F1004F02D11D4EF16901E031
:100A20001B4E7168C0F3034583B200F44016B6F55F
:100A3000401F08D121F07061154E766826F070666F
:100A4000134F7E6012E000F48016B6F5801F06D1C9
:100A5000032606FA05F4A14341F0706106E0460D55
:100A6000360103FA06F6B14341F0706122B1460D3A
:100A7000360103FA06F6314300F00046B6F1004FA6
:100A800002D1034EF16101E0014E7160F0BD000042
:100A9000000001404FF6FF710180022181700421A6
:100AA000C170704700BFFEE700BFFEE7704700005F
:100AB00070B5002100230F22C47804B3154C2468BC
:100AC00004F4E064C4F5E064210AC1F10403CA40FF
:100AD000447804FA03F184781440214309010E4C50
:100AE0000678A155047804F01F050124AC40057870
:100AF0006D11AD0005F1E025C5F8004109E004786D
:100B000004F01F050124AC40044D0678761145F829
:100B1000264070BD0CED00E000E400E080E100E064
:100B200002490143024A1160704700000000FA05C3
:100B30000CED00E02DE9F84F044688461646414684
:100B40003046FFF755FB05462946A069FFF7FEFA38
:100B5000A06128462169FFF74BFB8346A168FFF798
:100B60004DFB8146A1696068FFF748FB8346294633
:100B70002068FFF743FB59460090FFF7E7FA8246EB
:100B80004946FFF7E3FA074625613846E168FFF773
:100B9000EDFC01D2E7680AE0E06880F000493946E0
:100BA0004846FFF7E3FC02D2E06880F00047384691
:100BB000BDE8F88F2DE9FC5F04468846164641469D
:100BC0003046FFF715FB05464FF080402169FFF7DF
:100BD00015FB29460090FFF70EFB83466169FFF77E
:100BE000B5FA8246A168FFF709FB8146294660688D
:100BF000FFF704FB009028462169FFF7F9FA8346C6
:100C00002168FFF7FBFA82460099FFF79FFA4946F1
:100C10000190FFF79BFA074620696061256138461D
:100C2000E168FFF7A3FC01D2E7680AE0E06880F022
:100C3000004939464846FFF799FC02D2E06880F047
:100C400000473846BDE8FC9F70B5DDE9044501600A
:100C500083604260C460012D03D1002606614661B5
:100C6000866170BD7047000029B1064A526902438F
:100C7000044B5A6104E0034A52698243014B5A61B2
:100C8000704700000010024029B1064AD2690243B1
:100C9000044BDA6104E0034AD2698243014BDA6112
:100CA000704700000010024029B1064A92690243D1
:100CB000044B9A6104E0034A92698243014B9A61B2
:100CC000704700000010024030B5002100220024CF
:100CD00000232D4D6D6805F00C0121B1042905D0CC
:100CE000082923D105E0294D056022E0274D056044
:100CF0001FE0254D6D6805F47012234D6D6805F4F5
:100D00008034022505EB92421CB9214D5543056004
:100D10000BE01D4D6D6805F400351DB11C4D5543AC
:100D2000056002E0194D5543056002E0174D05606E
:100D300000BF00BF144D6D6805F0F0010909154DA5
:100D40006B5C0568DD4045600F4D6D6805F4E06142
:100D5000090A104D6B5C4568DD4085600A4D6D6881
:100D600005F46051C90A0B4D6B5C4568DD40C560F8
:100D7000054D6D6805F44041890B074D6B5CC568F6
:100D8000B5FBF3F5056130BD0010024000127A009A
:100D900000093D000000002010000020704710B541
:100DA00000F002F810BD00000CB50020019000908A
:100DB0003348006840F480303149086000BF304853
:100DC000006800F4003000900198401C01900098E9
:100DD00018B90198B0F5A06FF1D12948006800F466
:100DE000003010B10120009001E000200090009838
:100DF000012843D12348006840F0100021490860D1
:100E00000846006820F0030008600846006840F0CB
:100E1000020008601A48406819494860084640685E
:100E200048600846406840F4806048600846406872
:100E300020F47C1048600846406840F4E8104860A0
:100E40000846006840F08070086000BF0C480068E9
:100E500000F000700028F9D00948406820F0030035
:100E6000074948600846406840F00200486000BFFB
:100E70000348406800F00C000828F9D10CBD0000C0
:100E80000010024000200240042808D14FF0E02169
:100E9000096941F004014FF0E022116107E04FF0D1
:100EA000E021096921F004014FF0E022116170474F
:100EB0007047000010B51348006840F00100114968
:100EC000086008464068104908400E4948600846D6
:100ED00000680E4908400B4908600846006820F485
:100EE000802008600846406820F4FE0048604FF407
:100EF0001F008860FFF753FF4FF00060044908604F
:100F000010BD0000001002400000FFF8FFFFF6FED9
:100F100008ED00E0F0B50C46154600220021068CD5
:100F20004FF6FE773E400684028B018C4FF60C761E
:100F300032407E1C06EA03162E433243104EB04266
:100F40000ED0104EB0420BD0B0F1804F08D00E4EF4
:100F5000B04205D00D4EB04202D00D4EB04206D187
:100F60004FF6FD76314044F00106314305E04FF67F
:100F7000F576314044F00106314302830184F0BD2F
:100F8000002C0140003401400004004000080040F3
:100F9000000C0040F0B50C4615460022002100264A
:100FA000078C4FF6EF7C07EA0C070784028B018C55
:100FB0004FF6FF7707EA041640F6FF473A404FF630
:100FC000FF7707EA03373A434FF6FF7707EA05272B
:100FD0003A43114FB8420ED0104FB8420BD0B0F187
:100FE000804F08D00E4FB84205D00E4FB84202D005
:100FF0000D4FB84206D14FF6DF77394046F0100763
:10100000394305E04FF65F77394044F01007394324
:1010100002830184F0BD0000002C01400034014037
:101020000004004000080040000C0040F0B50C46F1
:101030001546002200210026078C4FF6FF6C07EAB8
:101040000C070784828B018C4FF6FF7707EA042692
:101050004FF60C773A404FF6FF7707EA03172F4316
:101060003A43114FB8420ED0104FB8420BD0B0F1F6
:10107000804F08D00E4FB84205D00E4FB84202D074
:101080000D4FB84206D14FF6FF57394046F48077EE
:10109000394305E04FF2FF57394044F48077394334
:1010A00082830184F0BD0000002C01400034014027
:1010B0000004004000080040000C0040F0B50C4661
:1010C0001546002200210026078C4EF6FF7C07EA19
:1010D0000C070784828B018C4FF6FF7707EA0436F2
:1010E00040F6FF473A404FF6FF7707EA05273A43B5
:1010F0004FF6FF7707EA03373A43114FB8420ED055
:10110000104FB8420BD0B0F1804F08D00E4FB8420C
:1011100005D00E4FB84202D00D4FB84206D14DF661
:10112000FF77394046F48057394305E047F6FF57CB
:10113000394044F48057394382830184F0BD000074
:10114000002C014000340140000400400008004031
:10115000000C004000B5A5B0002024902390229000
:1011600021902090FFF72AFB0121F94800F02EFE84
:10117000F848006840F2E731884201DB002002E0D5
:10118000F4480068401CF349086000201A901B9046
:101190001C90F149F14AF24B1D90CDE91632CDE990
:1011A0001810F048F049F14AF14BCDE91232CDE97F
:1011B0001410F048F049F14AF14BCDE90E32CDE977
:1011C0001010F048F049F14AF14BCDE90A32CDE96F
:1011D0000C100020EF49F04AF04BCDE90632CDE982
:1011E0000810EF480021EF4AEF4BCDE90232CDE97C
:1011F0000410EE48EE490023EE4ACDE90010EE4916
:10120000032001F083FDED48006800284BD1012048
:10121000EA4908600020E8490870E6490870E84893
:10122000E3490860E748E14908600020DE490860BA
:10123000E548DC490860E548D94908600020D749FD
:101240000860D5490860DE48D24908604FF07E50FA
:10125000CF4908600020CD490860CB490860DC48D0
:10126000C8490860DB48C64908600020C3490860D7
:10127000C1490860D248BF490860D748BC490860E6
:10128000D648BA490860CE48B74908604FF07E504A
:10129000B4490860D148B2490860D148AF490860F4
:1012A000D048AD4908600020BE490968CDE900106A
:1012B000BD480368BD480268BD480168CA48FFF7D9
:1012C000C3FC0020B7490968CDE90010B64803689F
:1012D000B6480268B6480168C448FFF7B5FC00206C
:1012E000AC490968CDE90010AB480368AB48026817
:1012F000AB480168BE48FFF7A7FC0020A149096878
:10130000CDE90010A0480368A0480268A048016821
:10131000B848FFF799FC0920249014E02498401E57
:10132000B54951F82010B44A249842F82010249866
:10133000401EB24951F82010B04A249842F82010BB
:101340002498401E249024980028E7DC0020039075
:10135000049005900690009001900346A74AA64984
:101360000290022001F05EFFA448006810B914202A
:10137000A24908600020A2490860A24908602490A0
:101380002CE09D49249851F820001D90FFF787F824
:101390001E90744801681E98FEF762FF1F909848DF
:1013A00001681F98FEF7D2FE95490860934924987A
:1013B00051F820001D90FFF772F81E9069480168EF
:1013C0001E98FEF74DFF1F908E4801681F98FEF78C
:1013D000BDFE8C4908602498401C24902498FFF797
:1013E0005EF81F905F4801681F98FFF7B5F8C8D3F3
:1013F000022001F0C3F9401E1F90FFF750F8824908
:101400000860012001F0BAF9C0F101001F90FFF758
:1014100046F87E4908606848007801280FD100200E
:101420007B4908700846007800285DD0084600789F
:10143000012859D0084600787649087054E05D4884
:10144000007801280ED172490870084600780028FB
:101450004AD008460078012846D0084600786D49F1
:10146000087041E06A48007818B16948007801289E
:101470003AD101204B490968CDE900104A48036878
:101480004A4802684A4801685748FFF7DDFB0120D7
:1014900044490968CDE9001043480368434802689D
:1014A000434801685148FFF7CFFB012039490968DB
:1014B000CDE90010384803683848026838480168A8
:1014C0004B48FFF7C1FB01202E490968CDE9001008
:1014D0002D4803682D4802682D4801684548FFF7EC
:1014E000B3FB04204A4908704948007820B900211C
:1014F000084601F0B1FACCE345480078012825D12F
:1015000000211E480068FFF727F820D200211A4862
:101510000068FFF721F81AD21748016817480068D9
:10152000FEF766FE00211F90FFF720F801D2002091
:1015300005E01148016811480068FEF759FE364978
:1015400008600E48006835490860DAE0F2E067E0BC
:1015500000080040580100207C010020700100209C
:1015600020020020BC0100206C0100207801002036
:1015700074010020800100201402002010020020CD
:10158000D80100200C020020D4010020D00100204E
:10159000CC010020C8010020B4010020B0010020CF
:1015A000AC010020A80100208C010020880100204F
:1015B000840100206901002068010020240200202D
:1015C000000020410000404000C0DA450AD7A3BC1B
:1015D000000020420000A04100007A440000A0402A
:1015E0000000A04200009643B40C0020D00C002064
:1015F000EC0C0020080D0020240D0020DC01002050
:10160000C001002004020020980100209C0100205D
:101610005C0100205D010020900100209401002069
:101620000021FE480068FEF7A1FF1FD80021FC48FA
:101630000068FEF791FF19D2F9480168F748006881
:10164000FEF784FD00211F90FEF786FF01D20020E7
:1016500005E0F3480168F1480068FEF777FDF149BD
:101660000860EE480068F04908604AE00021EB4855
:101670000068FEF771FF1FD20021E9480068FEF7FD
:1016800075FF19D8E6480168E4480068FEF75EFD7A
:1016900000211F90FEF76AFF01D2002005E0E0481C
:1016A0000168DE480068FEF751FDDF490860DB484D
:1016B0000068DC49086024E00021D8480068FEF793
:1016C00055FF1ED80021D6480068FEF74FFF18D8F6
:1016D000D3480168D1480068FEF78AFD00211F90B9
:1016E000FEF73AFF01D2002005E0CD480168CB4863
:1016F0000068FEF77DFDCC490860C8480068C9490C
:101700000860C8480268C9480168C948FFF752FA2A
:10171000C8490860C4480268C7480168C748FFF75D
:1017200049FAC749086008460168C248006801F0E4
:10173000F1F8AEE2C348007802287DD1C2480168C2
:10174000C2480068FEF754FD1F90C14801681F9809
:10175000FEF702FF7FD2BE48006880F000401F9075
:10176000B9480168B9480068FEF742FD1E901F990C
:10177000FEF7FCFE6FD2B7480168B7480068FEF775
:1017800037FD1F90B54801681F98FEF7E5FE62D24D
:10179000B248006880F000401F90AE480168AE4833
:1017A0000068FEF725FD1E901F99FEF7DFFE52D25E
:1017B000AB480068AA490968491CA94A11601E90F3
:1017C000FEF76DFE1F90A74801681F98FEF7CEFE3A
:1017D0005FD20020A24908600120A3490968CDE931
:1017E0000010A2480368A2480268A2480168904815
:1017F000FFF72AFA01209C490968CDE900109B48AF
:1018000003689B4802689B4801688C48FFF71CFAF4
:10181000012099490968CDE9001098480368984863
:101820000268984801689848FFF70EFA0120974926
:101830000968CDE9001001E0D0E00CE094480368AD
:1018400094480268944801689448FFF7FDF9042021
:101850007C4908701DE0924801687F480068FEF7E7
:1018600085FE16D28F4800688E490968491C8D4A4A
:1018700011601E90FEF713FE1F907A4801681F98B2
:10188000FEF774FE05D200208649086003206D49EA
:101890000870854800680A2190FBF1F201FB1200F4
:1018A00098B969480268694801687748FFF742F9C2
:1018B0007E49086067480268674801687748FFF713
:1018C00039F980F000407A49086078480168784822
:1018D0000068FEF78DFC7749086074480168744819
:1018E0000068FEF733FC7449086074480168714869
:1018F0000068FEF72BFC1F904A4801681F98FEF70E
:101900002BFE08D26D48016846480068FEF770FC5F
:101910004449086019E06948016866480068FEF7B4
:1019200067FC1F903F4801681F98FEF71FFE08D212
:10193000624801683B480068FEF708FC39490860C6
:1019400003E05C480068374908605C4801685A4811
:101950000068FEF7FBFB1F90334801681F98FEF7F5
:10196000FBFD08D2554801682F480068FEF740FC8F
:101970002D49086019E0514801684F480068FEF79A
:1019800037FC1F90284801681F98FEF7EFFD08D22A
:101990004A48016824480068FEF7D8FB22490860DD
:1019A00003E045480068204908601E4802681F4857
:1019B00001681F48FFF7FEF81E4908601A480268D0
:1019C0001D4801681D48FFF7F5F81D4908600846E5
:1019D00001681848006800F09DFF5AE11948007836
:1019E00003286DD12E4801681B480068FEF7B4FD3E
:1019F0006CD22C4800682B490968491C294A11609F
:101A00001E90FEF74CFD1F90164801681F98FEF7C8
:101A1000ADFD5AD200202349086053E01002002097
:101A20001402002090010020940100209801002061
:101A3000B40C0020A00100209C010020D00C00204C
:101A4000A40100205C010020B8010020C00100209A
:101A500074010020D8010020040200207801002039
:101A6000600100206C010020A80100208C010020F2
:101A70008801002084010020C8010020B40100205A
:101A8000B0010020AC010020EC0C00200C02002072
:101A9000D4010020D0010020CC010020080D00203E
:101AA000700100206401002058010020C4010020C2
:101AB00008020020180200201C0200202002002042
:101AC0006CE003E002209B4908704EE09A480068F1
:101AD00099490968491C984A11601E90FEF7DFFC7D
:101AE0001F90964801681F98FEF740FD3DD20020E8
:101AF00091490860012092490968CDE90010914898
:101B0000036891480268914801689148FFF79CF882
:101B100001208B490968CDE900108A4803688A488A
:101B200002688A4801688B48FFF78EF801208A49CD
:101B30000968CDE900108948036889480268894826
:101B400001688948FFF780F8012088490968CDE9D4
:101B500000108748036887480268874801688748FB
:101B6000FFF772F8042073490870854802688548B9
:101B700001687748FFF71EF88349086083480268C8
:101B8000834801687348FFF715F8824908600846E2
:101B900001687D48006800F0BDFE7AE06548007885
:101BA000042876D17C4801687C480068FEF720FB59
:101BB0001F907B4801681F98FEF7D8FC0FD3784828
:101BC000006880F000401F90734801687348006807
:101BD000FEF70EFB1E901F99FEF7BEFC55D2714812
:101BE00001686E480068FEF7B7FC4ED252480068A4
:101BF00051490968491C504A11601E90FEF74FFC7C
:101C00001F90694801681F98FEF7B0FC3DD2002084
:101C10004949086001204A490968CDE9001049484E
:101C2000036849480268494801684948FFF70CF8C9
:101C3000012043490968CDE9001042480368424841
:101C40000268424801684348FEF7FEFF012042490E
:101C50000968CDE9001041480368414802684148DD
:101C600001684148FEF7F0FF012040490968CDE9CD
:101C700000103F4803683F4802683F4801683F48FA
:101C8000FEF7E2FF02202B4908700021084600F011
:101C9000E3FE20A921A800F0D3FE444800680A21F1
:101CA00090FBF1F201FB1200F0BBFEF75DFD1F900F
:101CB00020480078FEF7FCFB1E9000201A901B9035
:101CC0001C901D90169017901890199012901390D8
:101CD000149015900E900F9010901190DDE9203225
:101CE000CDE90B300A920D902C480268304801680B
:101CF000284B1F981B68CDE90630CDE90812224811
:101D0000026822491E9809681D4B1B68CDE9023103
:101D1000CDE904021E4800681A49096800231A46E2
:101D2000CDE90010194600E002E0032001F082F93D
:101D300025B000BD5C010020600100207C01002076
:101D4000A80100208C0100208801002084010020CF
:101D5000B40C0020D00C0020C8010020B4010020E9
:101D6000B0010020AC010020EC0C00200C0200208F
:101D7000D4010020D0010020CC010020080D00205B
:101D80009001002098010020A00100209401002073
:101D90009C010020A4010020D801002004020020A2
:101DA00080010020700100206C01002058010020FB
:101DB000C001002021B1028842F08002028004E0CC
:101DC00002884FF67F731A4002807047CA4302822E
:101DD000704721B1028842F00102028004E00288CB
:101DE0004FF6FE731A400280704731B1B0F84420BC
:101DF00042F40042A0F8442005E0B0F84420C2F3C9
:101E00000E02A0F844207047F0B50C4615461E4659
:101E10000021002200230189028B038C4FF6F87702
:101E2000394021434FF6FC473A4040F201173A430C
:101E30004FF6DD773B404FF6FF7707EA06172F4353
:101E40003B43018102830384F0BD0146888C7047C7
:101E500070B505460C46244885420ED0234885427D
:101E60000BD0B5F1804F08D02148854205D02148DC
:101E7000854202D02048854200D100E000BF208882
:101E800050B92389A28861882846FFF743F8E18882
:101E9000284600F08FF925E0208804280AD12389FC
:101EA000A28861882846FFF775F8E188284600F087
:101EB0008AF917E0208808280AD12389A288618836
:101EC0002846FFF7B3F8E188284600F089F909E0D1
:101ED0002389A28861882846FFF7F0F8E188284620
:101EE00000F087F970BD0000002C01400034014073
:101EF0000004004000080040000C00400021018068
:101F00004180012181800021C180018170471AB187
:101F100083890B43838102E083898B4383817047EC
:101F200070B5002400220023058C4FF6FE76354064
:101F30000584028C8388048B4FF68F752C40B51E68
:101F40002C400D882C43751E2A400D892A434D884C
:101F50002A43144DA8420BD0134DA84208D0134D6C
:101F6000A84205D0124DA84202D0124DA84213D16A
:101F70004FF6F7752A404D892A434FF6FB752A40E4
:101F80008D882A434FF6FF652B404FF6FF552B40B7
:101F90008D892B43CD892B4383800483CD8885860F
:101FA000028470BD002C014000340140004001401B
:101FB00000440140004801400A460021018B4FF6D1
:101FC000F7731940114301837047000070B5002476
:101FD00000220023058C4FF6EF7635400584028CF5
:101FE0008388048B48F6FF752C404FF6FF452C4044
:101FF0000D884FF6FF7606EA05252C434FF6DF7570
:102000002A400D8906EA05152A434D8806EA05157A
:102010002A43154DA84202D0144DA8421DD14FF6B7
:102020007F752A404D894FF6FF7606EA05152A434B
:102030004FF6BF752A408D8806EA05152A434FF6EC
:10204000FF352B404FF2FF752B408D8906EA850541
:102050002B43CD8906EA85052B4383800483CD88F5
:102060000587028470BD0000002C0140003401404F
:1020700070B5002400220023058C4FF6FF66354022
:102080000584028C8388848B4FF68F752C404FF625
:10209000FC752C400D882C434FF6FF552A400D89C6
:1020A0004FF6FF7606EA05252A434D8806EA052500
:1020B0002A43154DA84202D0144DA8421DD14FF21B
:1020C000FF752A404D894FF6FF7606EA05252A431B
:1020D0004FF6FF352A408D8806EA05252A434EF63D
:1020E000FF752B404DF6FF752B408D8906EA0515CF
:1020F0002B43CD8906EA05152B4383808483CD8845
:102100008587028470BD0000002C0140003401402E
:1021100070B5002200230024058C4EF6FF76354072
:102120000584038C8488828B48F6FF752A404FF61D
:10213000FF452A400D884FF6FF7606EA05252A431B
:102140004DF6FF752B400D8906EA05352B434D886A
:1021500006EA05352B430B4DA84202D00A4DA84292
:1021600008D14BF6FF752C408D894FF6FF7606EAB5
:1021700085152C4384808283CD88A0F84050038449
:1021800070BD0000002C0140003401400A460021CF
:10219000818B4FF2FF7319404FF6FF7303EA02235E
:1021A00019438183704781867047A0F840107047BB
:1021B00081847047028B4FF6F3731A400283028BBF
:1021C0000A4302837047028B4FF2FF331A400283A7
:1021D000028B4FF6FF7303EA01231A430283704711
:1021E000828B4FF6F3731A408283828B0A43828379
:1021F0007047828B4FF2FF331A408283828B4FF6F7
:10220000FF7303EA01231A43828370470022028886
:102210001D4B98420ED01D4B98420BD0B0F1804F11
:1022200008D01B4B984205D01A4B984202D01A4B4B
:10223000984204D14FF68F731A404B881A43174BBC
:10224000984207D0164B984204D04FF6FF431A40ED
:10225000CB881A4302808B8883850B8803850A4BC1
:1022600098420BD0094B984208D00E4B984205D0AB
:102270000D4B984202D00D4B984201D10B7A038648
:102280000123838270470000002C0140003401408C
:102290000004004000080040000C00400010004016
:1022A000001400400040014000440140004801404B
:1022B0004FF6FF71818000210180C1804180017251
:1022C000704710B5012000F0F1F810BD10B50220E4
:1022D00000F0ECF810BD10B5032000F0E7F810BDD9
:1022E00010B50022002340F66A14A14200D100BFBD
:1022F0000A1201249440A3B2DC43048010BD21B132
:10230000828942F40052828104E082894DF6FF7393
:102310001A40828170471AB1838A0B43838202E09C
:10232000838A8B438382704770B502460024002362
:102330000025002040F66A16B14200D100BFC1F36B
:10234000421501F01F03012606FA03F3012D02D105
:102350009689334006E0022D02D1168A334001E00F
:10236000968A33400C12012606FA04F4168834408B
:1023700013B10CB1012000E0002070BDF0B50346A0
:10238000002400260025002040F66A17B94200D13B
:1023900000BF1846C1F3421401F01F06012707FAD7
:1023A00006F5012C01D10C3004E0022C01D11030D3
:1023B00000E014301AB107682F43076002E0076895
:1023C000AF430760F0BD00002DE9F04786B0054639
:1023D0000E460024A24600BFA1460027B08900B1E6
:1023E00000BF2F462C8A4CF6FF700440F08804434F
:1023F0002C82AC894EF6F3100440B0883189084332
:10240000718908430443AC81AC8A4FF6FF40044015
:10241000B0890443AC8201A8FEF756FC1F488742EE
:1024200002D1DDF810A001E0DDF80CA0A88900F4CD
:10243000004040B10AEBCA0000EB0A1031684900C5
:10244000B0FBF1F807E00AEBCA0000EB0A103168B4
:102450008900B0FBF1F86420B8FBF0F0040120091A
:10246000642101FB1089A88900F4004040B13220AA
:1024700000EBC900B0FBF1F000F00700044308E0F6
:10248000322000EB09106421B0FBF1F000F00F00E6
:1024900004432C8106B0BDE8F087000000380140FD
:1024A00001468888C0F308007047000070B50446F4
:1024B00000260025641E254951F8240040F22441DD
:1024C000FFF732FF002840D0204951F82400FFF7E1
:1024D000E7FF1F4951F824000021FEF77BF91C4952
:1024E00051F82400FEF782F9C0F1C800C6B21948BD
:1024F00050F82400066000BF0DE004EBC40000EBC0
:102500000410154901EBC000405D144951F8241036
:102510004855681C85B2B54204DA114850F82400C9
:10252000A842EAD8094951F8240040F22441FFF7B3
:10253000D7FE074951F82400C821FEF779F904496C
:1025400051F824000121FEF745F970BD200000205C
:10255000DC0000209C0600205002002074060020B1
:102560008806002000BFFEE702E008C8121F08C16D
:10257000002AFAD170477047002001E001C1121F04
:10258000002AFBD17047000010B56FF00400FEF781
:102590007BFC0A4800680A49B0FBF1F00949087061
:1025A0000846007800EB4001C1EBC0104FF6FF7108
:1025B00001EAC0000449088010BD00002802002084
:1025C00000127A00140000201600002010B58CB014
:1025D0000446194951F824000121FEF745FB04EB9C
:1025E000C40000EB0410154901EBC0000290144830
:1025F00050F82400001D019000200390C820049092
:1026000000200890802006900020079005900990F7
:102610004FF400500A9000200B900A4951F8240012
:1026200001A9FEF7E7F8074951F824000121FEF758
:10263000D1F80CB010BD0000B40000205002002002
:1026400020000020DC00002010B58CB004461549A5
:1026500051F824000121FEF707FB134850F824002D
:102660000290124850F82400001D019010200390A1
:10267000002004900890802006900020079005908C
:1026800009900A900B900A4951F8240001A9FEF71D
:10269000B1F8074951F824000121FEF79BF80CB06E
:1026A00010BD0000B40000204C06002020000020D7
:1026B000C800002038B50446164951F8240001210D
:1026C000FEF7A0F9144951F824000121FEF7ECFAB5
:1026D000124830F8240080B2ADF8000018208DF8C0
:1026E000030003208DF802000D4951F824006946CB
:1026F000FEF7FCF80B4830F8240080B2ADF800007B
:1027000004208DF80300064951F824006946FEF7BD
:10271000EDF838BD3C02002070000020840000204D
:102720005C0000209800002038B504460F4951F89D
:1027300024000121FEF7B8FA6846FEF7ABF90C4811
:1027400030F824000B4931F82410084380B2ADF86A
:10275000000004208DF8030003208DF802000649D4
:1027600051F824006946FEF7C1F838BD2001002069
:1027700030010020400100201001002070B5044607
:10278000641E074850F82400808C00B2454204497A
:1027900051F824004FF6FF71FFF70AFD284670BD7F
:1027A000F000002010B50446641E2046FFF7BCFF71
:1027B000204600F06BFA034951F824000121FFF78D
:1027C00008FB10BDF00000201CB54FF4A060FEF720
:1027D000A7F901210846FEF767FA01211F48FEF715
:1027E00011F9FFF7D1FE4FF4E131032000F0EEFCC8
:1027F0004FF4E131022000F0C7FD0120FFF7D2FFC6
:102800000220FFF7CFFF012000210B460A46CDE949
:1028100000101348FEF718FA012000210B460A4663
:10282000CDE900100F48FEF70FFA012000210B46FA
:102830000A46CDE900100C48FEF706FA01200021F7
:102840000B460A46CDE900100848FEF7FDF900F0F6
:1028500047F80A2000F00CF800BFFEE70002300045
:10286000B40C0020D00C0020EC0C0020080D00203F
:1028700010B50446204600F0E3F901221146054850
:10288000FFF745FB00F008F801210248FFF7A1FA25
:1028900010BD00000008004008B51E208DF80000A3
:1028A00001208DF8030002208DF801008DF8020050
:1028B0006846FEF7FDF808BD38B504460748005DD8
:1028C0008DF8000001208DF801008DF802008DF8D0
:1028D00003006846FEF7ECF838BD0000AC000020AD
:1028E00008B501210820FEF7DFF910208DF803005C
:1028F0004FF47040ADF8000003208DF802006946E7
:102900000348FDF7F3FF0A2000F032F908BD00008C
:10291000000C014070B504460D464248016820464F
:10292000FDF714FC3F49086029463F480068FDF761
:102930000DFC3D4908603D493A480068FDF716FE28
:1029400003D23A483749086008E0394935480068F9
:10295000FDF702FE02D23648324908603349324858
:102960000068FDF703FE03D230482F49086008E0F5
:102970002F492D480068FDF7EFFD02D22C482A4967
:102980000860002127480068FDF7E6FD10D200200E
:102990002849086001202849C1F8B8012148006889
:1029A000FDF7A9FD86B231462448FFF7FCFB0FE096
:1029B00001202049086000201F49C1F8B8011948CA
:1029C0000068FDF798FD86B231461C48FFF7EBFB27
:1029D000002115480068FDF7BFFD11D20020154900
:1029E0000C39086001201449C1F8B4010E48006890
:1029F000FDF781FD86B231461048FFF7D6FB10E0A7
:102A000001200C490C39086000200B49C1F8B401C1
:102A100005480068FDF76FFD86B231460748FFF7AD
:102A2000C4FB70BD500100205401002000C0DA45F5
:102A300000C0DAC5BC81214200802142002C014047
:102A4000034A12680260034A12680A607047000075
:102A5000500100205401002070B504460D463D4849
:102A600004603D4805603D493A480068FDF77EFD39
:102A700003D23A483749086008E0394935480068C8
:102A8000FDF76AFD02D236483249086033493248C0
:102A90000068FDF76BFD03D230482F49086008E05D
:102AA0002F492D480068FDF757FD02D22C482A49CE
:102AB0000860002127480068FDF74EFD10D2002075
:102AC0002849086001202849C1F8B8012148006858
:102AD000FDF711FD86B231462448FFF764FB0FE095
:102AE00001202049086000201F49C1F8B801194899
:102AF0000068FDF700FD86B231461C48FFF753FB26
:102B0000002115480068FDF727FD11D20020154966
:102B10000C39086001201449C1F8B4010E4800685E
:102B2000FDF7E9FC86B231461048FFF73EFB10E0A6
:102B300001200C490C39086000200B49C1F8B40190
:102B400005480068FDF7D7FC86B231460748FFF715
:102B50002CFB70BD500100205401002000C0DA455C
:102B600000C0DAC5BC81214200802142002C014016
:102B700010B588B00446012140F60400FEF794F831
:102B800018208DF803004FF41060ADF8000003200A
:102B90008DF8020069462848FDF7A8FE41F61F405F
:102BA000ADF8180004EB84004000401E80B2ADF880
:102BB00014000020ADF81600ADF81A0005A91F4852
:102BC000FFF724FB6020ADF804000020ADF80C00F6
:102BD000ADF80E000120ADF806000020ADF80800A9
:102BE000ADF80A00ADF81000ADF8120001A91348C5
:102BF000FFF796F901A91148FFF7E8F901A90F4875
:102C0000FFF736FA01A90D48FFF782FA08210B48B1
:102C1000FFF7D2F908210948FFF7B8FA0121074860
:102C2000FFF7E3F801210548FFF7C4F80121034845
:102C3000FFF7CFF808B010BD00080140002C01409C
:102C40003EB5044601210420FEF71EF840F2CF20D5
:102C5000ADF80000642104FB01F0401E80B2ADF825
:102C600004000020ADF80200ADF8060069460548F2
:102C7000FFF7CCFA642104FB01F0401E02490880F2
:102C80003EBD0000000800401800002010B586B0CE
:102C90000446032C04D101214803FEF705F805E0A2
:102CA000184951F824000121FDF7EEFF03A8FFF7B2
:102CB000FFFA0020ADF80C004FF6FF70ADF81000E1
:102CC0000020ADF81200ADF80E000F4951F82400B5
:102CD00003A9FFF79BFA0C4951F8240000231A4678
:102CE0000321FFF791F86846FFF708F90020ADF8D7
:102CF0000800054951F824006946FFF7A9F806B015
:102D000010BD000000010020F00000202DE9F04F70
:102D1000044609AD95E8E010DDE90E9ADDF834804F
:102D2000601EDFF808B35BF820007E287ED131B149
:102D3000601EDFF8FCB20BEBC0104078087032B1B7
:102D4000601EDFF8ECB20BEBC0108078107033B16E
:102D5000601EDFF8DCB20BEBC010C078187035B124
:102D6000601EDFF8CCB20BEBC0104068286036B1B3
:102D7000601EDFF8BCB20BEBC0108068306037B16A
:102D8000601EDFF8ACB20BEBC010C0683860BCF15D
:102D9000000F07D0601EDFF898B20BEBC01000697F
:102DA000CCF80000B8F1000F07D0601EDFF880B249
:102DB0000BEBC0104069C8F80000B9F1000F07D054
:102DC000601EDFF86CB20BEBC0108069C9F8000020
:102DD000BAF1000F07D0601EDFF854B20BEBC01041
:102DE000C069CAF80000109848B1601EDFF840B210
:102DF0000BEBC010D0F820B01098C0F800B01198BC
:102E000048B1601EDFF828B20BEBC010D0F824B038
:102E10001198C0F800B0129858B1601EDFF810B2D7
:102E20000BEBC010D0F828B0129800E0FBE0C0F81F
:102E300000B0139848B1601EDFF8F4B10BEBC0107E
:102E4000D0F82CB01398C0F800B0149848B1601EA8
:102E5000DFF8DCB10BEBC010D0F830B01498C0F83C
:102E600000B0159848B1601EDFF8C4B10BEBC0107C
:102E7000D0F834B01598C0F800B0169848B1601E6C
:102E8000DFF8ACB10BEBC010D0F838B01698C0F832
:102E900000B0179848B1601EDFF894B10BEBC0107A
:102EA000D0F83CB01798C0F800B0189848B1601E30
:102EB000DFF87CB10BEBC010D0F840B01898C0F828
:102EC00000B0199848B1601EDFF864B10BEBC01078
:102ED000D0F844B01998C0F800B01A9848B1601EF4
:102EE000DFF84CB10BEBC010D0F848B01A98C0F81E
:102EF00000B01B9848B1601EDFF834B10BEBC01076
:102F0000D0F84CB01B98C0F800B01C9848B1601EB7
:102F1000DFF81CB10BEBC010D0F850B01C98C0F813
:102F200000B01D9848B1601EDFF804B10BEBC01073
:102F3000D0F854B01D98C0F800B01E9848B1601E7B
:102F4000DFF8ECB00BEBC010D0F858B01E98C0F80A
:102F500000B01F9848B1601EDFF8D4B00BEBC01072
:102F6000D0F85CB01F98C0F800B0209848B1601E3F
:102F7000DFF8BCB00BEBC010D0F860B02098C0F800
:102F800000B0219848B1601EDFF8A4B00BEBC01070
:102F9000D0F864B02198C0F800B0229848B1601E03
:102FA000DFF88CB00BEBC010D0F868B02298C0F8F6
:102FB00000B0239848B1601EDFF874B00BEBC0106E
:102FC000D0F86CB02398C0F800B0249848B1601EC7
:102FD000DFF85CB00BEBC010D0F870B02498C0F8EC
:102FE00000B0259848B1601EDFF844B00BEBC0106C
:102FF000D0F874B02598C0F800B0269848B1601E8B
:10300000DFF82CB00BEBC010D0F878B02698C0F8E1
:1030100000B04FF0000B601EDFF810E04EF820B05B
:103020000120BDE8F08F0020FBE70000B00A00207F
:10303000B00800202DE9F84F04460E461746984682
:10304000DDE90AAB601E604901EBC010451C4FF082
:1030500000097B200090601E01EBC0104670601ECE
:1030600001EBC0108770601E01EBC01080F8038078
:10307000601E01EBC010C0F804A0601E01EBC01080
:10308000C0F808B0611E504A02EBC1110C98C8602C
:10309000611E02EBC1110D980861611E02EBC111A6
:1030A0000E984861611E02EBC1110F988861611E84
:1030B00002EBC1111098C861611E02EBC111119899
:1030C0000862611E02EBC11112984862611E02EB98
:1030D000C11113988862611E02EBC1111498C86275
:1030E000611E02EBC11115980863611E02EBC1114C
:1030F00016984863611E02EBC11117988863611E20
:1031000002EBC1111898C863611E02EBC111199836
:103110000864611E02EBC1111A984864611E02EB3B
:10312000C1111B988864611E02EBC1111C98C86410
:10313000611E02EBC1111D980865611E02EBC111F1
:103140001E984865611E02EBC1111F988865611EBB
:1031500002EBC1112098C865611E02EBC1112198D4
:103160000866611E02EBC11122984866611E02EBDF
:10317000C11123988866611E02EBC1112498C866AC
:10318000611E02EBC11125980867611E02EBC11197
:1031900026984867611E02EBC1112798886705E0F1
:1031A00015F8011B01EB090000F0FF090098411E12
:1031B00089B200910028F3D185F80090204600F0F4
:1031C00069F9BDE8F88F0000B00600203EB504465E
:1031D0000D46601E104901EB80007E22611E0F4BE0
:1031E00003EBC111CDE900120290601E0C4901EB06
:1031F000C0127E232946204600F0EEF8A521601E6D
:10320000074A02EBC01001705A21601E02EBC01089
:1032100080F87D103EBD0000B00A0020B0080020FC
:10322000B00600202DE9F04F8DB004460F469046C1
:103230009946DDE916AB282103A8FCF77CFF0026A0
:1032400000250020029001200190601E4C4951F899
:10325000200000287ED000BF4AE0601E00EBC001C5
:1032600001EB0010474901EB4000405D392823DCA9
:10327000601E00EBC00101EB0010424901EB400071
:10328000405D302818DB03A850F8260000EB8000D2
:103290004200601E00EBC00101EB0010394901EB58
:1032A0004000405D3038019900FB012003A941F83E
:1032B0002600012002901AE0601E00EBC00101EB25
:1032C0000010304901EB4000405D2D2803D14FF044
:1032D000FF3001900BE0012001900298012803D1FA
:1032E000701CC6B2002002900A2E00D106E06D1CB0
:1032F000601E234951F82000A842AEDC00BF0FB188
:1033000003983860B8F1000F02D00498C8F80000A4
:10331000B9F1000F02D00598C9F80000BAF1000F0A
:1033200002D00698CAF80000BBF1000F02D007983F
:10333000CBF80000189810B10899189801601998F6
:1033400010B10999199801601A9810B10A991A9840
:10335000016000E012E01B9810B10B991B9801600E
:103360001C9810B10C991C9801600021601E044A41
:1033700042F8201001200DB0BDE8F08F0020FAE7E0
:10338000680C0020A00B00203EB504460D46601ED0
:103390000E4901EB80003222611E01EBC10303EBF9
:1033A00001110B4B03EB4101CDE900120290601EAD
:1033B00000EB800101EBC000064901EB80023423E1
:1033C0002946204600F008F83EBD0000680C0020A9
:1033D000A00B0020C00A00202DE9F04704460D464E
:1033E00016461F46DDE9099ADDF82080641E204854
:1033F00040F824501F4840F824601F4840F82480BB
:103400001E4840F824701E4840F824901D4840F89B
:1034100024A02046FFF750FA1B4850F8240010B1B2
:103420002046FFF711F9194850F8240010B1204642
:10343000FFF7CCF8204600F053F82046FFF73AF9A2
:10344000134951F82400012240F22441FEF796FF6F
:103450000F4951F824000122C021FEF75CFF0C49FE
:1034600051F824000121FEF74AFFBDE8F087000073
:10347000380600204C06002074060020600600205C
:10348000880600209C060020C8000020DC000020E8
:103490002000002010B50446641E0F4951F8240096
:1034A000FDF7A4F908B100BFFEE70B4951F824006D
:1034B0000021FDF78FF9094A32F8242091B2064A1B
:1034C00052F82400FDF7B4F9034951F82400012112
:1034D000FDF780F910BD0000C80000206006002044
:1034E0001FB50446114951F824000121FDF7DCFB0A
:1034F0000F4951F824000121FDF7C6FB0D4850F893
:10350000240000900C20ADF80A000020ADF8040063
:10351000ADF80800ADF80600ADF80C00064951F80A
:1035200024006946FEF750FF1FBD00004800002040
:103530003400002038060020200000205C35000800
:10354000000000203C0200000C07000800360008C4
:103550003C020020140F000078250008412D0102D4
:10356000030404D0090607080902040608143801F8
:1035700040124412401A4804D13202A204D91E510A
:103580001A083C29041A0C047129322904B9651956
:103590004B394A994F290C39249929542526279AC1
:1035A00001048112441C024080041A1C04811A5830
:1035B0000C1A6C049A301439AA1A04041A0C042C3C
:1035C0003401404429CA39679A20B429046C100197
:1035D00040B029045A1074294D6908293C9A800882
:1035E000C19A04D0A9AC01680A251404210321A0C2
:1035F000417BA24ACE000900010203040607080924
:04000005080000ED02
:00000001FF
