:020000040800F2
:100000006011002005010008D90A0008D10A000883
:10001000D50A00088F0700084125000800000000ED
:10002000000000000000000000000000C90D0008F2
:100030006108000800000000910C0008DD0E0008B7
:100040001F0100081F0100081F0100081F01000810
:100050001F0100081F010008650800089508000836
:10006000AD080008C5080008DD0800081F010008E9
:100070001F0100081F0100081F0100081F010008E0
:100080001F0100081F0100081F0100081F010008D0
:100090001F0100081F0100081F010008F5080008E3
:1000A0001F0100081F0100081F0100081F010008B0
:1000B0001F0100081F010008811100081F0100082E
:1000C0001F0100081F0100081F0100081F01000890
:1000D0001F0100087F2200088922000893220008DF
:1000E0007D0800081F0100081F010008DFF810D07C
:1000F00000F000FB004800473D290008AFF30080F6
:10010000601100200648804706480047FEE7FEE7EA
:10011000FEE7FEE7FEE7FEE7FEE7FEE7FEE7FEE7B7
:10012000E10E0008ED000008D2B201E000F8012B5A
:10013000491EFBD270470022F6E710B513460A4667
:1001400004461946FFF7F0FF204610BDF0B480EAE0
:100150000102D40F4200B2EB410F02D20246084620
:1001600011464A0042D0C30DDDB2C1F3C752AD1AE9
:10017000202D35DAC1F3160141F4000204B15242D8
:10018000C5F1200602FA06F12A411044B3EBD05F14
:1001900023D0C4B1012DA0EBC35009DCF0BC4FF05B
:1001A000004202EAC352DBB200F5000000F016BACA
:1001B000400000F1807000EBC350A0F1807040EA75
:1001C000D170490009E0490841EAC071A0EBC35071
:1001D00000F50000400800EBC350F0BC00F0F5B99A
:1001E0006142012202EB4101001BF6E7F0BC7047BF
:1001F00081F00041AAE780F00040A7E780EA010211
:1002000010B502F00043400022D04A001FD0010E7A
:1002100001EB1261C0F35600C2F3560240F4000035
:1002200042F40002A0FB022000047F39140400D035
:10023000401C50EA124001D44000491EC2B20C06D4
:1002400004EBD010401C4008802A02D003E00020BC
:1002500010BD20F00100002900DA0020184310BD75
:1002600030B480EA010202F0004530F0004221F093
:10027000004013D090B1C30DD40DC2F31601C0F3EA
:100280001600E41A41F4000140F400027D3491426A
:1002900001D3641C00E04900002C02DA30BC0020CD
:1002A00070474FF400000023914201D3891A0343A1
:1002B00040084FEA4101F7D151B1914202D14FF0CC
:1002C000004105E002D24FF0010101E06FF00101B1
:1002D00003EBC450284430BC00F077B92DE9FE4F41
:1002E00081EA030404F0004421F0004100944FF03F
:1002F000000B23F0004350EA01045ED052EA0304ED
:100300005BD0C3F30A54C1F30A552C44A4F2F3346E
:100310000194A0FB0254C1F3130141F48011C3F313
:10032000130343F4801301FB024400FB034E840AD1
:10033000970A44EA815447EA8357A4FB0768029569
:100340008D0A05FB07854FEA932C04FB0C54270507
:10035000029D4FEA065847EA1637B5EB08056EEBE3
:10036000070C870E920E47EA811742EA8312A7FB19
:100370000201B6EB0B0164EB00042B0D43EA0C33D6
:100380005E1844EB1C50DA465146E7FB0201C5F308
:1003900013044FEA0B3343EA14534FEA0432019C2F
:1003A00043EA0603A4F10C040294009CCDE900B4D6
:1003B00000F051F903B0BDE8F08F00200146F9E7E5
:1003C0002DE9F04D81EA030404F0004B21F00045D3
:1003D00014464FF0000A23F0004150EA050220D0F5
:1003E00054EA01021DD0C5F30A570246C5F31303B0
:1003F000C1F31300C1F30A5640F4801543F480138F
:10040000A7EB0608101BD64608F2FD3873EB050073
:1004100002D308F1010801E092185B41B8F1000F26
:1004200003DA00200146BDE8F08D00204FF4801172
:10043000064684460EE0171B73EB050705D3121B17
:1004400063EB050306434CEA010C49084FEA300010
:1004500092185B4150EA0107EDD152EA030012D035
:1004600082EA040083EA0501084305D0101BAB4172
:1004700006D20122002306E000224FF0004302E0F2
:100480006FF0010253101AEB06004CEB085110EB11
:100490000A0041EB0B01BDE8F04D00F0CDB8C10FF3
:1004A00080EAE0700844CA079623002100F096B85D
:1004B00096230022114600F091B80EB5C10F80EAD4
:1004C000E0700844CA07002140F233438DE80E0073
:1004D0000A460B4600F0BFF803B000BD0EB540F26F
:1004E000334102910021CDE900110A460B4600F08C
:1004F000B2F803B000BD20F00040C10DC0F31600FB
:1005000040F400007F2901DA00207047962903DCBF
:10051000C1F19601C840704796398840704701F094
:10052000004330B421F0004150EA010206D00A0D28
:10053000A2F56072C1F31301002A02DC30BC002076
:100540007047440F44EAC104C100E01830BC00EB1E
:10055000C25000F03AB80000002801DBC0F10040B2
:10056000002901DBC1F1004181427047002801DB15
:10057000C0F10040002901DBC1F100418842704711
:1005800030B50B46014600202022012409E021FA63
:1005900002F59D4205D303FA02F5491B04FA02F560
:1005A0002844151EA2F10102F1DC30BD202A04DB33
:1005B000203A00FA02F1002070479140C2F1200376
:1005C00020FA03F31943904070470029A8BF7047F1
:1005D000401C490008BF20F00100704710B4B0FA79
:1005E00080FC00FA0CF050EA010404BF10BC704714
:1005F00049B1CCF1200421FA04F411FA0CF118BF2E
:10060000012121430843A3EB0C01CB1D4FEA0061FC
:100610004FEA102042BF002010BC704700EBC350CF
:1006200010440029A4BF10BC7047401C490008BFFB
:1006300020F0010010BC704710B5141E73F10004C7
:1006400008DA401C41F1000192185B411A4301D1C4
:1006500020F0010010BD2DE9F04D92469B4611B1EE
:10066000B1FA81F202E0B0FA80F220329046FFF750
:100670009DFF04460F4640EA0A0041EA0B0153463B
:100680005A46084313D0114653EA010019D0C8F165
:100690004002504600F040F805460E465046594686
:1006A0004246FFF783FF084305D0012004E02046BF
:1006B0003946BDE8F08D0020054346EAE0762C433C
:1006C00037430A986305E40AA0EB08000022FD0AFC
:1006D00044EA47540A3002D500200146E9E7010503
:1006E00010196941DDE9084500196941BDE8F04D7F
:1006F000A2E70000064C074D06E0E06840F0010369
:1007000094E8070098471034AC42F6D3FFF7F2FCA8
:10071000B0360008D0360008202A04DB203A21FA3F
:1007200002F00021704721FA02F3D040C2F120020A
:10073000914008431946704770B58C1810F8015B5A
:1007400015F0070301D110F8013B2A1106D110F86A
:10075000012B03E010F8016B01F8016B5B1EF9D16E
:100760002B0705D40023521E0DD401F8013BFAE7F4
:1007700010F8013BCB1A921C03E013F8015B01F85F
:10078000015B521EF9D5A142D8D3002070BD00BF35
:10079000FEE700002DE9FC470F480088FFF79EFEAA
:1007A00004460D460D4801F02EFB0D490988A0EBCB
:1007B000010A5046FFF781FE06460022094BFFF76B
:1007C0008DFD804622462B46FFF7FAFDCDE900015C
:1007D000FFF7A5FEBDE8FC871800002000080040D8
:1007E0001A0000200000594010B5034801F00BFB2F
:1007F0000249088010BD0000000800401A000020D7
:1008000021B1026842F00102026004E002684FF682
:10081000FE731A40026070470146486880B2704714
:1008200010B50022026847F6F0739A430C6A8B6891
:1008300023430C6923434C6923438C692343CC69CC
:1008400023434C6A23438C6A23431A430260CB68D8
:1008500043600B6883604B68C36010BD41607047A4
:100860007047000010B5034800F050F802480068D7
:10087000804710BDFFFF0F001C00002010B503488B
:1008800000F044F802480068804710BDFFFF0F00E9
:100890001C00002010B5034800F038F8024800683A
:1008A000804710BDFFFF0F001C00002010B503485B
:1008B00000F02CF802480068804710BDFFFF0F00D1
:1008C0001C00002010B5034800F020F80248006822
:1008D000804710BDFFFF0F001C00002010B503482B
:1008E00000F014F802480068804710BDFFFF0F00B9
:1008F0001C00002010B5034800F008F8024800680A
:10090000804710BDFFFF0F001C0000200149086058
:1009100070470000140401402DE9F0410246002513
:100920000026002000230024002791F803C00CF0CB
:100930000F0591F803C00CF0100CBCF1000F03D0B0
:1009400091F802C04CEA050591F800C0BCF1000F17
:1009500031D0146800202BE04FF0010C0CFA00F3AA
:10096000B1F800C00CEA03069E4220D183004FF08C
:100970000F0C0CFA03F7BC4305FA03FC4CEA040421
:1009800091F803C0BCF1280F06D14FF0010C0CFA0E
:1009900000FCC2F814C00AE091F803C0BCF1480F93
:1009A00005D14FF0010C0CFA00FCC2F810C0401C3D
:1009B0000828D1D31460B1F800C0BCF1FF0F34DDBA
:1009C000546800202EE000F1080C4FF0010808FAEE
:1009D0000CF3B1F800C00CEA03069E4221D183005B
:1009E0004FF00F0C0CFA03F7BC4305FA03FC4CEA7A
:1009F000040491F803C0BCF1280F05D100F1080CE4
:100A000008FA0CF8C2F8148091F803C0BCF1480F42
:100A100007D100F1080C4FF0010808FA0CF8C2F8F1
:100A20001080401C0828CED35460BDE8F08100003F
:100A3000F0B50A46002300240021002500F00046FE
:100A4000B6F1004F02D11D4EF16901E01B4E7168F5
:100A5000C0F3034583B200F44016B6F5401F08D139
:100A600021F07061154E766826F07066134F7E6037
:100A700012E000F48016B6F5801F06D1032606FAB0
:100A800005F4A14341F0706106E0460D360103FA1A
:100A900006F6B14341F0706122B1460D360103FA0A
:100AA00006F6314300F00046B6F1004F02D1034E86
:100AB000F16101E0014E7160F0BD000000000140F5
:100AC0004FF6FF710180022181700421C1707047CF
:100AD00000BFFEE700BFFEE77047000070B50021D1
:100AE00000230F22C47804B3154C246804F4E06496
:100AF000C4F5E064210AC1F10403CA40447804FA51
:100B000003F184781440214309010E4C0678A15565
:100B1000047804F01F050124AC4005786D11AD0088
:100B200005F1E025C5F8004109E0047804F01F054F
:100B30000124AC40044D0678761145F8264070BD7E
:100B40000CED00E000E400E080E100E00249014338
:100B5000024A1160704700000000FA050CED00E049
:100B60002DE9F84F04468846164641463046FFF7C1
:100B70003FFB05462946A069FFF7E8FAA061284631
:100B80002169FFF735FB8346A168FFF737FB8146F4
:100B9000A1696068FFF732FB834629462068FFF7AA
:100BA0002DFB59460090FFF7D1FA82464946FFF7E0
:100BB000CDFA074625613846E168FFF7D7FC01D238
:100BC000E7680AE0E06880F0004939464846FFF7E8
:100BD000CDFC02D2E06880F000473846BDE8F88FCF
:100BE0002DE9FC5F04468846164641463046FFF72D
:100BF000FFFA05464FF080402169FFF7FFFA2946CA
:100C00000090FFF7F8FA83466169FFF79FFA824682
:100C1000A168FFF7F3FA814629466068FFF7EEFA0C
:100C2000009028462169FFF7E3FA83462168FFF721
:100C3000E5FA82460099FFF789FA49460190FFF7E5
:100C400085FA07462069606125613846E168FFF74B
:100C50008DFC01D2E7680AE0E06880F0004939467F
:100C60004846FFF783FC02D2E06880F00047384630
:100C7000BDE8FC9F70B5DDE904450160836042601A
:100C8000C460012D03D1002606614661866170BDF6
:100C90007047000029B1064A52690243044B5A6169
:100CA00004E0034A52698243014B5A6170470000D5
:100CB0000010024029B1064AD2690243044BDA61AE
:100CC00004E0034AD2698243014BDA6170470000B5
:100CD0000010024029B1064A92690243044B9A610E
:100CE00004E0034A92698243014B9A617047000015
:100CF0000010024030B500210022002400232D4DB9
:100D00006D6805F00C0121B1042905D0082923D113
:100D100005E0294D056022E0274D05601FE0254DC7
:100D20006D6805F47012234D6D6805F4803402255A
:100D300005EB92421CB9214D554305600BE01D4D5A
:100D40006D6805F400351DB11C4D5543056002E08A
:100D5000194D5543056002E0174D056000BF00BF07
:100D6000144D6D6805F0F0010909154D6B5C0568BF
:100D7000DD4045600F4D6D6805F4E061090A104DD6
:100D80006B5C4568DD4085600A4D6D6805F4605117
:100D9000C90A0B4D6B5C4568DD40C560054D6D684B
:100DA00005F44041890B074D6B5CC568B5FBF3F555
:100DB000056130BD0010024000127A0000093D00BC
:100DC0000000002010000020704710B500F002F86D
:100DD00010BD00000CB50020019000903348006861
:100DE00040F480303149086000BF3048006800F4AA
:100DF000003000900198401C0190009818B90198AB
:100E0000B0F5A06FF1D12948006800F4003010B1AE
:100E10000120009001E0002000900098012843D1BB
:100E20002348006840F01000214908600846006827
:100E300020F0030008600846006840F002000860E7
:100E40001A484068194948600846406848600846A2
:100E5000406840F4806048600846406820F47C1098
:100E600048600846406840F4E8104860084600685A
:100E700040F08070086000BF0C48006800F000700F
:100E80000028F9D00948406820F00300074948606D
:100E90000846406840F00200486000BF03484068D0
:100EA00000F00C000828F9D10CBD00000010024031
:100EB00000200240042808D14FF0E021096941F0E8
:100EC00004014FF0E022116107E04FF0E0210969D1
:100ED00021F004014FF0E0221161704770470000DB
:100EE00010B51348006840F0010011490860084639
:100EF0004068104908400E494860084600680E499D
:100F000008400B4908600846006820F4802008600B
:100F10000846406820F4FE0048604FF41F008860D7
:100F2000FFF753FF4FF000600449086010BD000058
:100F3000001002400000FFF8FFFFF6FE08ED00E0A1
:100F4000F0B50C46154600220021068C4FF6FE77C0
:100F50003E400684028B018C4FF60C7632407E1C9C
:100F600006EA03162E433243104EB0420ED0104E06
:100F7000B0420BD0B0F1804F08D00E4EB04205D039
:100F80000D4EB04202D00D4EB04206D14FF6FD7666
:100F9000314044F00106314305E04FF6F57631402B
:100FA00044F00106314302830184F0BD002C01406E
:100FB000003401400004004000080040000C0040E4
:100FC000F0B50C461546002200210026078C4FF68E
:100FD000EF7C07EA0C070784028B018C4FF6FF7742
:100FE00007EA041640F6FF473A404FF6FF7707EA54
:100FF00003373A434FF6FF7707EA05273A43114F85
:10100000B8420ED0104FB8420BD0B0F1804F08D08C
:101010000E4FB84205D00E4FB84202D00D4FB84225
:1010200006D14FF6DF77394046F01007394305E027
:101030004FF65F77394044F010073943028301844B
:10104000F0BD0000002C01400034014000040040CD
:1010500000080040000C0040F0B50C461546002288
:1010600000210026078C4FF6FF6C07EA0C07078467
:10107000828B018C4FF6FF7707EA04264FF60C7738
:101080003A404FF6FF7707EA03172F433A43114FD1
:10109000B8420ED0104FB8420BD0B0F1804F08D0FC
:1010A0000E4FB84205D00E4FB84202D00D4FB84295
:1010B00006D14FF6FF57394046F48077394305E0B3
:1010C0004FF2FF57394044F48077394382830184DB
:1010D000F0BD0000002C014000340140000400403D
:1010E00000080040000C0040F0B50C4615460022F8
:1010F00000210026078C4EF6FF7C07EA0C070784C8
:10110000828B018C4FF6FF7707EA043640F6FF47E3
:101110003A404FF6FF7707EA05273A434FF6FF7745
:1011200007EA03373A43114FB8420ED0104FB84286
:101130000BD0B0F1804F08D00E4FB84205D00E4F03
:10114000B84202D00D4FB84206D14DF6FF77394074
:1011500046F48057394305E047F6FF57394044F4D9
:101160008057394382830184F0BD0000002C014088
:10117000003401400004004000080040000C004022
:1011800000B5A5B0002024902390229021902090BB
:10119000FFF72AFB0121FD4800F0F6FDFC4800683E
:1011A00040F2E731884201DB002002E0F8480068A5
:1011B000401CF749086000201A901B901C90F549CC
:1011C000F54AF64B1D90CDE91632CDE91810F448DA
:1011D000F449F54AF54BCDE91232CDE91410F44843
:1011E000F449F54A0023CDE90E32CDE91010F34859
:1011F000F349F44AF44BCDE90A32CDE90C10002052
:10120000F249F34AF34BCDE90632CDE90810F24832
:101210000021F24AF24BCDE90232CDE90410F14847
:10122000F1490023F14ACDE90010F149032001F012
:1012300027FEF0480068002848D10120ED490860E9
:101240000020EB490870E9490870EB48E64908605E
:10125000EA48E44908600020E1490860E848DF49BD
:101260000860E848DC4908600020DA490860D8498D
:101270000860E148D54908604FF07E50D2490860C7
:101280000020D0490860CE490860DF48CB4908609B
:101290000020C9490860C7490860D748C4490860A8
:1012A000DA48C2490860DA48BF490860D248BD49F7
:1012B00008604FF07E50BA490860D548B7490860C9
:1012C000D448B5490860D448B24908600020C349F1
:1012D0000968CDE90010C2480368C2480268C248E4
:1012E0000168CE48FFF7C6FC0020BC490968CDE97B
:1012F0000010BB480368BB480268BB480168C84887
:10130000FFF7B8FC0020B1490968CDE90010B048EA
:101310000368B0480268B0480168C248FFF7AAFCF9
:101320000020A6490968CDE90010A5480368A54832
:101330000268A5480168BC48FFF79CFC092024907E
:1013400014E02498401EB94951F82010B74A249857
:1013500042F820102498401EB54951F82010B44A94
:10136000249842F820102498401E249024980028A5
:10137000E7DC002003900490059006900090019017
:10138000AC4BAD4AAD490290022002F005F800B323
:10139000AA480068012807D1A7480068012818D189
:1013A0000220A749087014E0A4480068022804D16C
:1013B000A1480068A34908600BE0A0480068032822
:1013C00007D19D480068994908609A480068984983
:1013D000086000209C4908609C49086024902CE02B
:1013E0009249249851F820001D90FFF758F81E905C
:1013F0006B4801681E98FEF733FF1F909248016802
:101400001F98FEF7A3FE904908608949249851F877
:1014100020001D90FFF743F81E90614801681E9858
:10142000FEF71EFF1F90894801681F98FEF78EFE89
:10143000864908602498401C24902498FFF72FF8D0
:101440001F90574801681F98FFF786F8C8D30220FD
:1014500001F04EFA401E1F90FFF721F87C4908600A
:10146000012001F045FAC0F101001F90FFF717F8C5
:10147000784908605E48007801280FD10020704943
:1014800008700846007800285ED0084600780128D9
:101490005AD0084600787049087055E053480078E3
:1014A00001280DD16649087008460078E8B308465F
:1014B0000078012848D0084600786749087043E062
:1014C0005F48007818B15E48007801283CD10120BF
:1014D00042490968CDE90010414803684148026863
:1014E000414801684D48FFF7C5FB01203B490968A9
:1014F000CDE900103A4803683A4802683A48016862
:101500004748FFF7B7FB012030490968CDE90010D3
:101510002F4803682F4802682F4801684148FFF7A9
:10152000A9FB01202549096800E00DE0CDE9001084
:101530002348036823480268234801683A48FFF7B4
:1015400099FB04203E4908703D48007820B90021ED
:10155000084601F03BFB66E339480078012814D1C6
:10156000002115480068FEF7F7FF77D200211148E7
:101570000068FEF7F1FF71D20E4801680E4800685E
:10158000FEF736FE00211F9069E004E100080040EC
:10159000580100208C010020800100203002002032
:1015A000CC0100207C010020880100208401002063
:1015B0009001002024020020200200201C020020B4
:1015C000E4010020E0010020DC010020D80100201F
:1015D000C4010020C0010020BC010020B80100208F
:1015E0009C0100209801002094010020750100203A
:1015F000740100203402002000002041000040401F
:1016000000C0DA450AD7A3BC0000204200007A449B
:101610000000A0400000A04200009643C80C00203B
:10162000E40C0020000D00201C0D0020380D0020CF
:10163000EC01002064010020600100205C0100201A
:1016400068010020E8010020D001002014020020E1
:10165000A8010020AC0100206901002011E0FEF784
:1016600085FF01D2002005E0FB480168FB480068C7
:10167000FEF7BEFDFA490860F8480068F9490860BD
:1016800070E00021F5480068FEF770FF1FD80021C8
:10169000F1480068FEF760FF19D2EF480168EF4893
:1016A0000068FEF753FD00211F90FEF755FF01D2A1
:1016B000002005E0E8480168E8480068FEF746FDBC
:1016C000E7490860E5480068E64908604AE000210B
:1016D000E2480068FEF740FF1FD20021DE480068A4
:1016E000FEF744FF19D8DC480168DC480068FEF7C3
:1016F0002DFD00211F90FEF739FF01D2002005E0EB
:10170000D5480168D5480068FEF720FDD549086036
:10171000D2480068D249086024E00021CF48006820
:10172000FEF724FF1ED80021CB480068FEF71EFFFD
:1017300018D8C9480168C9480068FEF759FD00215A
:101740001F90FEF709FF01D2002005E0C2480168A2
:10175000C2480068FEF74CFDC2490860BF480068F7
:10176000BF490860BE480268BF480168BF48FFF72C
:1017700037FABF490860BB480268BE480168BE48E6
:10178000FFF72EFABD49086008460168B8480068AE
:1017900001F07AF947E2BA48007802287ED1B948C8
:1017A0000168B9480068FEF723FD1F90B74801683B
:1017B0001F98FEF7D1FE72D2B448006880F0004056
:1017C0001F90B0480168B0480068FEF711FD1E90F8
:1017D0001F99FEF7CBFE77D2AD480068FEF75FFE9B
:1017E0001E90AC4801681E98FEF705FD1F90AA48A0
:1017F00001681F98FEF7B0FE66D2A748006880F027
:1018000000401F90A2480068FEF749FE1D90A148C5
:1018100001681D98FEF7EFFC1E901F99FEF7A6FECB
:1018200052D29E4800689D490968491C9B4A116034
:101830001E90FEF734FE1F90994801681F98FEF72E
:1018400095FE5FD2002095490860012095490968FE
:10185000CDE90010944803689448026894480168F0
:101860008248FFF707FA01208E490968CDE9001088
:101870008D4803688D4802688D4801687E48FFF7EF
:10188000F9F901208B490968CDE900108A480368FD
:101890008A4802688A4801688A4801E02EE113E01C
:1018A000FFF7E8F9012088490968CDE90010874869
:1018B000036887480268874801688748FFF7DAF9B4
:1018C00004206F4908701DE0844801687148006871
:1018D000FEF74CFE16D28248006881490968491C0F
:1018E0007F4A11601E90FEF7DAFD1F906C48016878
:1018F0001F98FEF73BFE05D20020794908600320BF
:101900005F490870774800680A2190FBF1F201FBFB
:101910001200B8B95B4802685B4801686948FFF784
:101920001FF9714908605A480068FEF7B8FD024681
:101930001F90584801686848FFF712F980F000408E
:101940006A4908606848016868480068FEF750FC0A
:10195000674908606448016864480068FEF7F6FB60
:10196000644908606448016861480068FEF7EEFB5E
:101970001F903B4801681F98FEF7EEFD08D25E48B5
:10198000016837480068FEF733FC3549086019E004
:101990005948016856480068FEF72AFC1F903048F5
:1019A00001681F98FEF7E2FD08D2534801682C48F1
:1019B0000068FEF7CBFB2A49086003E04C4800684A
:1019C000274908604C4801684A480068FEF7BEFB9A
:1019D0001F90244801681F98FEF7BEFD08D24648B4
:1019E000016820480068FEF703FC1E49086019E002
:1019F000414801683F480068FEF7FAFB1F9019480C
:101A000001681F98FEF7B2FD08D23B4801681548EF
:101A10000068FEF79BFB1349086003E03548006847
:101A2000104908600E4802680F4801680F48FFF728
:101A3000D7F80F4908600B4802680E4801680E4845
:101A4000FFF7CEF80D4908600846016808480068AD
:101A500001F01AF8E7E00000240200202002002034
:101A6000A0010020A4010020A8010020C80C002033
:101A7000B0010020AC010020E40C0020B4010020E3
:101A800068010020C8010020D0010020840100204E
:101A9000E801002014020020880100206C010020D1
:101AA0007C010020B80100209C010020980100204A
:101AB00094010020D8010020C4010020C0010020B2
:101AC000BC010020000D00201C020020E4010020C9
:101AD000E0010020DC0100201C0D0020800100201E
:101AE0007001002058010020D401002018020020BD
:101AF000280200202C0200203002002079480078C3
:101B000003287CD17848016878480068FEF724FDF6
:101B100017D27748006876490968491C744A1160F1
:101B20001E90FEF7BCFC1F90724801681F98FEF7DC
:101B30001DFD55D200206E490860022069490870D9
:101B40004EE06D4800686C490968491C6A4A11609A
:101B50001E90FEF7A4FC1F90684801681F98FEF7CE
:101B600005FD3DD2002064490860012064490968F0
:101B7000CDE9001063480368634802686348016860
:101B80006348FFF777F801205D490968CDE9001047
:101B90005C4803685C4802685C4801685D48FFF780
:101BA00069F801205C490968CDE900105B480368C9
:101BB0005B4802685B4801685B48FFF75BF80120FF
:101BC0005A490968CDE90010594803685948026824
:101BD000594801685948FFF74DF8042041490870F9
:101BE00057480268574801684948FEF7F9FF5649C7
:101BF00008605648026856480168464800E00AE016
:101C0000FEF7EEFF53490860084601684E48006839
:101C100000F03AFF07E033480078042803D10021A0
:101C2000084600F0D3FF20A921A800F0C3FF4A48CE
:101C300000680A2190FBF1F201FB1200F0BBFEF7F5
:101C4000A9FD1F9027480078FEF732FC1E90002067
:101C50001A901B901C901D90169017901890199038
:101C600012901390149015900E900F901090119068
:101C7000DDE92032CDE90B300A920D901B48026855
:101C800036480168334B1F981B68CDE90630CDE913
:101C900008122D4802682D491E980968284B1B68B8
:101CA000CDE90231CDE904022948006825490968D7
:101CB00000231A46CDE90010194600E002E0032097
:101CC00001F072FA244800680A2190FBF1F201FB4E
:101CD000120020B90348017821A000F033FC25B0A0
:101CE00000BD0000680100208001002014020020D7
:101CF000700100207C0100206C0100208C0100207C
:101D0000B80100209C0100209801002094010020CF
:101D1000C80C0020E40C0020D8010020C4010020E1
:101D2000C0010020BC010020000D00201C0200208A
:101D3000E4010020E0010020DC0100201C0D002057
:101D4000A0010020A8010020B0010020A401002073
:101D5000AC010020B401002058010020D001002077
:101D60007374617465203D2025640D0A0000000035
:101D700021B1028842F08002028004E002884FF61E
:101D80007F731A4002807047CA430282704721B1B4
:101D9000028842F00102028004E002884FF6FE73DE
:101DA0001A400280704731B1B0F8442042F400423A
:101DB000A0F8442005E0B0F84420C2F30E02A0F8D9
:101DC00044207047F0B50C4615461E4600210022FF
:101DD00000230189028B038C4FF6F87739402143A9
:101DE0004FF6FC473A4040F201173A434FF6DD7791
:101DF0003B404FF6FF7707EA06172F433B4301812D
:101E000002830384F0BD0146888C704770B5054697
:101E10000C46244885420ED0234885420BD0B5F1AC
:101E2000804F08D02148854205D02148854202D004
:101E30002048854200D100E000BF208850B92389A6
:101E4000A28861882846FFF77BF8E188284600F0E1
:101E50008FF925E0208804280AD12389A288618887
:101E60002846FFF7ADF8E188284600F08AF917E028
:101E7000208808280AD12389A28861882846FFF78C
:101E8000EBF8E188284600F089F909E02389A28867
:101E900061882846FFF728F9E188284600F087F98D
:101EA00070BD0000002C01400034014000040040DF
:101EB00000080040000C0040002101804180012109
:101EC00081800021C180018170471AB183890B4351
:101ED000838102E083898B438381704770B500243E
:101EE00000220023058C4FF6FE7635400584028CD7
:101EF0008388048B4FF68F752C40B51E2C400D88BF
:101F00002C43751E2A400D892A434D882A43144DBF
:101F1000A8420BD0134DA84208D0134DA84205D0BB
:101F2000124DA84202D0124DA84213D14FF6F775B8
:101F30002A404D892A434FF6FB752A408D882A4353
:101F40004FF6FF652B404FF6FF552B408D892B43F5
:101F5000CD892B4383800483CD888586028470BD20
:101F6000002C014000340140004001400044014089
:101F7000004801400A460021018B4FF6F7731940D3
:101F8000114301837047000070B500240022002334
:101F9000058C4FF6EF7635400584028C8388048BE0
:101FA00048F6FF752C404FF6FF452C400D884FF644
:101FB000FF7606EA05252C434FF6DF752A400D898A
:101FC00006EA05152A434D8806EA05152A43154DEC
:101FD000A84202D0144DA8421DD14FF67F752A4069
:101FE0004D894FF6FF7606EA05152A434FF6BF7571
:101FF0002A408D8806EA05152A434FF6FF352B4007
:102000004FF2FF752B408D8906EA85052B43CD895C
:1020100006EA85052B4383800483CD8805870284E7
:1020200070BD0000002C01400034014070B5002458
:1020300000220023058C4FF6FF6635400584028C94
:102040008388848B4FF68F752C404FF6FC752C409F
:102050000D882C434FF6FF552A400D894FF6FF7629
:1020600006EA05252A434D8806EA05252A43154D2B
:10207000A84202D0144DA8421DD14FF2FF752A404C
:102080004D894FF6FF7606EA05252A434FF6FF35C0
:102090002A408D8806EA05252A434EF6FF752B4017
:1020A0004DF6FF752B408D8906EA05152B43CD892A
:1020B00006EA05152B4383808483CD8885870284B7
:1020C00070BD0000002C01400034014070B50022BA
:1020D00000230024058C4EF6FF7635400584038CE2
:1020E0008488828B48F6FF752A404FF6FF452A40C8
:1020F0000D884FF6FF7606EA05252A434DF6FF7553
:102100002B400D8906EA05352B434D8806EA053537
:102110002B430B4DA84202D00A4DA84208D14BF6E2
:10212000FF752C408D894FF6FF7606EA85152C4306
:1021300084808283CD88A0F84050038470BD000065
:10214000002C0140003401400A460021818B4FF2EF
:10215000FF7319404FF6FF7303EA0223194381838B
:10216000704781867047A0F840107047818470479F
:10217000028B4FF6F3731A400283028B0A430283E9
:102180007047028B4FF2FF331A400283028B4FF6E7
:10219000FF7303EA01231A4302837047828B4FF6D1
:1021A000F3731A408283828B0A4382837047828B47
:1021B0004FF2FF331A408283828B4FF6FF7303EA9C
:1021C00001231A4382837047002202881D4B9842E4
:1021D0000ED01D4B98420BD0B0F1804F08D01B4B56
:1021E000984205D01A4B984202D01A4B984204D11B
:1021F0004FF68F731A404B881A43174B984207D0FB
:10220000164B984204D04FF6FF431A40CB881A432E
:1022100002808B8883850B8803850A4B98420BD0FC
:10222000094B984208D00E4B984205D00D4B98426E
:1022300002D00D4B984201D10B7A03860123838291
:1022400070470000002C01400034014000040040B1
:1022500000080040000C0040001000400014004046
:102260000040014000440140004801404FF6FF712A
:10227000818000210180C18041800172704710B5CA
:10228000012000F001F910BD10B5022000F0FCF8AB
:1022900010BD10B5032000F0F7F810BD10B50022F6
:1022A000002340F66A14A14200D100BF0A120124A3
:1022B0009440A3B2DC43048010BD21B1828942F472
:1022C0000052828104E082894DF6FF731A408281B8
:1022D00070471AB1838A0B43838202E0838A8B435F
:1022E0008382704702460020B1F5007F00D100BF15
:1022F00013880B400BB1012000E00020704770B53F
:102300000246002400230025002040F66A16B14250
:1023100000D100BFC1F3421501F01F03012606FAE8
:1023200003F3012D02D19689334006E0022D02D13C
:10233000168A334001E0968A33400C12012606FAD1
:1023400004F41688344013B10CB1012000E00020E1
:1023500070BDF0B50346002400260025002040F69D
:102360006A17B94200D100BF1846C1F3421401F008
:102370001F06012707FA06F5012C01D10C3004E0F5
:10238000022C01D1103000E014301AB107682F433D
:10239000076002E00768AF430760F0BD2DE9F04732
:1023A00086B005460E460024A24600BFA14600277F
:1023B000B08900B100BF2F462C8A4CF6FF70044054
:1023C000F08804432C82AC894EF6F3100440B088A8
:1023D00031890843718908430443AC81AC8A4FF6C4
:1023E000FF400440B0890443AC8201A8FEF782FCA0
:1023F0001F48874202D1DDF810A001E0DDF80CA0F3
:10240000A88900F4004040B10AEBCA0000EB0A10B2
:1024100031684900B0FBF1F807E00AEBCA0000EBB5
:102420000A1031688900B0FBF1F86420B8FBF0F0C5
:1024300004012009642101FB1089A88900F40040EF
:1024400040B1322000EBC900B0FBF1F000F0070012
:10245000044308E0322000EB09106421B0FBF1F0E6
:1024600000F00F0004432C8106B0BDE8F0870000A7
:102470000038014001468888C0F308007047C1F366
:10248000080282807047000070B5044600260025CF
:10249000641E254951F8240040F22441FFF72FFF24
:1024A000002840D0204951F82400FFF7E3FF1F49DE
:1024B00051F824000021FEF7A3F91C4951F824002B
:1024C000FEF7AAF9C0F1C800C6B2194850F82400B6
:1024D000066000BF0DE004EBC40000EB04101549DA
:1024E00001EBC000405D144951F824104855681CA8
:1024F00085B2B54204DA114850F82400A842EAD85F
:10250000094951F8240040F22441FFF7C7FE07496A
:1025100051F82400C821FEF7A1F9044951F824001C
:102520000121FEF76DF970BD20000020DC000020C5
:10253000B006002064020020880600209C060020CF
:1025400000BFFEE70FB4054B10B503A9044A02987B
:1025500000F018F810BC5DF814FB00000528000816
:102560004C02002002E008C8121F08C1002AFAD15C
:1025700070477047002001E001C1121F002AFBD103
:10258000704700002DE9FF4F89B09B4604460025A7
:1025900006E025280BD05A460B999047641C6D1C09
:1025A00020780028F5D10DB02846BDE8F08F00272F
:1025B000B8460122474900E0074314F8013F203B99
:1025C00002FA03F00842F7D120782E2819D114F826
:1025D000010F47F004072A280ED06FF02F02207851
:1025E000A0F1300109290CD808EB880102EB410168
:1025F00000EB0108641CF2E70A98641C50F8048B95
:102600000A9020780028CED0642808D0692806D007
:1026100075281ED05A460B9990476D1C58E00A99B0
:102620004FF00A0901C90A91002802DA40422D211F
:1026300002E0390504D52B218DF82010012103E09B
:10264000F90704D02021F7E78A4608AE0DE0002103
:10265000FAE70A994FF00A0901C90A91F7E74946D2
:10266000FDF78EFF303106F8011D0028F7D1ADEBE4
:10267000060000F12009780701D44FF00108C84591
:1026800002DDA8EB090000E000208046002706E0FC
:1026900008A85A46C05D0B9990476D1C7F1C574592
:1026A000F6DB04E030205A460B9990476D1CB8F1D8
:1026B0000001A8F10108F5DC05E016F8010B5A4607
:1026C0000B9990476D1CB9F10001A9F10109F4DCE7
:1026D000641C65E70928010010B56FF00400FEF7DF
:1026E000E9FB0A4800680A49B0FBF1F009490870A3
:1026F0000846007800EB4001C1EBC0104FF6FF71B7
:1027000001EAC0000449088010BD00003802002022
:1027100000127A00140000201600002010B58CB0C2
:102720000446194951F824000121FEF7B3FA04EBDD
:10273000C40000EB0410154901EBC00002901448DE
:1027400050F82400001D019000200390C820049040
:1027500000200890802006900020079005900990A6
:102760004FF400500A9000200B900A4951F82400C1
:1027700001A9FEF755F8074951F824000121FEF799
:102780003FF80CB010BD0000B4000020640200202F
:1027900020000020DC00002010B58CB00446154954
:1027A00051F824000121FEF775FA134850F824006F
:1027B0000290124850F82400001D01901020039050
:1027C000002004900890802006900020079005903B
:1027D00009900A900B900A4951F8240001A9FEF7CC
:1027E0001FF8074951F824000121FEF709F80CB041
:1027F00010BD0000B4000020600600202000002072
:10280000C800002070B504460D46E1B20548FFF748
:1028100036FE00BF40210348FFF764FD0028F9D0D1
:10282000204670BD0044004038B50446164951F8B2
:1028300024000121FEF7FCF8144951F8240001217D
:10284000FEF748FA124830F8240080B2ADF80000D4
:1028500018208DF8030003208DF802000D4951F86F
:1028600024006946FEF758F80B4830F8240080B27F
:10287000ADF8000004208DF80300064951F824004B
:102880006946FEF749F838BD50020020700000206C
:10289000840000205C0000209800002038B5044629
:1028A0000F4951F824000121FEF714FA6846FEF79B
:1028B00007F90C4830F824000B4931F8241008437C
:1028C00080B2ADF8000004208DF8030003208DF8DD
:1028D0000200064951F824006946FEF71DF838BD8C
:1028E00020010020300100204001002010010020C4
:1028F00070B50446641E074850F82400808C00B26E
:102900004542044951F824004FF6FF71FFF72EFCB1
:10291000284670BDF000002010B50446641E204615
:10292000FFF7BCFF204600F06BFA034951F8240082
:102930000121FFF72CFA10BDF00000201CB54FF468
:10294000A060FEF703F901210846FEF7C3F9012153
:102950001F48FEF76DF8FFF7BFFE4FF4E13103208B
:1029600000F0EEFC4FF4E131022000F0C7FD012041
:10297000FFF7D2FF0220FFF7CFFF012000210B4617
:102980000A46CDE900101348FEF774F90120002132
:102990000B460A46CDE900100F48FEF76BF90120FF
:1029A00000210B460A46CDE900100C48FEF762F9FB
:1029B000012000210B460A46CDE900100848FEF729
:1029C00059F900F047F80A2000F00CF800BFFEE7C4
:1029D00000023000C80C0020E40C0020000D002094
:1029E0001C0D002010B50446204600F0E3F901223A
:1029F00011460548FFF769FA00F008F8012102487E
:102A0000FFF7C5F910BD00000008004008B51E2002
:102A10008DF8000001208DF8030002208DF80100E0
:102A20008DF802006846FEF759F808BD38B504462F
:102A30000748005D8DF8000001208DF801008DF839
:102A400002008DF803006846FEF748F838BD000024
:102A5000AC00002008B501210820FEF73BF910204A
:102A60008DF803004FF47040ADF8000003208DF89E
:102A7000020069460348FDF74FFF0A2000F032F9D3
:102A800008BD0000000C014070B504460D464248E8
:102A900001682046FDF75AFB3F49086029463F4838
:102AA0000068FDF753FB3D4908603D493A4800681E
:102AB000FDF75CFD03D23A483749086008E0394920
:102AC00035480068FDF748FD02D2364832490860B3
:102AD000334932480068FDF749FD03D230482F4999
:102AE000086008E02F492D480068FDF735FD02D247
:102AF0002C482A490860002127480068FDF72CFD72
:102B000010D200202849086001202849C1F8B801E6
:102B100021480068FDF7EFFC86B231462448FFF7F4
:102B200020FB0FE001202049086000201F49C1F868
:102B3000B80119480068FDF7DEFC86B231461C4832
:102B4000FFF70FFB002115480068FDF705FD11D2C6
:102B5000002015490C39086001201449C1F8B4015E
:102B60000E480068FDF7C7FC86B231461048FFF7F3
:102B7000FAFA10E001200C490C39086000200B49DA
:102B8000C1F8B40105480068FDF7B5FC86B23146CE
:102B90000748FFF7E8FA70BD5001002054010020FB
:102BA00000C0DA4500C0DAC5BC8121420080214264
:102BB000002C0140034A12680260034A12680A604E
:102BC00070470000500100205401002070B50446F9
:102BD0000D463D4804603D4805603D493A4800685F
:102BE000FDF7C4FC03D23A483749086008E0394988
:102BF00035480068FDF7B0FC02D23648324908601B
:102C0000334932480068FDF7B1FC03D230482F4900
:102C1000086008E02F492D480068FDF79DFC02D2AE
:102C20002C482A490860002127480068FDF794FCD9
:102C300010D200202849086001202849C1F8B801B5
:102C400021480068FDF757FC86B231462448FFF75B
:102C500088FA0FE001202049086000201F49C1F8D0
:102C6000B80119480068FDF746FC86B231461C4899
:102C7000FFF777FA002115480068FDF76DFC11D2C7
:102C8000002015490C39086001201449C1F8B4012D
:102C90000E480068FDF72FFC86B231461048FFF75A
:102CA00062FA10E001200C490C39086000200B4941
:102CB000C1F8B40105480068FDF71DFC86B2314635
:102CC0000748FFF750FA70BD500100205401002062
:102CD00000C0DA4500C0DAC5BC8121420080214233
:102CE000002C014010B588B00446012140F60400D4
:102CF000FDF7F0FF18208DF803004FF41060ADF8D9
:102D0000000003208DF8020069462848FDF704FE04
:102D100041F61F40ADF8180004EB84004000401E4F
:102D200080B2ADF814000020ADF81600ADF81A001E
:102D300005A91F48FFF748FA6020ADF804000020FD
:102D4000ADF80C00ADF80E000120ADF80600002033
:102D5000ADF80800ADF80A00ADF81000ADF81200AB
:102D600001A91348FFF7BAF801A91148FFF70CF9B8
:102D700001A90F48FFF75AF901A90D48FFF7A6F975
:102D800008210B48FFF7F6F808210948FFF7DCF99E
:102D900001210748FFF707F801210548FEF7E8FF82
:102DA00001210348FEF7F3FF08B010BD0008014001
:102DB000002C01403EB5044601210420FDF77AFFB6
:102DC00040F2CF20ADF80000642104FB01F0401E6A
:102DD00080B2ADF804000020ADF80200ADF80600A6
:102DE00069460548FFF7F0F9642104FB01F0401E35
:102DF000024908803EBD0000000800401800002085
:102E000010B586B00446032C04D101214803FDF718
:102E100061FF05E0184951F824000121FDF74AFF40
:102E200003A8FFF723FA0020ADF80C004FF6FF705F
:102E3000ADF810000020ADF81200ADF80E000F49FB
:102E400051F8240003A9FFF7BFF90C4951F82400F9
:102E500000231A460321FEF7B5FF6846FFF72CF85A
:102E60000020ADF80800054951F824006946FEF736
:102E7000CDFF06B010BD000000010020F0000020D2
:102E80002DE9F04F044609AD95E8E010DDE90E9A12
:102E9000DDF83480601EDFF808B35BF820007E2880
:102EA0007ED131B1601EDFF8FCB20BEBC010407870
:102EB000087032B1601EDFF8ECB20BEBC010807806
:102EC000107033B1601EDFF8DCB20BEBC010C078BD
:102ED000187035B1601EDFF8CCB20BEBC010406843
:102EE000286036B1601EDFF8BCB20BEBC010806802
:102EF000306037B1601EDFF8ACB20BEBC010C068B9
:102F00003860BCF1000F07D0601EDFF898B20BEB01
:102F1000C0100069CCF80000B8F1000F07D0601EA7
:102F2000DFF880B20BEBC0104069C8F80000B9F1BF
:102F3000000F07D0601EDFF86CB20BEBC010806989
:102F4000C9F80000BAF1000F07D0601EDFF854B2D4
:102F50000BEBC010C069CAF80000109848B1601EA1
:102F6000DFF840B20BEBC010D0F820B01098C0F8DA
:102F700000B0119848B1601EDFF828B20BEBC0100A
:102F8000D0F824B01198C0F800B0129858B1601E63
:102F9000DFF810B20BEBC010D0F828B0129800E0A8
:102FA000FBE0C0F800B0139848B1601EDFF8F4B140
:102FB0000BEBC010D0F82CB01398C0F800B01498E8
:102FC00048B1601EDFF8DCB10BEBC010D0F830B0B8
:102FD0001498C0F800B0159848B1601EDFF8C4B16D
:102FE0000BEBC010D0F834B01598C0F800B01698AC
:102FF00048B1601EDFF8ACB10BEBC010D0F838B0B0
:103000001698C0F800B0179848B1601EDFF894B168
:103010000BEBC010D0F83CB01798C0F800B018986F
:1030200048B1601EDFF87CB10BEBC010D0F840B0A7
:103030001898C0F800B0199848B1601EDFF864B164
:103040000BEBC010D0F844B01998C0F800B01A9833
:1030500048B1601EDFF84CB10BEBC010D0F848B09F
:103060001A98C0F800B01B9848B1601EDFF834B160
:103070000BEBC010D0F84CB01B98C0F800B01C98F7
:1030800048B1601EDFF81CB10BEBC010D0F850B097
:103090001C98C0F800B01D9848B1601EDFF804B15C
:1030A0000BEBC010D0F854B01D98C0F800B01E98BB
:1030B00048B1601EDFF8ECB00BEBC010D0F858B090
:1030C0001E98C0F800B01F9848B1601EDFF8D4B059
:1030D0000BEBC010D0F85CB01F98C0F800B020987F
:1030E00048B1601EDFF8BCB00BEBC010D0F860B088
:1030F0002098C0F800B0219848B1601EDFF8A4B055
:103100000BEBC010D0F864B02198C0F800B0229842
:1031100048B1601EDFF88CB00BEBC010D0F868B07F
:103120002298C0F800B0239848B1601EDFF874B050
:103130000BEBC010D0F86CB02398C0F800B0249806
:1031400048B1601EDFF85CB00BEBC010D0F870B077
:103150002498C0F800B0259848B1601EDFF844B04C
:103160000BEBC010D0F874B02598C0F800B02698CA
:1031700048B1601EDFF82CB00BEBC010D0F878B06F
:103180002698C0F800B04FF0000B601EDFF810E08A
:103190004EF820B00120BDE8F08F0020FBE70000D2
:1031A000C40A0020C40800202DE9F84F04460E464A
:1031B00017469846DDE90AAB601E604901EBC01076
:1031C000451C4FF000097B200090601E01EBC010F1
:1031D0004670601E01EBC0108770601E01EBC010CE
:1031E00080F80380601E01EBC010C0F804A0601ED0
:1031F00001EBC010C0F808B0611E504A02EBC111CB
:103200000C98C860611E02EBC1110D980861611E27
:1032100002EBC1110E984861611E02EBC1110F98BB
:103220008861611E02EBC1111098C861611E02EB3A
:10323000C11111980862611E02EBC1111298486217
:10324000611E02EBC11113988862611E02EBC1116D
:103250001498C862611E02EBC11115980863611EC3
:1032600002EBC11116984863611E02EBC111179859
:103270008863611E02EBC1111898C863611E02EBDE
:10328000C11119980864611E02EBC1111A984864B3
:10329000611E02EBC1111B988864611E02EBC11113
:1032A0001C98C864611E02EBC1111D980865611E5F
:1032B00002EBC1111E984865611E02EBC1111F98F7
:1032C0008865611E02EBC1112098C865611E02EB82
:1032D000C11121980866611E02EBC111229848664F
:1032E000611E02EBC11123988866611E02EBC111B9
:1032F0002498C866611E02EBC11125980867611EFB
:1033000002EBC11126984867611E02EBC111279894
:10331000886705E015F8011B01EB090000F0FF09C3
:103320000098411E89B200910028F3D185F80090E1
:10333000204600F069F9BDE8F88F0000C4060020BF
:103340003EB504460D46601E104901EB80007E220A
:10335000611E0F4B03EBC111CDE900120290601EFC
:103360000C4901EBC0127E232946204600F0EEF8FE
:10337000A521601E074A02EBC01001705A21601E91
:1033800002EBC01080F87D103EBD0000C40A002092
:10339000C4080020C40600202DE9F04F8DB004467B
:1033A0000F4690469946DDE916AB282103A8FCF7A5
:1033B000C2FE002600250020029001200190601E20
:1033C0004C4951F8200000287ED000BF4AE0601E22
:1033D00000EBC00101EB0010474901EB4000405DEC
:1033E000392823DC601E00EBC00101EB00104249CC
:1033F00001EB4000405D302818DB03A850F82600A0
:1034000000EB80004200601E00EBC00101EB0010E9
:10341000394901EB4000405D3038019900FB012043
:1034200003A941F82600012002901AE0601E00EB7B
:10343000C00101EB0010304901EB4000405D2D2838
:1034400003D14FF0FF3001900BE001200190029872
:10345000012803D1701CC6B2002002900A2E00D1B0
:1034600006E06D1C601E234951F82000A842AEDC26
:1034700000BF0FB103983860B8F1000F02D0049874
:10348000C8F80000B9F1000F02D00598C9F8000093
:10349000BAF1000F02D00698CAF80000BBF1000F85
:1034A00002D00798CBF80000189810B10899189826
:1034B0000160199810B10999199801601A9810B112
:1034C0000A991A98016000E012E01B9810B10B995C
:1034D0001B9801601C9810B10C991C980160002188
:1034E000601E044A42F8201001200DB0BDE8F08FA4
:1034F0000020FAE77C0C0020B40B00203EB5044607
:103500000D46601E0E4901EB80003222611E01EB68
:10351000C10303EB01110B4B03EB4101CDE9001299
:103520000290601E00EB800101EBC000064901EB38
:10353000800234232946204600F008F83EBD0000F2
:103540007C0C0020B40B0020D40A00202DE9F047A9
:1035500004460D4616461F46DDE9099ADDF820802F
:10356000641E204840F824501F4840F824601F483B
:1035700040F824801E4840F824701E4840F82490EB
:103580001D4840F824A02046FFF750FA1B4850F889
:10359000240010B12046FFF7FFF8194850F8240026
:1035A00010B12046FFF7BAF8204600F053F8204645
:1035B000FFF73AF9134951F82400012240F224415F
:1035C000FEF7C7FE0F4951F824000122C021FEF783
:1035D00080FE0C4951F824000121FEF76EFEBDE883
:1035E000F08700004C0600206006002088060020BE
:1035F000740600209C060020B0060020C8000020B1
:10360000DC0000202000002010B50446641E0F4995
:1036100051F82400FDF700F908B100BFFEE70B499F
:1036200051F824000021FDF7EBF8094A32F8242074
:1036300091B2064A52F82400FDF710F9034951F8F7
:1036400024000121FDF7DCF810BD0000C8000020B7
:10365000740600201FB50446114951F824000121C9
:10366000FDF738FB0F4951F824000121FDF722FB3B
:103670000D4850F8240000900C20ADF80A000020FE
:10368000ADF80400ADF80800ADF80600ADF80C0088
:10369000064951F824006946FEF780FE1FBD000070
:1036A00048000020340000204C06002020000020AC
:1036B000D036000800000020500200003807000843
:1036C0007037000850020020100F00007425000819
:1036D000412D0102030404D009060708090204066B
:1036E0000814380140124412401A4804D13202A290
:1036F00004D91E511A083C29041A0C0471293229D4
:1037000004B965194B394A994F290C392499295420
:103710002526279A01048112441C024080041A1CA9
:1037200004811A580C1A6C049A301439AA1A040429
:103730001A0C042C3401404429CA39679A20B42950
:10374000046C100140B029045A1074294D690829ED
:103750003C9A800801182A022171A9B80190022818
:10376000147CA24A04D0400802030406070809009A
:04000005080000ED02
:00000001FF
