:020000040800F2
:10000000B810002005010008010A0008F9090008DD
:10001000FD090008B7060008F91A000800000000F2
:10002000000000000000000000000000F10C0008CB
:100030008907000800000000B90B0008050E000841
:100040001F0100081F0100081F0100081F01000810
:100050001F0100081F0100088D070008BD070008E8
:10006000D5070008ED070008050800081F01000873
:100070001F0100081F0100081F0100081F010008E0
:100080001F0100081F0100081F0100081F010008D0
:100090001F0100081F0100081F0100081D080008BB
:1000A0001F0100081F0100081F0100081F010008B0
:1000B0001F0100081F010008A91000081F01000807
:1000C0001F0100081F0100081F0100081F01000890
:1000D0001F01000857180008611800086B18000875
:1000E000A50700081F0100081F010008DFF810D055
:1000F00000F094FA004800475D1D0008AFF300804F
:10010000B81000200648804706480047FEE7FEE793
:10011000FEE7FEE7FEE7FEE7FEE7FEE7FEE7FEE7B7
:10012000090E0008ED000008F0B480EA0102D40FC7
:100130004200B2EB410F02D20246084611464A0085
:1001400042D0C30DDDB2C1F3C752AD1A202D35DA4E
:10015000C1F3160141F4000204B15242C5F1200678
:1001600002FA06F12A411044B3EBD05F23D0C4B1A8
:10017000012DA0EBC35009DCF0BC4FF0004202EAB5
:10018000C352DBB200F5000000F0BCB9400000F142
:10019000807000EBC350A0F1807040EAD17049003C
:1001A00009E0490841EAC071A0EBC35000F5000026
:1001B000400800EBC350F0BC00F09BB96142012243
:1001C00002EB4101001BF6E7F0BC704781F00041F3
:1001D000AAE780F00040A7E780EA010210B502F02C
:1001E0000043400022D04A001FD0010E01EB1261F3
:1001F000C0F35600C2F3560240F4000042F400027D
:10020000A0FB022000047F39140400D0401C50EAF7
:10021000124001D44000491EC2B20C0604EBD010BB
:10022000401C4008802A02D003E0002010BD20F0CE
:100230000100002900DA0020184310BD2DE9FE4F0F
:1002400081EA030404F0004421F0004100944FF0DF
:10025000000B23F0004350EA01045ED052EA03048D
:100260005BD0C3F30A54C1F30A552C44A4F2F3340F
:100270000194A0FB0254C1F3130141F48011C3F3B4
:10028000130343F4801301FB024400FB034E840A72
:10029000970A44EA815447EA8357A4FB076802950A
:1002A0008D0A05FB07854FEA932C04FB0C542705A8
:1002B000029D4FEA065847EA1637B5EB08056EEB84
:1002C000070C870E920E47EA811742EA8312A7FBBA
:1002D0000201B6EB0B0164EB00042B0D43EA0C3377
:1002E0005E1844EB1C50DA465146E7FB0201C5F3A9
:1002F00013044FEA0B3343EA14534FEA0432019CD0
:1003000043EA0603A4F10C040294009CCDE900B476
:1003100000F035F903B0BDE8F08F00200146F9E7A1
:100320002DE9F04D81EA030404F0004B21F0004573
:1003300014464FF0000A23F0004150EA050220D095
:1003400054EA01021DD0C5F30A570246C5F3130350
:10035000C1F31300C1F30A5640F4801543F480132F
:10036000A7EB0608101BD64608F2FD3873EB050014
:1003700002D308F1010801E092185B41B8F1000FC7
:1003800003DA00200146BDE8F08D00204FF4801113
:10039000064684460EE0171B73EB050705D3121BB8
:1003A00063EB050306434CEA010C49084FEA3000B1
:1003B00092185B4150EA0107EDD152EA030012D0D6
:1003C00082EA040083EA0501084305D0101BAB4113
:1003D00006D20122002306E000224FF0004302E093
:1003E0006FF0010253101AEB06004CEB085110EBB2
:1003F0000A0041EB0B01BDE8F04D00F0B1B8C10FB0
:1004000080EAE0700844CA079623002100F07AB819
:100410000EB5C10F80EAE0700844CA07002140F21F
:1004200033438DE80E000A460B4600F0A8F803B0EF
:1004300000BD0EB540F2334102910021CDE900111B
:100440000A460B4600F09BF803B000BD20F00040C8
:10045000C10DC0F3160040F400007F2901DA00202E
:100460007047962903DCC1F19601C8407047963960
:100470008840704701F0004330B421F0004150EA59
:10048000010206D00A0DA2F56072C1F31301002A21
:1004900002DC30BC00207047440F44EAC104C100B4
:1004A000E01830BC00EBC25000F023B8002801DB9C
:1004B000C0F10040002901DBC1F1004181427047D9
:1004C000002801DBC0F10040002901DBC1F100413F
:1004D00088427047202A04DB203A00FA02F100200B
:1004E00070479140C2F1200320FA03F31943904072
:1004F00070470029A8BF7047401C490008BF20F082
:100500000100704710B4B0FA80FC00FA0CF050EA19
:10051000010404BF10BC704749B1CCF1200421FA9A
:1005200004F411FA0CF118BF012121430843A3EB95
:100530000C01CB1D4FEA00614FEA102042BF0020A2
:1005400010BC704700EBC35010440029A4BF10BC7E
:100550007047401C490008BF20F0010010BC7047E4
:1005600010B5141E73F1000408DA401C41F10001BB
:1005700092185B411A4301D120F0010010BD2DE912
:10058000F04D92469B4611B1B1FA81F202E0B0FA09
:1005900080F220329046FFF79DFF04460F4640EA66
:1005A0000A0041EA0B0153465A46084313D011464C
:1005B00053EA010019D0C8F14002504600F040F85B
:1005C00005460E46504659464246FFF783FF08430C
:1005D00005D0012004E020463946BDE8F08D00201A
:1005E000054346EAE0762C4337430A986305E40A5C
:1005F000A0EB08000022FD0A44EA47540A3002D565
:1006000000200146E9E7010510196941DDE90845C7
:1006100000196941BDE8F04DA2E70000064C074D06
:1006200006E0E06840F0010394E8070098471034C2
:10063000AC42F6D3FFF75EFDE4270008042800086B
:10064000202A04DB203A21FA02F00021704721FA27
:1006500002F3D040C2F1200291400843194670478E
:1006600070B58C1810F8015B15F0070301D110F874
:10067000013B2A1106D110F8012B03E010F8016BA1
:1006800001F8016B5B1EF9D12B0705D40023521E24
:100690000DD401F8013BFAE710F8013BCB1A921C8C
:1006A00003E013F8015B01F8015B521EF9D5A1428A
:1006B000D8D3002070BD00BFFEE700002DE9FC4745
:1006C0000F480088FFF7B5FE04460D460D4800F0C0
:1006D00086FE0D490988A0EB010A5046FFF798FEF7
:1006E00006460022094BFFF7A9FD804622462B460D
:1006F000FFF716FECDE90001FFF7BCFEBDE8FC8761
:1007000018000020000800401A0000200000594096
:1007100010B5034800F063FE0249088010BD0000D8
:10072000000800401A00002021B1026842F00102D6
:10073000026004E002684FF6FE731A4002607047E0
:100740000146486880B2704710B50022026847F63B
:10075000F0739A430C6A8B6823430C6923434C69FA
:1007600023438C692343CC6923434C6A23438C6A1B
:1007700023431A430260CB6843600B6883604B6875
:10078000C36010BD416070477047000010B503485A
:1007900000F050F802480068804710BDFFFF0F00CE
:1007A0001C00002010B5034800F044F8024800681F
:1007B000804710BDFFFF0F001C00002010B503484C
:1007C00000F038F802480068804710BDFFFF0F00B6
:1007D0001C00002010B5034800F02CF80248006807
:1007E000804710BDFFFF0F001C00002010B503481C
:1007F00000F020F802480068804710BDFFFF0F009E
:100800001C00002010B5034800F014F802480068EE
:10081000804710BDFFFF0F001C00002010B50348EB
:1008200000F008F802480068804710BDFFFF0F0085
:100830001C000020014908607047000014040140BA
:100840002DE9F04102460025002600200023002467
:10085000002791F803C00CF00F0591F803C00CF0CD
:10086000100CBCF1000F03D091F802C04CEA050552
:1008700091F800C0BCF1000F31D0146800202BE0CB
:100880004FF0010C0CFA00F3B1F800C00CEA0306BB
:100890009E4220D183004FF00F0C0CFA03F7BC43AB
:1008A00005FA03FC4CEA040491F803C0BCF1280FDC
:1008B00006D14FF0010C0CFA00FCC2F814C00AE09B
:1008C00091F803C0BCF1480F05D14FF0010C0CFAB0
:1008D00000FCC2F810C0401C0828D1D31460B1F845
:1008E00000C0BCF1FF0F34DD546800202EE000F1A1
:1008F000080C4FF0010808FA0CF3B1F800C00CEA3C
:1009000003069E4221D183004FF00F0C0CFA03F72F
:10091000BC4305FA03FC4CEA040491F803C0BCF1A3
:10092000280F05D100F1080C08FA0CF8C2F8148061
:1009300091F803C0BCF1480F07D100F1080C4FF04B
:10094000010808FA0CF8C2F81080401C0828CED321
:100950005460BDE8F0810000F0B50A460023002491
:100960000021002500F00046B6F1004F02D11D4ED7
:10097000F16901E01B4E7168C0F3034583B200F4D6
:100980004016B6F5401F08D121F07061154E76680B
:1009900026F07066134F7E6012E000F48016B6F504
:1009A000801F06D1032606FA05F4A14341F07061C9
:1009B00006E0460D360103FA06F6B14341F07061D8
:1009C00022B1460D360103FA06F6314300F0004627
:1009D000B6F1004F02D1034EF16101E0014E7160AA
:1009E000F0BD0000000001404FF6FF7101800221C0
:1009F00081700421C170704700BFFEE700BFFEE7B1
:100A00007047000070B5002100230F22C47804B3A2
:100A1000154C246804F4E064C4F5E064210AC1F1D3
:100A20000403CA40447804FA03F184781440214353
:100A300009010E4C0678A155047804F01F05012425
:100A4000AC4005786D11AD0005F1E025C5F8004119
:100A500009E0047804F01F050124AC40044D067839
:100A6000761145F8264070BD0CED00E000E400E092
:100A700080E100E002490143024A11607047000032
:100A80000000FA050CED00E02DE9F84F0446884619
:100A9000164641463046FFF799FB05462946A069B0
:100AA000FFF742FBA06128462169FFF78FFB8346D1
:100AB000A168FFF791FB8146A1696068FFF78CFB95
:100AC000834629462068FFF787FB59460090FFF7C9
:100AD0002BFB82464946FFF727FB07462561384630
:100AE000E168FFF7EDFC01D2E7680AE0E06880F01A
:100AF000004939464846FFF7E3FC02D2E06880F03F
:100B000000473846BDE8F88F2DE9FC5F044688466B
:100B1000164641463046FFF759FB05464FF08040E8
:100B20002169FFF759FB29460090FFF752FB8346E6
:100B30006169FFF7F9FA8246A168FFF74DFB81462C
:100B400029466068FFF748FB009028462169FFF7B7
:100B50003DFB83462168FFF73FFB82460099FFF784
:100B6000E3FA49460190FFF7DFFA07462069606122
:100B700025613846E168FFF7A3FC01D2E7680AE087
:100B8000E06880F0004939464846FFF799FC02D2F8
:100B9000E06880F000473846BDE8FC9F70B5DDE9AD
:100BA0000445016083604260C460012D03D10026CA
:100BB00006614661866170BD7047000029B1064A32
:100BC00052690243044B5A6104E0034A526982436A
:100BD000014B5A61704700000010024029B1064ADB
:100BE000D2690243044BDA6104E0034AD2698243CA
:100BF000014BDA61704700000010024029B1064A3B
:100C000092690243044B9A6104E0034A9269824369
:100C1000014B9A61704700000010024030B500217E
:100C20000022002400232D4D6D6805F00C0121B138
:100C3000042905D0082923D105E0294D056022E0CB
:100C4000274D05601FE0254D6D6805F47012234D9A
:100C50006D6805F48034022505EB92421CB9214DE4
:100C6000554305600BE01D4D6D6805F400351DB161
:100C70001C4D5543056002E0194D5543056002E0E7
:100C8000174D056000BF00BF144D6D6805F0F00101
:100C90000909154D6B5C0568DD4045600F4D6D68B9
:100CA00005F4E061090A104D6B5C4568DD40856024
:100CB0000A4D6D6805F46051C90A0B4D6B5C4568BF
:100CC000DD40C560054D6D6805F44041890B074D59
:100CD0006B5CC568B5FBF3F5056130BD00100240E3
:100CE00000127A0000093D000000002010000020E2
:100CF000704710B500F002F810BD00000CB50020E0
:100D0000019000903348006840F480303149086019
:100D100000BF3048006800F4003000900198401C8B
:100D20000190009818B90198B0F5A06FF1D1294849
:100D3000006800F4003010B10120009001E00020B4
:100D400000900098012843D12348006840F010002B
:100D5000214908600846006820F003000860084642
:100D6000006840F0020008601A484068194948606D
:100D70000846406848600846406840F48060486023
:100D80000846406820F47C1048600846406840F4FB
:100D9000E81048600846006840F08070086000BFB6
:100DA0000C48006800F000700028F9D0094840683D
:100DB00020F00300074948600846406840F0020000
:100DC000486000BF0348406800F00C000828F9D1D3
:100DD0000CBD00000010024000200240042808D191
:100DE0004FF0E021096941F004014FF0E022116168
:100DF00007E04FF0E021096921F004014FF0E02203
:100E0000116170477047000010B51348006840F04A
:100E100001001149086008464068104908400E4921
:100E20004860084600680E4908400B4908600846BB
:100E3000006820F4802008600846406820F4FE0026
:100E400048604FF41F008860FFF753FF4FF00060C9
:100E50000449086010BD0000001002400000FFF8C7
:100E6000FFFFF6FE08ED00E0F0B50C461546002247
:100E70000021068C4FF6FE773E400684028B018CE3
:100E80004FF60C7632407E1C06EA03162E433243A0
:100E9000104EB0420ED0104EB0420BD0B0F1804F89
:100EA00008D00E4EB04205D00D4EB04202D00D4ECD
:100EB000B04206D14FF6FD76314044F00106314391
:100EC00005E04FF6F576314044F0010631430283E8
:100ED0000184F0BD002C01400034014000040040BA
:100EE00000080040000C0040F0B50C4615460022FA
:100EF00000210026078C4FF6EF7C07EA0C070784D9
:100F0000028B018C4FF6FF7707EA041640F6FF4785
:100F10003A404FF6FF7707EA03373A434FF6FF7739
:100F200007EA05273A43114FB8420ED0104FB84296
:100F30000BD0B0F1804F08D00E4FB84205D00E4F05
:100F4000B84202D00D4FB84206D14FF6DF77394094
:100F500046F01007394305E04FF65F77394044F01B
:100F60001007394302830184F0BD0000002C0140CA
:100F7000003401400004004000080040000C004024
:100F8000F0B50C461546002200210026078C4FF6CE
:100F9000FF6C07EA0C070784828B018C4FF6FF7702
:100FA00007EA04264FF60C773A404FF6FF7707EA38
:100FB00003172F433A43114FB8420ED0104FB84297
:100FC0000BD0B0F1804F08D00E4FB84205D00E4F75
:100FD000B84202D00D4FB84206D14FF6FF57394004
:100FE00046F48077394305E04FF2FF57394044F427
:100FF0008077394382830184F0BD0000002C0140DA
:10100000003401400004004000080040000C004093
:10101000F0B50C461546002200210026078C4EF63E
:10102000FF7C07EA0C070784828B018C4FF6FF7761
:1010300007EA043640F6FF473A404FF6FF7707EAE3
:1010400005273A434FF6FF7707EA03373A43114F34
:10105000B8420ED0104FB8420BD0B0F1804F08D03C
:101060000E4FB84205D00E4FB84202D00D4FB842D5
:1010700006D14DF6FF77394046F48057394305E0F5
:1010800047F6FF57394044F480573943828301843F
:10109000F0BD0000002C014000340140000400407D
:1010A00000080040000C00402DE9F0479EB00025EC
:1010B00000260027A846A946FFF72AFB01218348FE
:1010C00000F04EF98248006840F2E731884201DBC7
:1010D000002002E07E480068401C7D490860002036
:1010E0001A901B901C901D901690179018901990B4
:1010F000129013901490774A774B1590CDE90F20FA
:101100000E93119075487649764A774BCDE90A32AD
:10111000CDE90C1000207549754A764BCDE90632B1
:10112000CDE9081074480021744A754BCDE90232AC
:10113000CDE904107348744900231A46CDE9001024
:101140001946032001F010F870486C49086000202F
:101150000968CDE900106A4803686A4802686A486D
:1011600001686B48FFF71AFD002064490968CDE962
:101170000010634803686348026863480168654873
:10118000FFF70CFD002059490968CDE900105848C7
:10119000036858480268584801685F48FFF7FEFC3A
:1011A00000204E490968CDE900104D4803684D48BC
:1011B00002684D4801685948FFF7F0FC012000F033
:1011C000A7FDC0F101042046FFF719F95449086052
:1011D000022000F09DFD441E2046FFF710F9514902
:1011E000086051480268514801684B48FFF74CFCC1
:1011F0004F490860384802684E4801684748FFF781
:1012000043FC4D490860334800684C490860314848
:101210000268434801683E48FFF776FC4849086089
:10122000464802683F4801683A48FFF76DFC454967
:101230000860084601684248006800F031FE244911
:101240000868C11700EB91718910A0EB810100299A
:1012500038D1FFF733FA04461D480068FFF7CFF88E
:10126000824600201A901B901C901D90169017909B
:101270001890199012901390149015900E900F9052
:10128000109011900A900B900C902E4A0D901268BD
:10129000CDE907400692099029480168274800686F
:1012A0000C4A1268CDE904A1CDE902201D4800686E
:1012B0001B49096800231A46CDE90010194603208E
:1012C00001F0E6F81EB0BDE8F0870000000800401D
:1012D0005801002068010020AC010020B801002066
:1012E000A8010020A4010020A00100209C010020F2
:1012F0008C01002088010020840100208001002052
:1013000064010020600100205C01002000C0DA457B
:10131000480C0020640C0020800C00209C0C002055
:101320007001002074010020900100209401002031
:1013300098010020B0010020B40100206C010020C1
:10134000780100207C01002021B1028842F0800257
:10135000028004E002884FF67F731A4002807047D3
:10136000CA430282704721B1028842F00102028022
:1013700004E002884FF6FE731A400280704731B1D4
:10138000B0F8442042F40042A0F8442005E0B0F850
:101390004420C2F30E02A0F844207047F0B50C467A
:1013A00015461E460021002200230189028B038C72
:1013B0004FF6F877394021434FF6FC473A4040F268
:1013C00001173A434FF6DD773B404FF6FF7707EAC8
:1013D00006172F433B43018102830384F0BD01467E
:1013E000888C704770B505460C46244885420ED05F
:1013F000234885420BD0B5F1804F08D02148854263
:1014000005D02148854202D02048854200D100E025
:1014100000BF208850B92389A28861882846FFF739
:1014200023FDE188284600F08FF925E02088042874
:101430000AD12389A28861882846FFF755FDE188F3
:10144000284600F08AF917E0208808280AD1238965
:10145000A28861882846FFF793FDE188284600F0BE
:1014600089F909E02389A28861882846FFF7D0FD21
:10147000E188284600F087F970BD0000002C01408B
:10148000003401400004004000080040000C00400F
:10149000002101804180012181800021C1800181E2
:1014A00070471AB183890B43838102E083898B43A0
:1014B0008381704770B5002400220023058C4FF60D
:1014C000FE7635400584028C8388048B4FF68F7539
:1014D0002C40B51E2C400D882C43751E2A400D89CA
:1014E0002A434D882A43144DA8420BD0134DA842DD
:1014F00008D0134DA84205D0124DA84202D0124D7B
:10150000A84213D14FF6F7752A404D892A434FF66A
:10151000FB752A408D882A434FF6FF652B404FF616
:10152000FF552B408D892B43CD892B43838004832A
:10153000CD888586028470BD002C014000340140B6
:101540000040014000440140004801400A4600219B
:10155000018B4FF6F7731940114301837047000068
:1015600070B5002400220023058C4FF6EF7635403D
:101570000584028C8388048B48F6FF752C404FF657
:10158000FF452C400D884FF6FF7606EA05252C43D3
:101590004FF6DF752A400D8906EA05152A434D8866
:1015A00006EA05152A43154DA84202D0144DA8425B
:1015B0001DD14FF67F752A404D894FF6FF7606EA1A
:1015C00005152A434FF6BF752A408D8806EA051592
:1015D0002A434FF6FF352B404FF2FF752B408D8984
:1015E00006EA85052B43CD8906EA85052B438380D2
:1015F0000483CD880587028470BD0000002C014063
:101600000034014070B5002400220023058C4FF601
:10161000FF6635400584028C8388848B4FF68F7576
:101620002C404FF6FC752C400D882C434FF6FF558F
:101630002A400D894FF6FF7606EA05252A434D8894
:1016400006EA05252A43154DA84202D0144DA842AA
:101650001DD14FF2FF752A404D894FF6FF7606EAFD
:1016600005252A434FF6FF352A408D8806EA0525D1
:101670002A434EF6FF752B404DF6FF752B408D89A2
:1016800006EA05152B43CD8906EA05152B43838011
:101690008483CD888587028470BD0000002C0140C2
:1016A0000034014070B5002200230024058C4EF662
:1016B000FF7635400584038C8488828B48F6FF755D
:1016C0002A404FF6FF452A400D884FF6FF7606EA7E
:1016D00005252A434DF6FF752B400D8906EA053591
:1016E0002B434D8806EA05352B430B4DA84202D00B
:1016F0000A4DA84208D14BF6FF752C408D894FF654
:10170000FF7606EA85152C4384808283CD88A0F875
:101710004050038470BD0000002C014000340140A3
:101720000A460021818B4FF2FF7319404FF6FF7379
:1017300003EA022319438183704781867047A0F82A
:101740004010704781847047028B4FF6F3731A4044
:101750000283028B0A4302837047028B4FF2FF33EE
:101760001A400283028B4FF6FF7303EA01231A43E8
:1017700002837047828B4FF6F3731A408283828B09
:101780000A4382837047828B4FF2FF331A40828371
:10179000828B4FF6FF7303EA01231A43828370475B
:1017A000002202881D4B98420ED01D4B98420BD050
:1017B000B0F1804F08D01B4B984205D01A4B98428D
:1017C00002D01A4B984204D14FF68F731A404B88BF
:1017D0001A43174B984207D0164B984204D04FF645
:1017E000FF431A40CB881A4302808B8883850B887D
:1017F00003850A4B98420BD0094B984208D00E4BF8
:10180000984205D00D4B984202D00D4B984201D121
:101810000B7A03860123838270470000002C01406D
:10182000003401400004004000080040000C00406B
:1018300000100040001400400040014000440140FE
:10184000004801404FF6FF71818000210180C18076
:1018500041800172704710B5012000F0F1F810BD11
:1018600010B5022000F0ECF810BD10B5032000F018
:10187000E7F810BD10B50022002340F66A14A1421B
:1018800000D100BF0A1201249440A3B2DC430480BB
:1018900010BD21B1828942F40052828104E0828924
:1018A0004DF6FF731A40828170471AB1838A0B4349
:1018B000838202E0838A8B438382704770B502463D
:1018C000002400230025002040F66A16B14200D112
:1018D00000BFC1F3421501F01F03012606FA03F30E
:1018E000012D02D19689334006E0022D02D1168ADD
:1018F000334001E0968A33400C12012606FA04F4C4
:101900001688344013B10CB1012000E0002070BDF6
:10191000F0B50346002400260025002040F66A1793
:10192000B94200D100BF1846C1F3421401F01F06AE
:10193000012707FA06F5012C01D10C3004E0022C36
:1019400001D1103000E014301AB107682F4307604E
:1019500002E00768AF430760F0BD00002DE9F047E3
:1019600086B005460E460024A24600BFA1460027C9
:10197000B08900B100BF2F462C8A4CF6FF7004409E
:10198000F08804432C82AC894EF6F3100440B088F2
:1019900031890843718908430443AC81AC8A4FF60E
:1019A000FF400440B0890443AC8201A8FFF736F938
:1019B0001F48874202D1DDF810A001E0DDF80CA03D
:1019C000A88900F4004040B10AEBCA0000EB0A10FD
:1019D00031684900B0FBF1F807E00AEBCA0000EB00
:1019E0000A1031688900B0FBF1F86420B8FBF0F010
:1019F00004012009642101FB1089A88900F400403A
:101A000040B1322000EBC900B0FBF1F000F007005C
:101A1000044308E0322000EB09106421B0FBF1F030
:101A200000F00F0004432C8106B0BDE8F0870000F1
:101A30000038014001468888C0F308007047000064
:101A400070B5044600260025641E254951F824007F
:101A500040F22441FFF732FF002840D0204951F8DE
:101A60002400FFF7E7FF1F4951F824000021FEF78B
:101A70005BFE1C4951F82400FEF762FEC0F1C8006D
:101A8000C6B2194850F82400066000BF0DE004EB10
:101A9000C40000EB0410154901EBC000405D14497F
:101AA00051F824104855681C85B2B54204DA114833
:101AB00050F82400A842EAD8094951F8240040F21D
:101AC0002441FFF7D7FE074951F82400C821FEF74B
:101AD00059FE044951F824000121FEF725FE70BD8E
:101AE00020000020DC00002030060020E40100205F
:101AF000080600201C06002000BFFEE702E008C820
:101B0000121F08C1002AFAD170477047002001E077
:101B100001C1121F002AFBD17047000010B56FF001
:101B20000400FFF75BF90A4800680A49B0FBF1F0CE
:101B3000094908700846007800EB4001C1EBC0106D
:101B40004FF6FF7101EAC0000449088010BD000093
:101B5000BC01002000127A001400002016000020B2
:101B600010B58CB00446194951F824000121FFF743
:101B700025F804EBC40000EB0410154901EBC0008C
:101B80000290144850F82400001D0190002003909A
:101B9000C820049000200890802006900020079024
:101BA000059009904FF400500A9000200B900A49CC
:101BB00051F8240001A9FEF7C7FD074951F8240098
:101BC0000121FEF7B1FD0CB010BD0000B4000020F3
:101BD000E401002020000020DC00002010B58CB0C3
:101BE0000446154951F824000121FEF7E7FF134888
:101BF00050F824000290124850F82400001D019073
:101C0000102003900020049008908020069000206F
:101C10000790059009900A900B900A4951F824000A
:101C200001A9FEF791FD074951F824000121FEF7B3
:101C30007BFD0CB010BD0000B4000020E0050020CA
:101C400020000020C800002038B50446164951F88D
:101C500024000121FEF780FE144951F824000121DF
:101C6000FEF7CCFF124830F8240080B2ADF8000037
:101C700018208DF8030003208DF802000D4951F85B
:101C800024006946FEF7DCFD0B4830F8240080B2E2
:101C9000ADF8000004208DF80300064951F8240037
:101CA0006946FEF7CDFD38BDD00100207000002050
:101CB000840000205C0000209800002038B5044615
:101CC0000F4951F824000121FEF798FF6846FEF7FE
:101CD0008BFE0C4830F824000B4931F824100843DF
:101CE00080B2ADF8000004208DF8030003208DF8C9
:101CF0000200064951F824006946FEF7A1FD38BDEF
:101D000020010020300100204001002010010020AF
:101D100070B50446641E074850F82400808C00B259
:101D20004542044951F824004FF6FF71FFF70AFDC0
:101D3000284670BDF000002010B50446641E204601
:101D4000FFF7BCFF204600F0CFF9034951F824000B
:101D50000121FFF708FB10BDF00000201CB54FF477
:101D6000A060FEF787FE01210846FEF747FF01212C
:101D70001D48FEF7F1FDFFF7D1FE4FF4E1310320DE
:101D800000F052FC00F072F80120FFF7D5FF0220AE
:101D9000FFF7D2FF012000210B460A46CDE90010D3
:101DA0001248FEF7FBFE012000210B460A46CDE952
:101DB00000100F48FEF7F2FE012000210B460A46F4
:101DC000CDE900100B48FEF7E9FE012000210B468B
:101DD0000A46CDE900100848FEF7E0FE0A2000F0B0
:101DE0000DF800BFFEE7000000023000480C0020A4
:101DF000640C0020800C00209C0C002010B50446D0
:101E0000204600F04BF9012211460548FFF749FB37
:101E100000F008F801210248FFF7A5FA10BD000004
:101E20000008004008B51E208DF8000001208DF844
:101E3000030002208DF801008DF802006846FEF7CD
:101E4000E1FD08BD38B504460748005D8DF8000087
:101E500001208DF801008DF802008DF8030068461E
:101E6000FEF7D0FD38BD0000AC00002008B5012110
:101E70000820FEF7C3FE10208DF803004FF47040D9
:101E8000ADF8000003208DF8020069460348FEF714
:101E9000D7FC0A2000F09AF808BD0000000C0140B1
:101EA00070B504460D46424801682046FEF73CF9ED
:101EB0003F49086029463F480068FEF735F93D492B
:101EC00008603D493A480068FEF7FAFA03D23A48FA
:101ED0003749086008E0394935480068FEF7E6FAF6
:101EE00002D2364832490860334932480068FEF76A
:101EF000E7FA03D230482F49086008E02F492D48FF
:101F00000068FEF7D3FA02D22C482A490860002163
:101F100027480068FEF7CAFA10D200202849086056
:101F200001202849C1F8B40121480068FEF78EFA63
:101F300086B231462448FFF702FC0FE00120204919
:101F4000086000201F49C1F8B40119480068FEF775
:101F50007DFA86B231461C48FFF7F1FB0021154897
:101F60000068FEF7A3FA11D2002015490C31086071
:101F700001201449C1F8B8010E480068FEF766FA5E
:101F800086B231461048FFF7D8FB10E001200C491B
:101F90000C31086000200B49C1F8B8010548006801
:101FA000FEF754FA86B231460748FFF7C6FB70BD0C
:101FB000500100205401002000C0DA4500C0DAC5FD
:101FC000B081214200802142002C014010B588B030
:101FD0000446012140F60400FEF710FE18208DF89B
:101FE00003004FF41060ADF8000003208DF80200EC
:101FF00069462848FEF724FC41F61F40ADF818005A
:1020000004EB84004000401E80B2ADF814000020B4
:10201000ADF81600ADF81A0005A91F48FFF7C0FB80
:102020006020ADF804000020ADF80C00ADF80E0003
:102030000120ADF806000020ADF80800ADF80A0058
:10204000ADF81000ADF8120001A91348FFF732FAFD
:1020500001A91148FFF784FA01A90F48FFF7D2FA46
:1020600001A90D48FFF71EFB08210B48FFF76EFA88
:1020700008210948FFF754FB01210748FFF77FF9C2
:1020800001210548FFF760F901210348FFF76BF9CB
:1020900008B010BD00080140002C01403EB50446C8
:1020A00001210420FEF79AFD40F2CF20ADF8000098
:1020B000642104FB01F0401E80B2ADF80400002052
:1020C000ADF80200ADF8060069460548FFF768FB69
:1020D000642104FB01F0401E024908803EBD00005F
:1020E000000800401800002010B586B00446032CFC
:1020F00004D101214803FEF781FD05E0184951F89C
:1021000024000121FEF76AFD03A8FFF79BFB0020D6
:10211000ADF80C004FF6FF70ADF810000020ADF8E0
:102120001200ADF80E000F4951F8240003A9FFF783
:1021300037FB0C4951F8240000231A460321FFF70E
:102140002DF96846FFF7A4F90020ADF8080005490D
:1021500051F824006946FFF745F906B010BD0000AC
:1021600000010020F00000202DE9F04F044609ADE9
:1021700095E8E010DDE90E9ADDF83480601EDFF8A6
:1021800008B35BF820007E287ED131B1601EDFF8F5
:10219000FCB20BEBC0104078087032B1601EDFF863
:1021A000ECB20BEBC0108078107033B1601EDFF81A
:1021B000DCB20BEBC010C078187035B1601EDFF8D0
:1021C000CCB20BEBC0104068286036B1601EDFF85F
:1021D000BCB20BEBC0108068306037B1601EDFF816
:1021E000ACB20BEBC010C0683860BCF1000F07D078
:1021F000601EDFF898B20BEBC0100069CCF800004D
:10220000B8F1000F07D0601EDFF880B20BEBC010F2
:102210004069C8F80000B9F1000F07D0601EDFF870
:102220006CB20BEBC0108069C9F80000BAF1000F66
:1022300007D0601EDFF854B20BEBC010C069CAF8BB
:102240000000109848B1601EDFF840B20BEBC010E0
:10225000D0F820B01098C0F800B0119848B1601EB6
:10226000DFF828B20BEBC010D0F824B01198C0F8FA
:1022700000B0129858B1601EDFF810B20BEBC0101E
:10228000D0F828B0129800E0FBE0C0F800B0139836
:1022900048B1601EDFF8F4B10BEBC010D0F82CB0E1
:1022A0001398C0F800B0149848B1601EDFF8DCB194
:1022B0000BEBC010D0F830B01498C0F800B01598EF
:1022C00048B1601EDFF8C4B10BEBC010D0F834B0D9
:1022D0001598C0F800B0169848B1601EDFF8ACB190
:1022E0000BEBC010D0F838B01698C0F800B01798B3
:1022F00048B1601EDFF894B10BEBC010D0F83CB0D1
:102300001798C0F800B0189848B1601EDFF87CB18B
:102310000BEBC010D0F840B01898C0F800B0199876
:1023200048B1601EDFF864B10BEBC010D0F844B0C8
:102330001998C0F800B01A9848B1601EDFF84CB187
:102340000BEBC010D0F848B01A98C0F800B01B983A
:1023500048B1601EDFF834B10BEBC010D0F84CB0C0
:102360001B98C0F800B01C9848B1601EDFF81CB183
:102370000BEBC010D0F850B01C98C0F800B01D98FE
:1023800048B1601EDFF804B10BEBC010D0F854B0B8
:102390001D98C0F800B01E9848B1601EDFF8ECB080
:1023A0000BEBC010D0F858B01E98C0F800B01F98C2
:1023B00048B1601EDFF8D4B00BEBC010D0F85CB0B1
:1023C0001F98C0F800B0209848B1601EDFF8BCB07C
:1023D0000BEBC010D0F860B02098C0F800B0219886
:1023E00048B1601EDFF8A4B00BEBC010D0F864B0A9
:1023F0002198C0F800B0229848B1601EDFF88CB078
:102400000BEBC010D0F868B02298C0F800B0239849
:1024100048B1601EDFF874B00BEBC010D0F86CB0A0
:102420002398C0F800B0249848B1601EDFF85CB073
:102430000BEBC010D0F870B02498C0F800B025980D
:1024400048B1601EDFF844B00BEBC010D0F874B098
:102450002598C0F800B0269848B1601EDFF82CB06F
:102460000BEBC010D0F878B02698C0F800B04FF051
:10247000000B601EDFF810E04EF820B00120BDE830
:10248000F08F0020FBE70000440A002044080020F1
:102490002DE9F84F04460E4617469846DDE90AAB8B
:1024A000601E604901EBC010451C4FF000097B2005
:1024B0000090601E01EBC0104670601E01EBC01062
:1024C0008770601E01EBC01080F80380601E01EB76
:1024D000C010C0F804A0601E01EBC010C0F808B026
:1024E000611E504A02EBC1110C98C860611E02EBDC
:1024F000C1110D980861611E02EBC1110E9848616F
:10250000611E02EBC1110F988861611E02EBC111BF
:102510001098C861611E02EBC11111980862611E1A
:1025200002EBC11112984862611E02EBC1111398AF
:102530008862611E02EBC1111498C862611E02EB31
:10254000C11115980863611E02EBC111169848630A
:10255000611E02EBC11117988863611E02EBC11165
:102560001898C863611E02EBC11119980864611EB6
:1025700002EBC1111A984864611E02EBC1111B984D
:102580008864611E02EBC1111C98C864611E02EBD5
:10259000C1111D980865611E02EBC1111E984865A6
:1025A000611E02EBC1111F988865611E02EBC1110B
:1025B0002098C865611E02EBC11121980866611E52
:1025C00002EBC11122984866611E02EBC1112398EB
:1025D0008866611E02EBC1112498C866611E02EB79
:1025E000C11125980867611E02EBC1112698486742
:1025F000611E02EBC1112798886705E015F8011BE1
:1026000001EB090000F0FF090098411E89B200911A
:102610000028F3D185F80090204600F08FF8BDE83F
:10262000F88F0000440600203EB504460D46601EAB
:10263000104901EB80007E22611E0F4B03EBC1119C
:10264000CDE900120290601E0C4901EBC0127E23FE
:102650002946204600F014F8A521601E074A02EB27
:10266000C01001705A21601E02EBC01080F87D106E
:102670003EBD0000440A002044080020440600201B
:102680002DE9F04704460D4616461F46DDE9099A36
:10269000DDF82080641E204840F824501F4840F890
:1026A00024601F4840F824801E4840F824701E48CB
:1026B00040F824901D4840F824A02046FFF7C2FBB4
:1026C0001B4850F8240010B12046FFF787FA19483C
:1026D00050F8240010B12046FFF742FA204600F0DF
:1026E00053F82046FFF7B0FA134951F824000122AD
:1026F00040F22441FFF70CF90F4951F82400012260
:10270000C021FFF7D2F80C4951F824000121FFF74E
:10271000C0F8BDE8F0870000CC050020E0050020EF
:1027200008060020F40500201C06002030060020CA
:10273000C8000020DC0000202000002010B5044666
:10274000641E0F4951F82400FDF7FAFF08B100BFDD
:10275000FEE70B4951F824000021FDF7E5FF094A87
:1027600032F8242091B2064A52F82400FEF70AF803
:10277000034951F824000121FDF7D6FF10BD0000E8
:10278000C8000020F40500201FB50446114951F887
:1027900024000121FEF732FA0F4951F824000121EB
:1027A000FEF71CFA0D4850F8240000900C20ADF8FC
:1027B0000A000020ADF80400ADF80800ADF80600EE
:1027C000ADF80C00064951F824006946FFF7C6F839
:1027D0001FBD00004800002034000020CC05002070
:1027E000200000200428000800000020D001000084
:1027F000600600089C280008D0010020E80E0000B8
:102800000C1B0008412D0102030404D0090607082F
:10281000090204060814380140124412401A480400
:10282000D13202A204D91E511A083C29041A0C0400
:102830007129322904B965194B394A994F290C3944
:10284000249929542526279A01048112441C024008
:1028500080041A1C04811A580C1A6C049A3014391A
:10286000AA1A04041A0C042C3401404429CA3967FA
:102870009A20B429046C100140B029045A1074291C
:102880004D6908293C9A8008016D2BA24A97510096
:0C2890000900010203040607080900000B
:04000005080000ED02
:00000001FF
