:020000040800F2
:100000003811002005010008AD0A0008A50A000803
:10001000A90A000863070008F52000080000000096
:100020000000000000000000000000009D0D00081E
:100030003508000800000000650C0008B10E00083B
:100040001F0100081F0100081F0100081F01000810
:100050001F0100081F01000839080008690800088E
:100060008108000899080008B10800081F0100086D
:100070001F0100081F0100081F0100081F010008E0
:100080001F0100081F0100081F0100081F010008D0
:100090001F0100081F0100081F010008C90800080F
:1000A0001F0100081F0100081F0100081F010008B0
:1000B0001F0100081F010008551100081F0100085A
:1000C0001F0100081F0100081F0100081F01000890
:1000D0001F010008531E00085D1E0008671E00086F
:1000E000510800081F0100081F010008DFF810D0A8
:1000F00000F0EAFA0048004759230008AFF30080F7
:10010000381100200648804706480047FEE7FEE712
:10011000FEE7FEE7FEE7FEE7FEE7FEE7FEE7FEE7B7
:10012000B50E0008ED000008D2B201E000F8012B86
:10013000491EFBD270470022F6E710B513460A4667
:1001400004461946FFF7F0FF204610BDF0B480EAE0
:100150000102D40F4200B2EB410F02D20246084620
:1001600011464A0042D0C30DDDB2C1F3C752AD1AE9
:10017000202D35DAC1F3160141F4000204B15242D8
:10018000C5F1200602FA06F12A411044B3EBD05F14
:1001900023D0C4B1012DA0EBC35009DCF0BC4FF05B
:1001A000004202EAC352DBB200F5000000F000BAE0
:1001B000400000F1807000EBC350A0F1807040EA75
:1001C000D170490009E0490841EAC071A0EBC35071
:1001D00000F50000400800EBC350F0BC00F0DFB9B0
:1001E0006142012202EB4101001BF6E7F0BC7047BF
:1001F00081F00041AAE780F00040A7E780EA010211
:1002000010B502F00043400022D04A001FD0010E7A
:1002100001EB1261C0F35600C2F3560240F4000035
:1002200042F40002A0FB022000047F39140400D035
:10023000401C50EA124001D44000491EC2B20C06D4
:1002400004EBD010401C4008802A02D003E00020BC
:1002500010BD20F00100002900DA0020184310BD75
:1002600030B480EA010202F0004530F0004221F093
:10027000004013D090B1C30DD40DC2F31601C0F3EA
:100280001600E41A41F4000140F400027D3491426A
:1002900001D3641C00E04900002C02DA30BC0020CD
:1002A00070474FF400000023914201D3891A0343A1
:1002B00040084FEA4101F7D151B1914202D14FF0CC
:1002C000004105E002D24FF0010101E06FF00101B1
:1002D00003EBC450284430BC00F061B92DE9FE4F57
:1002E00081EA030404F0004421F0004100944FF03F
:1002F000000B23F0004350EA01045ED052EA0304ED
:100300005BD0C3F30A54C1F30A552C44A4F2F3346E
:100310000194A0FB0254C1F3130141F48011C3F313
:10032000130343F4801301FB024400FB034E840AD1
:10033000970A44EA815447EA8357A4FB0768029569
:100340008D0A05FB07854FEA932C04FB0C54270507
:10035000029D4FEA065847EA1637B5EB08056EEBE3
:10036000070C870E920E47EA811742EA8312A7FB19
:100370000201B6EB0B0164EB00042B0D43EA0C33D6
:100380005E1844EB1C50DA465146E7FB0201C5F308
:1003900013044FEA0B3343EA14534FEA0432019C2F
:1003A00043EA0603A4F10C040294009CCDE900B4D6
:1003B00000F03BF903B0BDE8F08F00200146F9E7FB
:1003C0002DE9F04D81EA030404F0004B21F00045D3
:1003D00014464FF0000A23F0004150EA050220D0F5
:1003E00054EA01021DD0C5F30A570246C5F31303B0
:1003F000C1F31300C1F30A5640F4801543F480138F
:10040000A7EB0608101BD64608F2FD3873EB050073
:1004100002D308F1010801E092185B41B8F1000F26
:1004200003DA00200146BDE8F08D00204FF4801172
:10043000064684460EE0171B73EB050705D3121B17
:1004400063EB050306434CEA010C49084FEA300010
:1004500092185B4150EA0107EDD152EA030012D035
:1004600082EA040083EA0501084305D0101BAB4172
:1004700006D20122002306E000224FF0004302E0F2
:100480006FF0010253101AEB06004CEB085110EB11
:100490000A0041EB0B01BDE8F04D00F0B7B8C10F09
:1004A00080EAE0700844CA079623002100F080B873
:1004B00096230022114600F07BB80EB5C10F80EAEA
:1004C000E0700844CA07002140F233438DE80E0073
:1004D0000A460B4600F0A9F803B000BD0EB540F285
:1004E000334102910021CDE900110A460B4600F08C
:1004F0009CF803B000BD20F00040C10DC0F3160011
:1005000040F400007F2901DA00207047962903DCBF
:10051000C1F19601C840704796398840704701F094
:10052000004330B421F0004150EA010206D00A0D28
:10053000A2F56072C1F31301002A02DC30BC002076
:100540007047440F44EAC104C100E01830BC00EB1E
:10055000C25000F024B80000002801DBC0F10040C8
:10056000002901DBC1F1004181427047002801DB15
:10057000C0F10040002901DBC1F100418842704711
:10058000202A04DB203A00FA02F100207047914053
:10059000C2F1200320FA03F3194390407047002969
:1005A000A8BF7047401C490008BF20F001007047F9
:1005B00010B4B0FA80FC00FA0CF050EA010404BF59
:1005C00010BC704749B1CCF1200421FA04F411FAAF
:1005D0000CF118BF012121430843A3EB0C01CB1DF3
:1005E0004FEA00614FEA102042BF002010BC704764
:1005F00000EBC35010440029A4BF10BC7047401C3E
:10060000490008BF20F0010010BC704710B5141E4F
:1006100073F1000408DA401C41F1000192185B41BB
:100620001A4301D120F0010010BD2DE9F04D924692
:100630009B4611B1B1FA81F202E0B0FA80F22032A9
:100640009046FFF79DFF04460F4640EA0A0041EA44
:100650000B0153465A46084313D0114653EA010092
:1006600019D0C8F14002504600F040F805460E4649
:10067000504659464246FFF783FF084305D0012004
:1006800004E020463946BDE8F08D0020054346EAE7
:10069000E0762C4337430A986305E40AA0EB080090
:1006A0000022FD0A44EA47540A3002D500200146E0
:1006B000E9E7010510196941DDE9084500196941BB
:1006C000BDE8F04DA2E70000064C074D06E0E068EB
:1006D00040F0010394E8070098471034AC42F6D389
:1006E000FFF708FDB4300008D4300008202A04DBEE
:1006F000203A21FA02F00021704721FA02F3D0409B
:10070000C2F12002914008431946704770B58C1819
:1007100010F8015B15F0070301D110F8013B2A1115
:1007200006D110F8012B03E010F8016B01F8016B02
:100730005B1EF9D12B0705D40023521E0DD401F8FE
:10074000013BFAE710F8013BCB1A921C03E013F8C7
:10075000015B01F8015B521EF9D5A142D8D30020FC
:1007600070BD00BFFEE700002DE9FC470F48008880
:10077000FFF7B4FE04460D460D4801F02EF90D4971
:100780000988A0EB010A5046FFF797FE06460022B3
:10079000094BFFF7A3FD804622462B46FFF710FECC
:1007A000CDE90001FFF7BBFEBDE8FC871800002083
:1007B000000800401A0000200000594010B503480E
:1007C00001F00BF90249088010BD0000000800404C
:1007D0001A00002021B1026842F00102026004E028
:1007E00002684FF6FE731A4002607047014648687F
:1007F00080B2704710B50022026847F6F0739A4342
:100800000C6A8B6823430C6923434C6923438C692E
:100810002343CC6923434C6A23438C6A23431A4302
:100820000260CB6843600B6883604B68C36010BD97
:10083000416070477047000010B5034800F050F861
:1008400002480068804710BDFFFF0F001C00002019
:1008500010B5034800F044F802480068804710BD16
:10086000FFFF0F001C00002010B5034800F038F80F
:1008700002480068804710BDFFFF0F001C000020E9
:1008800010B5034800F02CF802480068804710BDFE
:10089000FFFF0F001C00002010B5034800F020F8F7
:1008A00002480068804710BDFFFF0F001C000020B9
:1008B00010B5034800F014F802480068804710BDE6
:1008C000FFFF0F001C00002010B5034800F008F8DF
:1008D00002480068804710BDFFFF0F001C00002089
:1008E0000149086070470000140401402DE9F041FF
:1008F000024600250026002000230024002791F84E
:1009000003C00CF00F0591F803C00CF0100CBCF103
:10091000000F03D091F802C04CEA050591F800C021
:10092000BCF1000F31D0146800202BE04FF0010C17
:100930000CFA00F3B1F800C00CEA03069E4220D185
:1009400083004FF00F0C0CFA03F7BC4305FA03FCCD
:100950004CEA040491F803C0BCF1280F06D14FF013
:10096000010C0CFA00FCC2F814C00AE091F803C0B4
:10097000BCF1480F05D14FF0010C0CFA00FCC2F895
:1009800010C0401C0828D1D31460B1F800C0BCF1DD
:10099000FF0F34DD546800202EE000F1080C4FF00A
:1009A000010808FA0CF3B1F800C00CEA03069E42F5
:1009B00021D183004FF00F0C0CFA03F7BC4305FA6A
:1009C00003FC4CEA040491F803C0BCF1280F05D1E4
:1009D00000F1080C08FA0CF8C2F8148091F803C072
:1009E000BCF1480F07D100F1080C4FF0010808FADC
:1009F0000CF8C2F81080401C0828CED35460BDE823
:100A0000F0810000F0B50A460023002400210025F3
:100A100000F00046B6F1004F02D11D4EF16901E031
:100A20001B4E7168C0F3034583B200F44016B6F55F
:100A3000401F08D121F07061154E766826F070666F
:100A4000134F7E6012E000F48016B6F5801F06D1C9
:100A5000032606FA05F4A14341F0706106E0460D55
:100A6000360103FA06F6B14341F0706122B1460D3A
:100A7000360103FA06F6314300F00046B6F1004FA6
:100A800002D1034EF16101E0014E7160F0BD000042
:100A9000000001404FF6FF710180022181700421A6
:100AA000C170704700BFFEE700BFFEE7704700005F
:100AB00070B5002100230F22C47804B3154C2468BC
:100AC00004F4E064C4F5E064210AC1F10403CA40FF
:100AD000447804FA03F184781440214309010E4C50
:100AE0000678A155047804F01F050124AC40057870
:100AF0006D11AD0005F1E025C5F8004109E004786D
:100B000004F01F050124AC40044D0678761145F829
:100B1000264070BD0CED00E000E400E080E100E064
:100B200002490143024A1160704700000000FA05C3
:100B30000CED00E02DE9F84F044688461646414684
:100B40003046FFF755FB05462946A069FFF7FEFA38
:100B5000A06128462169FFF74BFB8346A168FFF798
:100B60004DFB8146A1696068FFF748FB8346294633
:100B70002068FFF743FB59460090FFF7E7FA8246EB
:100B80004946FFF7E3FA074625613846E168FFF773
:100B9000EDFC01D2E7680AE0E06880F000493946E0
:100BA0004846FFF7E3FC02D2E06880F00047384691
:100BB000BDE8F88F2DE9FC5F04468846164641469D
:100BC0003046FFF715FB05464FF080402169FFF7DF
:100BD00015FB29460090FFF70EFB83466169FFF77E
:100BE000B5FA8246A168FFF709FB8146294660688D
:100BF000FFF704FB009028462169FFF7F9FA8346C6
:100C00002168FFF7FBFA82460099FFF79FFA4946F1
:100C10000190FFF79BFA074620696061256138461D
:100C2000E168FFF7A3FC01D2E7680AE0E06880F022
:100C3000004939464846FFF799FC02D2E06880F047
:100C400000473846BDE8FC9F70B5DDE9044501600A
:100C500083604260C460012D03D1002606614661B5
:100C6000866170BD7047000029B1064A526902438F
:100C7000044B5A6104E0034A52698243014B5A61B2
:100C8000704700000010024029B1064AD2690243B1
:100C9000044BDA6104E0034AD2698243014BDA6112
:100CA000704700000010024029B1064A92690243D1
:100CB000044B9A6104E0034A92698243014B9A61B2
:100CC000704700000010024030B5002100220024CF
:100CD00000232D4D6D6805F00C0121B1042905D0CC
:100CE000082923D105E0294D056022E0274D056044
:100CF0001FE0254D6D6805F47012234D6D6805F4F5
:100D00008034022505EB92421CB9214D5543056004
:100D10000BE01D4D6D6805F400351DB11C4D5543AC
:100D2000056002E0194D5543056002E0174D05606E
:100D300000BF00BF144D6D6805F0F0010909154DA5
:100D40006B5C0568DD4045600F4D6D6805F4E06142
:100D5000090A104D6B5C4568DD4085600A4D6D6881
:100D600005F46051C90A0B4D6B5C4568DD40C560F8
:100D7000054D6D6805F44041890B074D6B5CC568F6
:100D8000B5FBF3F5056130BD0010024000127A009A
:100D900000093D000000002010000020704710B541
:100DA00000F002F810BD00000CB50020019000908A
:100DB0003348006840F480303149086000BF304853
:100DC000006800F4003000900198401C01900098E9
:100DD00018B90198B0F5A06FF1D12948006800F466
:100DE000003010B10120009001E000200090009838
:100DF000012843D12348006840F0100021490860D1
:100E00000846006820F0030008600846006840F0CB
:100E1000020008601A48406819494860084640685E
:100E200048600846406840F4806048600846406872
:100E300020F47C1048600846406840F4E8104860A0
:100E40000846006840F08070086000BF0C480068E9
:100E500000F000700028F9D00948406820F0030035
:100E6000074948600846406840F00200486000BFFB
:100E70000348406800F00C000828F9D10CBD0000C0
:100E80000010024000200240042808D14FF0E02169
:100E9000096941F004014FF0E022116107E04FF0D1
:100EA000E021096921F004014FF0E022116170474F
:100EB0007047000010B51348006840F00100114968
:100EC000086008464068104908400E4948600846D6
:100ED00000680E4908400B4908600846006820F485
:100EE000802008600846406820F4FE0048604FF407
:100EF0001F008860FFF753FF4FF00060044908604F
:100F000010BD0000001002400000FFF8FFFFF6FED9
:100F100008ED00E0F0B50C46154600220021068CD5
:100F20004FF6FE773E400684028B018C4FF60C761E
:100F300032407E1C06EA03162E433243104EB04266
:100F40000ED0104EB0420BD0B0F1804F08D00E4EF4
:100F5000B04205D00D4EB04202D00D4EB04206D187
:100F60004FF6FD76314044F00106314305E04FF67F
:100F7000F576314044F00106314302830184F0BD2F
:100F8000002C0140003401400004004000080040F3
:100F9000000C0040F0B50C4615460022002100264A
:100FA000078C4FF6EF7C07EA0C070784028B018C55
:100FB0004FF6FF7707EA041640F6FF473A404FF630
:100FC000FF7707EA03373A434FF6FF7707EA05272B
:100FD0003A43114FB8420ED0104FB8420BD0B0F187
:100FE000804F08D00E4FB84205D00E4FB84202D005
:100FF0000D4FB84206D14FF6DF77394046F0100763
:10100000394305E04FF65F77394044F01007394324
:1010100002830184F0BD0000002C01400034014037
:101020000004004000080040000C0040F0B50C46F1
:101030001546002200210026078C4FF6FF6C07EAB8
:101040000C070784828B018C4FF6FF7707EA042692
:101050004FF60C773A404FF6FF7707EA03172F4316
:101060003A43114FB8420ED0104FB8420BD0B0F1F6
:10107000804F08D00E4FB84205D00E4FB84202D074
:101080000D4FB84206D14FF6FF57394046F48077EE
:10109000394305E04FF2FF57394044F48077394334
:1010A00082830184F0BD0000002C01400034014027
:1010B0000004004000080040000C0040F0B50C4661
:1010C0001546002200210026078C4EF6FF7C07EA19
:1010D0000C070784828B018C4FF6FF7707EA0436F2
:1010E00040F6FF473A404FF6FF7707EA05273A43B5
:1010F0004FF6FF7707EA03373A43114FB8420ED055
:10110000104FB8420BD0B0F1804F08D00E4FB8420C
:1011100005D00E4FB84202D00D4FB84206D14DF661
:10112000FF77394046F48057394305E047F6FF57CB
:10113000394044F48057394382830184F0BD000074
:10114000002C014000340140000400400008004031
:10115000000C004010B5A4B00020239022902190F4
:10116000FFF72CFB0121FE4800F0F8FBFD4800686A
:1011700040F2E731884201DB002002E0F9480068D4
:10118000401CF849086000201A901B901C90F64BF8
:101190001D90CDE9163018901990F448F449F54A9D
:1011A000F54BCDE91232CDE91410F448F449F54A73
:1011B000F54BCDE90E32CDE91010F448F449F54A6B
:1011C000F54BCDE90A32CDE90C100020F349F44A81
:1011D000F44BCDE90632CDE90810F3480021F34A7B
:1011E000F34BCDE90232CDE90410F248F249002375
:1011F000F24ACDE90010F249032001F043FBF14827
:10120000EA49086000200968CDE90010E848036851
:10121000E8480268E8480168EB48FFF715FD002040
:10122000E2490968CDE90010E1480368E148026835
:10123000E1480168E548FFF707FD0020D749096844
:10124000CDE90010D6480368D6480268D648016840
:10125000DF48FFF7F9FC0020CC490968CDE9001010
:10126000CB480368CB480268CB480168D948FFF7F0
:10127000EBFC0920239014E02398401ED64951F836
:101280002010D54A239842F820102398401ED349B5
:1012900051F82010D14A239842F820102398401E7C
:1012A000239023980028E7DC002003900490059009
:1012B0000690009001900346C84AC7490290022058
:1012C00001F06CFD0020C6490860C6490860239003
:1012D0002CE0C149239851F820001E90FFF7DFF859
:1012E0001F90A24801681F98FEF7BAFF2090BC48E3
:1012F00001682098FEF72AFFB9490860B74923988A
:1013000051F820001E90FFF7CAF81F909748016817
:101310001F98FEF7A5FF2090B24801682098FEF7BD
:1013200015FFB04908602398401C23902398FFF7CD
:10133000B6F820908D4801682098FFF70DF9C8D3C2
:10134000022000F0E3FF401E2090FFF7A8F8A64916
:101350000860012000F0DAFFC0F101002090FFF7E3
:101360009EF8A24908609648007801280ED1002016
:101370009F4908700846007828B30846007801287D
:1013800021D0084600789B4908701CE08B48007803
:1013900001280DD1964908700846007898B1084692
:1013A000007801280FD008460078924908700AE0BA
:1013B0008F48007818B18E480078012803D18D48F5
:1013C00000788B490870674800680A2190FBF1F2A9
:1013D00001FB1200002806D18548007820B90021C1
:1013E000084601F0F5F81BE28148007801281CD17D
:1013F0006448006880490860624802687A48016869
:101400007148FFF7D7FB7D4908607B480268774841
:1014100001686E48FFF7CEFB79490860084601680D
:101420007648006801F03EF8FAE171480078022839
:101430007ED1744801686A480068FEF7D9FE2090A2
:101440004D4801682098FFF787F87DD24A48006828
:1014500080F0004020906B48016861480068FEF70A
:10146000C7FE1F902099FFF781F86DD246480168AA
:101470005C480068FEF7BCFE20903E48016820985A
:10148000FFF76AF860D23B48006880F00040209087
:101490003D48016853480068FEF7AAFE1F90209956
:1014A000FFF764F850D258484FF07E510468006846
:1014B000FEF74CFE544908602D48209401682046F0
:1014C000FFF754F840D200204F4908600120374907
:1014D0000968CDE900103648036836480268364886
:1014E00001683948FFF7B0FB012030490968CDE9B0
:1014F00000102F4803682F4802682F4801683348BE
:10150000FFF7A2FB012025490968CDE90010244816
:10151000036824480268244801682D48FFF794FBBB
:1015200001201A490968CDE900101948036801E053
:1015300003E109E017480268174801682548FFF7EA
:1015400083FB03202A4908700D480168254800687C
:10155000FFF70CF868D22B4802682148016855E073
:101560000008004058010020E8010020AC010020E4
:10157000700100206401002060010020680100204B
:10158000D801002080010020C8010020D4010020E3
:10159000C4010020C0010020BC010020B8010020CF
:1015A000A4010020A00100209C010020980100203F
:1015B0007C01002078010020740100205F010020E0
:1015C0005E01002000C0DA45780C0020940C002059
:1015D000B00C0020CC0C0020E80C0020100D0020E6
:1015E000B0010020CC010020880100208C010020E7
:1015F0005C0100205D01002084010020900100209A
:1016000094010020A80100206C010020AA48FFF7E7
:1016100091FAAA490860AA480268AA480168AA483B
:10162000FFF788FAA9490860A4480168A74800683C
:10163000FEF7DEFDA6490860A0480168A3480068DF
:10164000FEF784FDA3490860A3480168A04800682C
:10165000FEF77CFD2090A14801682098FEF77CFFF2
:1016600008D29D4801689D480068FEF7C1FD9B496E
:10167000086019E09848016895480068FEF7B8FDD1
:101680002090964801682098FEF770FF08D2924893
:10169000016892480068FEF759FD9049086003E030
:1016A0008B4800688D4908608B480168894800684C
:1016B000FEF74CFD20908A4801682098FEF74CFF09
:1016C00008D28548016886480068FEF791FD844984
:1016D000086019E0804801687E480068FEF788FDD0
:1016E00020907F4801682098FEF740FF08D27A4892
:1016F00001687B480068FEF729FD7949086003E02E
:101700007448006876490860744802687548016842
:101710007548FFF74FFA75490860714802687448C8
:1017200001687448FFF746FA734908600846016883
:101730006E48006800F0B6FE72E07048007803283A
:101740006ED15F4801685F480068FEF751FD209048
:101750006B4801682098FEF709FF0FD368480068BE
:1017600080F0004020905648016856480068FEF717
:101770003FFD1F902099FEF7EFFE4DD261484FF0DC
:101780007E5104680068FEF7E1FC5E4908605E482F
:10179000209401682046FEF7E9FE3DD20020594919
:1017A0000860012059490968CDE9001058480368CC
:1017B00058480268584801684B48FFF745FA01202D
:1017C00052490968CDE90010514803685148026840
:1017D000514801684748FFF737FA01204F49096827
:1017E000CDE900104E4803684E4802684E48016833
:1017F0003148FFF729FA01204C490968CDE900106A
:101800004B4803684B4802684B4801682E48FFF775
:101810001BFA0220394908700021084600F0D8FE62
:10182000464800680A2190FBF1F201FB1200E8BB78
:10183000FEF79AFF209031480078FEF739FE1F909E
:1018400000201A901B901C901D90169017901890D5
:10185000199012901390149015900E900F90109074
:1018600011900A900B900C900D9016480268344825
:101870000168214B20981B68CDE90630CDE908129C
:101880001A480168164A1F981268144B1B68CDE964
:101890000232CDE9040116480068124909680023A4
:1018A0001A46CDE900101946032000E001E001F0DE
:1018B0007DF924B010BD0000B00C0020B401002060
:1018C000C8010020CC010020CC0C0020D001002059
:1018D000E0010020E4010020E80100208001002058
:1018E0008401002088010020780C00209001002055
:1018F0008C010020940C0020940100205C01002049
:10190000680100206C010020700100209801002077
:101910007C0100207801002074010020B801002023
:10192000A4010020A00100209C010020D40100207F
:10193000C4010020C0010020BC010020580100208B
:10194000B001002021B1028842F08002028004E050
:1019500002884FF67F731A4002807047CA430282A2
:10196000704721B1028842F00102028004E002883F
:101970004FF6FE731A400280704731B1B0F8442030
:1019800042F40042A0F8442005E0B0F84420C2F33D
:101990000E02A0F844207047F0B50C4615461E46CE
:1019A0000021002200230189028B038C4FF6F87777
:1019B000394021434FF6FC473A4040F201173A4381
:1019C0004FF6DD773B404FF6FF7707EA06172F43C8
:1019D0003B43018102830384F0BD0146888C70473C
:1019E00070B505460C46244885420ED023488542F2
:1019F0000BD0B5F1804F08D02148854205D0214851
:101A0000854202D02048854200D100E000BF2088F6
:101A100050B92389A28861882846FFF77BFAE188BC
:101A2000284600F08FF925E0208804280AD1238970
:101A3000A28861882846FFF7ADFAE188284600F0C1
:101A40008AF917E0208808280AD12389A2886188AA
:101A50002846FFF7EBFAE188284600F089F909E00B
:101A60002389A28861882846FFF728FBE188284659
:101A700000F087F970BD0000002C014000340140E7
:101A80000004004000080040000C004000210180DC
:101A90004180012181800021C180018170471AB1FC
:101AA00083890B43838102E083898B438381704761
:101AB00070B5002400220023058C4FF6FE763540D9
:101AC0000584028C8388048B4FF68F752C40B51EDD
:101AD0002C400D882C43751E2A400D892A434D88C1
:101AE0002A43144DA8420BD0134DA84208D0134DE1
:101AF000A84205D0124DA84202D0124DA84213D1DF
:101B00004FF6F7752A404D892A434FF6FB752A4058
:101B10008D882A434FF6FF652B404FF6FF552B402B
:101B20008D892B43CD892B4383800483CD88858683
:101B3000028470BD002C014000340140004001408F
:101B400000440140004801400A460021018B4FF645
:101B5000F7731940114301837047000070B50024EA
:101B600000220023058C4FF6EF7635400584028C69
:101B70008388048B48F6FF752C404FF6FF452C40B8
:101B80000D884FF6FF7606EA05252C434FF6DF75E4
:101B90002A400D8906EA05152A434D8806EA0515EF
:101BA0002A43154DA84202D0144DA8421DD14FF62C
:101BB0007F752A404D894FF6FF7606EA05152A43C0
:101BC0004FF6BF752A408D8806EA05152A434FF661
:101BD000FF352B404FF2FF752B408D8906EA8505B6
:101BE0002B43CD8906EA85052B4383800483CD886A
:101BF0000587028470BD0000002C014000340140C4
:101C000070B5002400220023058C4FF6FF66354096
:101C10000584028C8388848B4FF68F752C404FF699
:101C2000FC752C400D882C434FF6FF552A400D893A
:101C30004FF6FF7606EA05252A434D8806EA052574
:101C40002A43154DA84202D0144DA8421DD14FF28F
:101C5000FF752A404D894FF6FF7606EA05252A438F
:101C60004FF6FF352A408D8806EA05252A434EF6B1
:101C7000FF752B404DF6FF752B408D8906EA051543
:101C80002B43CD8906EA05152B4383808483CD88B9
:101C90008587028470BD0000002C014000340140A3
:101CA00070B5002200230024058C4EF6FF763540E7
:101CB0000584038C8488828B48F6FF752A404FF692
:101CC000FF452A400D884FF6FF7606EA05252A4390
:101CD0004DF6FF752B400D8906EA05352B434D88DF
:101CE00006EA05352B430B4DA84202D00A4DA84207
:101CF00008D14BF6FF752C408D894FF6FF7606EA2A
:101D000085152C4384808283CD88A0F840500384BD
:101D100070BD0000002C0140003401400A46002143
:101D2000818B4FF2FF7319404FF6FF7303EA0223D2
:101D300019438183704781867047A0F8401070472F
:101D400081847047028B4FF6F3731A400283028B33
:101D50000A4302837047028B4FF2FF331A4002831B
:101D6000028B4FF6FF7303EA01231A430283704785
:101D7000828B4FF6F3731A408283828B0A438283ED
:101D80007047828B4FF2FF331A408283828B4FF66B
:101D9000FF7303EA01231A438283704700220288FB
:101DA0001D4B98420ED01D4B98420BD0B0F1804F86
:101DB00008D01B4B984205D01A4B984202D01A4BC0
:101DC000984204D14FF68F731A404B881A43174B31
:101DD000984207D0164B984204D04FF6FF431A4062
:101DE000CB881A4302808B8883850B8803850A4B36
:101DF00098420BD0094B984208D00E4B984205D020
:101E00000D4B984202D00D4B984201D10B7A0386BC
:101E10000123838270470000002C01400034014000
:101E20000004004000080040000C0040001000408A
:101E300000140040004001400044014000480140BF
:101E40004FF6FF71818000210180C18041800172C5
:101E5000704710B5012000F0F1F810BD10B5022058
:101E600000F0ECF810BD10B5032000F0E7F810BD4D
:101E700010B50022002340F66A14A14200D100BF31
:101E80000A1201249440A3B2DC43048010BD21B1A6
:101E9000828942F40052828104E082894DF6FF7308
:101EA0001A40828170471AB1838A0B43838202E011
:101EB000838A8B438382704770B5024600240023D7
:101EC0000025002040F66A16B14200D100BFC1F3E0
:101ED000421501F01F03012606FA03F3012D02D17A
:101EE0009689334006E0022D02D1168A334001E084
:101EF000968A33400C12012606FA04F41688344000
:101F000013B10CB1012000E0002070BDF0B5034614
:101F1000002400260025002040F66A17B94200D1AF
:101F200000BF1846C1F3421401F01F06012707FA4B
:101F300006F5012C01D10C3004E0022C01D1103047
:101F400000E014301AB107682F43076002E0076809
:101F5000AF430760F0BD00002DE9F04786B00546AD
:101F60000E460024A24600BFA1460027B08900B15A
:101F700000BF2F462C8A4CF6FF700440F0880443C3
:101F80002C82AC894EF6F3100440B08831890843A6
:101F9000718908430443AC81AC8A4FF6FF4004408A
:101FA000B0890443AC8201A8FEF78EFE1F48874229
:101FB00002D1DDF810A001E0DDF80CA0A88900F442
:101FC000004040B10AEBCA0000EB0A10316849003A
:101FD000B0FBF1F807E00AEBCA0000EB0A10316829
:101FE0008900B0FBF1F86420B8FBF0F0040120098F
:101FF000642101FB1089A88900F4004040B132201F
:1020000000EBC900B0FBF1F000F00700044308E06A
:10201000322000EB09106421B0FBF1F000F00F005A
:1020200004432C8106B0BDE8F08700000038014071
:1020300001468888C0F308007047000070B5044668
:1020400000260025641E254951F8240040F2244151
:10205000FFF732FF002840D0204951F82400FFF755
:10206000E7FF1F4951F824000021FEF7B3FB1C498C
:1020700051F82400FEF7BAFBC0F1C800C6B21948F7
:1020800050F82400066000BF0DE004EBC40000EB34
:102090000410154901EBC000405D144951F82410AB
:1020A0004855681C85B2B54204DA114850F824003E
:1020B000A842EAD8094951F8240040F22441FFF728
:1020C000D7FE074951F82400C821FEF7B1FB0449A7
:1020D00051F824000121FEF77DFB70BD2000002097
:1020E000DC000020600600201402002038060020DA
:1020F0004C06002000BFFEE702E008C8121F08C11E
:10210000002AFAD170477047002001E001C1121F78
:10211000002AFBD17047000010B56FF00400FEF7F5
:10212000B3FE0A4800680A49B0FBF1F0094908709B
:102130000846007800EB4001C1EBC0104FF6FF717C
:1021400001EAC0000449088010BD0000EC01002035
:1021500000127A00140000201600002010B58CB088
:102160000446194951F824000121FEF77DFD04EBD6
:10217000C40000EB0410154901EBC00002901448A4
:1021800050F82400001D019000200390C820049006
:10219000002008908020069000200790059009906C
:1021A0004FF400500A9000200B900A4951F8240087
:1021B00001A9FEF71FFB074951F824000121FEF792
:1021C00009FB0CB010BD0000B40000201402002078
:1021D00020000020DC00002010B58CB0044615491A
:1021E00051F824000121FEF73FFD134850F8240068
:1021F0000290124850F82400001D01901020039016
:102200000020049008908020069000200790059000
:1022100009900A900B900A4951F8240001A9FEF791
:10222000E9FA074951F824000121FEF7D3FA0CB06E
:1022300010BD0000B4000020100600202000002087
:10224000C800002038B50446164951F82400012181
:10225000FEF7D8FB144951F824000121FEF724FDB4
:10226000124830F8240080B2ADF8000018208DF834
:10227000030003208DF802000D4951F8240069463F
:10228000FEF734FB0B4830F8240080B2ADF80000B4
:1022900004208DF80300064951F824006946FEF732
:1022A00025FB38BD000200207000002084000020C3
:1022B0005C0000209800002038B504460F4951F812
:1022C00024000121FEF7F0FC6846FEF7E3FB0C4812
:1022D00030F824000B4931F82410084380B2ADF8DF
:1022E000000004208DF8030003208DF80200064949
:1022F00051F824006946FEF7F9FA38BD20010020A4
:1023000030010020400100201001002070B504467B
:10231000641E074850F82400808C00B245420449EE
:1023200051F824004FF6FF71FFF70AFD284670BDF3
:10233000F000002010B50446641E2046FFF7BCFFE5
:10234000204600F05FFA034951F824000121FFF70D
:1023500008FB10BDF00000201CB54FF4A060FEF794
:10236000DFFB01210846FEF79FFC01211F48FEF715
:1023700049FBFFF7D1FE4FF4E131032000F0E2FC0E
:102380004FF4E131022000F0BBFD0120FFF7D2FF46
:102390000220FFF7CFFF012000210B460A46CDE9BE
:1023A00000101348FEF750FC012000210B460A469E
:1023B000CDE900100F48FEF747FC012000210B4635
:1023C0000A46CDE900100C48FEF73EFC0120002132
:1023D0000B460A46CDE900100848FEF735FC00F030
:1023E00047F80A2000F00CF800BFFEE700023000BA
:1023F000780C0020940C0020B00C0020CC0C0020A5
:1024000010B50446204600F0D7F9012211460548D0
:10241000FFF745FB00F008F801210248FFF7A1FA99
:1024200010BD00000008004008B51E208DF8000017
:1024300001208DF8030002208DF801008DF80200C4
:102440006846FEF735FB08BD38B504460748005D11
:102450008DF8000001208DF801008DF802008DF844
:1024600003006846FEF724FB38BD0000AC000020E6
:1024700008B501210820FEF717FC10208DF8030095
:102480004FF47040ADF8000003208DF8020069465B
:102490000348FEF72BFA0A2000F026F908BD0000D9
:1024A000000C014070B504460D46424801682046C4
:1024B000FDF74CFE3F49086029463F480068FDF79C
:1024C00045FE3D4908603D493A480068FEF74EF830
:1024D00003D23A483749086008E03949354800686E
:1024E000FEF73AF802D2364832490860334932489A
:1024F0000068FEF73BF803D230482F49086008E037
:102500002F492D480068FEF727F802D22C482A49A7
:102510000860002127480068FEF71EF810D200204E
:102520002849086001202849C1F8B80121480068FD
:10253000FDF7E1FF86B231462448FFF7FCFB0FE0D0
:1025400001202049086000201F49C1F8B80119483E
:102550000068FDF7D0FF86B231461C48FFF7EBFB61
:10256000002115480068FDF7F7FF11D2002015493A
:102570000C39086001201449C1F8B4010E48006804
:10258000FDF7B9FF86B231461048FFF7D6FB10E0E1
:1025900001200C490C39086000200B49C1F8B40136
:1025A00005480068FDF7A7FF86B231460748FFF7E8
:1025B000C4FB70BD500100205401002000C0DA456A
:1025C00000C0DAC5BC81214200802142002C0140BC
:1025D00070B504460D463D4804603D4805603D49E0
:1025E0003A480068FDF7C2FF03D23A48374908600D
:1025F00008E0394935480068FDF7AEFF02D2364899
:1026000032490860334932480068FDF7AFFF03D212
:1026100030482F49086008E02F492D480068FDF731
:102620009BFF02D22C482A490860002127480068F5
:10263000FDF792FF10D200202849086001202849A8
:10264000C1F8B80121480068FDF755FF86B2314650
:102650002448FFF770FB0FE00120204908600020AC
:102660001F49C1F8B80119480068FDF744FF86B258
:1026700031461C48FFF75FFB002115480068FDF755
:102680006BFF11D2002015490C3908600120144954
:10269000C1F8B4010E480068FDF72DFF86B231463F
:1026A0001048FFF74AFB10E001200C490C39086084
:1026B00000200B49C1F8B40105480068FDF71BFF75
:1026C00086B231460748FFF738FB70BD5001002045
:1026D0005401002000C0DA4500C0DAC5BC812142A7
:1026E00000802142002C014010B588B00446012131
:1026F00040F60400FEF7D8FA18208DF803004FF4D6
:102700001060ADF8000003208DF8020069462848EB
:10271000FEF7ECF841F61F40ADF8180004EB84001A
:102720004000401E80B2ADF814000020ADF8160045
:10273000ADF81A0005A91F48FFF730FB6020ADF87F
:1027400004000020ADF80C00ADF80E000120ADF83B
:1027500006000020ADF80800ADF80A00ADF8100042
:10276000ADF8120001A91348FFF7A2F901A9114819
:10277000FFF7F4F901A90F48FFF742FA01A90D4844
:10278000FFF78EFA08210B48FFF7DEF90821094808
:10279000FFF7C4FA01210748FFF7EFF801210548C8
:1027A000FFF7D0F801210348FFF7DBF808B010BDB0
:1027B00000080140002C01403EB5044601210420E0
:1027C000FEF762FA40F2CF20ADF80000642104FB6E
:1027D00001F0401E80B2ADF804000020ADF8020008
:1027E000ADF8060069460548FFF7D8FA642104FBF6
:1027F00001F0401E024908803EBD00000008004074
:102800001800002010B586B00446032C04D1012125
:102810004803FEF749FA05E0184951F82400012160
:10282000FEF732FA03A8FFF70BFB0020ADF80C000F
:102830004FF6FF70ADF810000020ADF81200ADF8B3
:102840000E000F4951F8240003A9FFF7A7FA0C491D
:1028500051F8240000231A460321FFF79DF868462B
:10286000FFF714F90020ADF80800054951F82400DD
:102870006946FFF7B5F806B010BD00000001002062
:10288000F00000202DE9F04F044609AD95E8E01076
:10289000DDE90E9ADDF83480601EDFF808B35BF8DE
:1028A00020007E287ED131B1601EDFF8FCB20BEB38
:1028B000C0104078087032B1601EDFF8ECB20BEB4C
:1028C000C0108078107033B1601EDFF8DCB20BEB03
:1028D000C010C078187035B1601EDFF8CCB20BEBB9
:1028E000C0104068286036B1601EDFF8BCB20BEB48
:1028F000C0108068306037B1601EDFF8ACB20BEBFF
:10290000C010C0683860BCF1000F07D0601EDFF84F
:1029100098B20BEBC0100069CCF80000B8F1000FC2
:1029200007D0601EDFF880B20BEBC0104069C8F81A
:102930000000B9F1000F07D0601EDFF86CB20BEB9E
:10294000C0108069C9F80000BAF1000F07D0601EFE
:10295000DFF854B20BEBC010C069CAF80000109841
:1029600048B1601EDFF840B20BEBC010D0F820B0C9
:102970001098C0F800B0119848B1601EDFF828B276
:102980000BEBC010D0F824B01198C0F800B012982A
:1029900058B1601EDFF810B20BEBC010D0F828B0B1
:1029A000129800E0FBE0C0F800B0139848B1601E38
:1029B000DFF8F4B10BEBC010D0F82CB01398C0F8CE
:1029C00000B0149848B1601EDFF8DCB10BEBC0100A
:1029D000D0F830B01498C0F800B0159848B1601E17
:1029E000DFF8C4B10BEBC010D0F834B01598C0F8C4
:1029F00000B0169848B1601EDFF8ACB10BEBC01008
:102A0000D0F838B01698C0F800B0179848B1601EDA
:102A1000DFF894B10BEBC010D0F83CB01798C0F8B9
:102A200000B0189848B1601EDFF87CB10BEBC01005
:102A3000D0F840B01898C0F800B0199848B1601E9E
:102A4000DFF864B10BEBC010D0F844B01998C0F8AF
:102A500000B01A9848B1601EDFF84CB10BEBC01003
:102A6000D0F848B01A98C0F800B01B9848B1601E62
:102A7000DFF834B10BEBC010D0F84CB01B98C0F8A5
:102A800000B01C9848B1601EDFF81CB10BEBC01001
:102A9000D0F850B01C98C0F800B01D9848B1601E26
:102AA000DFF804B10BEBC010D0F854B01D98C0F89B
:102AB00000B01E9848B1601EDFF8ECB00BEBC01000
:102AC000D0F858B01E98C0F800B01F9848B1601EEA
:102AD000DFF8D4B00BEBC010D0F85CB01F98C0F892
:102AE00000B0209848B1601EDFF8BCB00BEBC010FE
:102AF000D0F860B02098C0F800B0219848B1601EAE
:102B0000DFF8A4B00BEBC010D0F864B02198C0F887
:102B100000B0229848B1601EDFF88CB00BEBC010FB
:102B2000D0F868B02298C0F800B0239848B1601E71
:102B3000DFF874B00BEBC010D0F86CB02398C0F87D
:102B400000B0249848B1601EDFF85CB00BEBC010F9
:102B5000D0F870B02498C0F800B0259848B1601E35
:102B6000DFF844B00BEBC010D0F874B02598C0F873
:102B700000B0269848B1601EDFF82CB00BEBC010F7
:102B8000D0F878B02698C0F800B04FF0000B601E67
:102B9000DFF810E04EF820B00120BDE8F08F0020F3
:102BA000FBE70000740A0020740800202DE9F84FAC
:102BB00004460E4617469846DDE90AAB601E60499A
:102BC00001EBC010451C4FF000097B200090601EF7
:102BD00001EBC0104670601E01EBC0108770601ED4
:102BE00001EBC01080F80380601E01EBC010C0F83C
:102BF00004A0601E01EBC010C0F808B0611E504A6E
:102C000002EBC1110C98C860611E02EBC1110D9856
:102C10000861611E02EBC1110E984861611E02EB52
:102C2000C1110F988861611E02EBC1111098C86133
:102C3000611E02EBC11111980862611E02EBC11105
:102C400012984862611E02EBC11113988862611EDE
:102C500002EBC1111498C862611E02EBC1111598F4
:102C60000863611E02EBC11116984863611E02EBF6
:102C7000C11117988863611E02EBC1111898C863CF
:102C8000611E02EBC11119980864611E02EBC111AB
:102C90001A984864611E02EBC1111B988864611E7A
:102CA00002EBC1111C98C864611E02EBC1111D9892
:102CB0000865611E02EBC1111E984865611E02EB9A
:102CC000C1111F988865611E02EBC1112098C8656B
:102CD000611E02EBC11121980866611E02EBC11151
:102CE00022984866611E02EBC11123988866611E16
:102CF00002EBC1112498C866611E02EBC111259830
:102D00000867611E02EBC11126984867611E02EB3D
:102D1000C1112798886705E015F8011B01EB090030
:102D200000F0FF090098411E89B200910028F3D1FC
:102D300085F80090204600F069F9BDE8F88F0000A2
:102D4000740600203EB504460D46601E104901EB96
:102D500080007E22611E0F4B03EBC111CDE90012F2
:102D60000290601E0C4901EBC0127E2329462046CA
:102D700000F0EEF8A521601E074A02EBC0100170BA
:102D80005A21601E02EBC01080F87D103EBD00008D
:102D9000740A002074080020740600202DE9F04F0A
:102DA0008DB004460F4690469946DDE916AB2821C2
:102DB00003A8FDF7C0F9002600250020029001209D
:102DC0000190601E4C4951F8200000287ED000BFC1
:102DD0004AE0601E00EBC00101EB0010474901EB27
:102DE0004000405D392823DC601E00EBC00101EB90
:102DF0000010424901EB4000405D302818DB03A879
:102E000050F8260000EB80004200601E00EBC0017D
:102E100001EB0010394901EB4000405D3038019969
:102E200000FB012003A941F82600012002901AE0CE
:102E3000601E00EBC00101EB0010304901EB4000C7
:102E4000405D2D2803D14FF0FF3001900BE00120B1
:102E500001900298012803D1701CC6B20020029094
:102E60000A2E00D106E06D1C601E234951F8200097
:102E7000A842AEDC00BF0FB103983860B8F1000F74
:102E800002D00498C8F80000B9F1000F02D00598EC
:102E9000C9F80000BAF1000F02D00698CAF8000085
:102EA000BBF1000F02D00798CBF80000189810B1C2
:102EB000089918980160199810B10999199801603A
:102EC0001A9810B10A991A98016000E012E01B9854
:102ED00010B10B991B9801601C9810B10C991C98AB
:102EE00001600021601E044A42F8201001200DB04C
:102EF000BDE8F08F0020FAE72C0C0020640B0020C6
:102F00003EB504460D46601E0E4901EB800032229C
:102F1000611E01EBC10303EB01110B4B03EB4101FC
:102F2000CDE900120290601E00EB800101EBC000B1
:102F3000064901EB800234232946204600F008F8B8
:102F40003EBD00002C0C0020640B0020840A0020F1
:102F50002DE9F04704460D4616461F46DDE9099A5D
:102F6000DDF82080641E204840F824501F4840F8B7
:102F700024601F4840F824801E4840F824701E48F2
:102F800040F824901D4840F824A02046FFF75CFA42
:102F90001B4850F8240010B12046FFF71DF91948CE
:102FA00050F8240010B12046FFF7D8F8204600F072
:102FB00053F82046FFF746F9134951F8240001223F
:102FC00040F22441FEF7A2FF0F4951F824000122EC
:102FD000C021FEF768FF0C4951F824000121FEF7DB
:102FE00056FFBDE8F0870000FC0500201006002019
:102FF00038060020240600204C0600206006002031
:10300000C8000020DC0000202000002010B504468D
:10301000641E0F4951F82400FDF7E8FB08B100BF1A
:10302000FEE70B4951F824000021FDF7D3FB094AC4
:1030300032F8242091B2064A52F82400FDF7F8FB3A
:10304000034951F824000121FDF7C4FB10BD000025
:10305000C8000020240600201FB50446114951F87D
:1030600024000121FDF720FE0F4951F82400012121
:10307000FDF70AFE0D4850F8240000900C20ADF832
:103080000A000020ADF80400ADF80800ADF8060015
:10309000ADF80C00064951F824006946FEF75CFFC4
:1030A0001FBD00004800002034000020FC05002067
:1030B00020000020D43000080000002000020000A2
:1030C0000C0700087031000800020020380F0000D3
:1030D00008210008412D0102030404D00906070855
:1030E000090204060814380140124412401A480428
:1030F000D13202A204D91E511A083C29041A0C0428
:103100007129322904B965194B394A994F290C396B
:10311000249929542526279A01048112441C02402F
:1031200080041A1C04811A580C1A6C049A30143941
:10313000AA1A04041A0C042C3401404429CA396721
:103140009A20B429046C100140B029045A10742943
:103150004D6908293C9A8008B9D7AA02A201832B9D
:10316000A24AC7510009000102030406070809002A
:04000005080000ED02
:00000001FF
