:020000040800F2
:10000000B04C002049010008450A00083D0A0008DC
:10001000410A0008FB060008F11A00080000000071
:10002000000000000000000000000000E90C0008D3
:10003000CD07000800000000B10B0008FD0D00080E
:100040006301000863010008630100086301000800
:100050006301000863010008D107000801080008D7
:100060001908000831080008490800086301000861
:1000700063010008630100086301000863010008D0
:1000800063010008630100086301000863010008C0
:1000900063010008630100086301000861080008AB
:1000A00063010008630100086301000863010008A0
:1000B0006301000863010008630100086301000890
:1000C0006301000863010008630100086301000880
:1000D00063010008511800085B1800086518000843
:1000E000E9070008630100086301000863010008D4
:1000F0006301000863010008630100086301000850
:10010000630100086301000863010008630100083F
:100110004718000863010008A110000863010008E7
:10012000630100086301000863010008630100081F
:10013000DFF810D000F0A4FA00480047811D000845
:10014000AFF30080B04C00200648804706480047C7
:10015000FEE7FEE7FEE7FEE7FEE7FEE7FEE7FEE777
:10016000FEE7FEE7010E000831010008F0B480EA66
:100170000102D40F4200B2EB410F02D20246084600
:1001800011464A0042D0C30DDDB2C1F3C752AD1AC9
:10019000202D35DAC1F3160141F4000204B15242B8
:1001A000C5F1200602FA06F12A411044B3EBD05FF4
:1001B00023D0C4B1012DA0EBC35009DCF0BC4FF03B
:1001C000004202EAC352DBB200F5000000F0CCB9F5
:1001D000400000F1807000EBC350A0F1807040EA55
:1001E000D170490009E0490841EAC071A0EBC35051
:1001F00000F50000400800EBC350F0BC00F0ABB9C4
:100200006142012202EB4101001BF6E7F0BC70479E
:1002100081F00041AAE780F00040A7E780EA0102F0
:1002200010B502F00043400022D04A001FD0010E5A
:1002300001EB1261C0F35600C2F3560240F4000015
:1002400042F40002A0FB022000047F39140400D015
:10025000401C50EA124001D44000491EC2B20C06B4
:1002600004EBD010401C4008802A02D003E000209C
:1002700010BD20F00100002900DA0020184310BD55
:100280002DE9FE4F81EA030404F0004421F000410F
:1002900000944FF0000B23F0004350EA01045ED0BD
:1002A00052EA03045BD0C3F30A54C1F30A552C4449
:1002B000A4F2F3340194A0FB0254C1F3130141F4FE
:1002C0008011C3F3130343F4801301FB024400FBCA
:1002D000034E840A970A44EA815447EA8357A4FBF1
:1002E000076802958D0A05FB07854FEA932C04FBEE
:1002F0000C542705029D4FEA065847EA1637B5EB1E
:1003000008056EEB070C870E920E47EA811742EA4A
:100310008312A7FB0201B6EB0B0164EB00042B0D6B
:1003200043EA0C335E1844EB1C50DA465146E7FBB7
:100330000201C5F313044FEA0B3343EA14534FEAA7
:100340000432019C43EA0603A4F10C040294009CCD
:10035000CDE900B400F045F903B0BDE8F08F00200E
:100360000146F9E72DE9F04D81EA030404F0004B62
:1003700021F0004514464FF0000A23F0004150EAF6
:10038000050220D054EA01021DD0C5F30A570246E7
:10039000C5F31303C1F31300C1F30A5640F48015EB
:1003A00043F48013A7EB0608101BD64608F2FD386D
:1003B00073EB050002D308F1010801E092185B41DC
:1003C000B8F1000F03DA00200146BDE8F08D0020EF
:1003D0004FF48011064684460EE0171B73EB0507A9
:1003E00005D3121B63EB050306434CEA010C4908D5
:1003F0004FEA300092185B4150EA0107EDD152EA12
:10040000030012D082EA040083EA0501084305D004
:10041000101BAB4106D20122002306E000224FF060
:10042000004302E06FF0010253101AEB06004CEBA0
:10043000085110EB0A0041EB0B01BDE8F04D00F054
:10044000C1B8C10F80EAE0700844CA0796230021B2
:1004500000F08AB80EB5C10F80EAE0700844CA0700
:10046000002140F233438DE80E000A460B4600F0AF
:10047000B8F803B000BD0EB540F23341029100213F
:10048000CDE900110A460B4600F0ABF803B000BD01
:1004900020F00040C10DC0F3160040F400007F2999
:1004A00001DA00207047962903DCC1F19601C840AB
:1004B000704796398840704701F0004330B421F00E
:1004C000004150EA010206D00A0DA2F56072C1F3A4
:1004D0001301002A02DC30BC00207047440F44EABC
:1004E000C104C100E01830BC00EBC25000F033B8CA
:1004F000002801DBC0F10040002901DBC1F100410F
:1005000081427047002801DBC0F10040002901DB77
:10051000C1F1004188427047202A04DB203A00FAEA
:1005200002F1002070479140C2F1200320FA03F34A
:10053000194390407047202A04DB203A21FA02F048
:100540000021704721FA02F3D040C2F1200291400D
:100550000843194670470029A8BF7047401C49004E
:1005600008BF20F00100704710B4B0FA80FC00FA18
:100570000CF050EA010404BF10BC704749B1CCF143
:10058000200421FA04F411FA0CF118BF01212143CF
:100590000843A3EB0C01CB1D4FEA00614FEA10208A
:1005A00042BF002010BC704700EBC350104400292C
:1005B000A4BF10BC7047401C490008BF20F00100D8
:1005C00010BC704710B5141E73F1000408DA401C0B
:1005D00041F1000192185B411A4301D120F0010062
:1005E00010BD2DE9F04D92469B4611B1B1FA81F252
:1005F00002E0B0FA80F220329046FFF78DFF044609
:100600000F4640EA0A0041EA0B0153465A460843A6
:1006100013D0114653EA010019D0C8F140025046E8
:10062000FFF789FF05460E46504659464246FFF7FA
:1006300073FF084305D0012004E020463946BDE899
:10064000F08D0020054346EAE0762C4337430A98B4
:100650006305E40AA0EB08000022FD0A44EA4754BF
:100660000A3002D500200146E9E701051019694169
:10067000DDE9084500196941BDE8F04DA2E7000039
:10068000064C074D06E0E06840F0010394E80700DF
:1006900098471034AC42F6D3FFF74EFDB82A000855
:1006A000D82A000870B58C1810F8015B15F0070304
:1006B00001D110F8013B2A1106D110F8012B03E0FB
:1006C00010F8016B01F8016B5B1EF9D12B0705D403
:1006D0000023521E0DD401F8013BFAE710F8013B4C
:1006E000CB1A921C03E013F8015B01F8015B521E68
:1006F000F9D5A142D8D3002070BD00BFFEE70000AD
:100700002DE9FC470F480088FFF7B5FE04460D466B
:100710000D4800F040FE0D490988A0EB010A504643
:10072000FFF798FE06460022094BFFF7A9FD804619
:1007300022462B46FFF716FECDE90001FFF7BCFE6F
:10074000BDE8FC8718000020001000401A000020BF
:100750000000594010B5034800F01DFE0249088012
:1007600010BD0000001000401A00002021B10268F6
:1007700042F00102026004E002684FF6FE731A4084
:10078000026070470146486880B2704710B5002289
:10079000026847F6F0739A430C6A8B6823430C692E
:1007A00023434C6923438C692343CC6923434C6A1C
:1007B00023438C6A23431A430260CB6843600B686F
:1007C00083604B68C36010BD416070477047000094
:1007D00010B5034800F050F802480068804710BD8B
:1007E000FFFF0F001C00002010B5034800F044F884
:1007F00002480068804710BDFFFF0F001C0000206A
:1008000010B5034800F038F802480068804710BD72
:10081000FFFF0F001C00002010B5034800F02CF86B
:1008200002480068804710BDFFFF0F001C00002039
:1008300010B5034800F020F802480068804710BD5A
:10084000FFFF0F001C00002010B5034800F014F853
:1008500002480068804710BDFFFF0F001C00002009
:1008600010B5034800F008F802480068804710BD42
:10087000FFFF0F001C0000200149086070470000C6
:10088000140401402DE9F041024600250026002015
:1008900000230024002791F803C00CF00F0591F805
:1008A00003C00CF0100CBCF1000F03D091F802C093
:1008B0004CEA050591F800C0BCF1000F31D0146876
:1008C00000202BE04FF0010C0CFA00F3B1F800C04F
:1008D0000CEA03069E4220D183004FF00F0C0CFA65
:1008E00003F7BC4305FA03FC4CEA040491F803C087
:1008F000BCF1280F06D14FF0010C0CFA00FCC2F835
:1009000014C00AE091F803C0BCF1480F05D14FF0C4
:10091000010C0CFA00FCC2F810C0401C0828D1D30E
:100920001460B1F800C0BCF1FF0F34DD5468002042
:100930002EE000F1080C4FF0010808FA0CF3B1F8B2
:1009400000C00CEA03069E4221D183004FF00F0C39
:100950000CFA03F7BC4305FA03FC4CEA040491F8D3
:1009600003C0BCF1280F05D100F1080C08FA0CF8FF
:10097000C2F8148091F803C0BCF1480F07D100F110
:10098000080C4FF0010808FA0CF8C2F81080401C5F
:100990000828CED35460BDE8F0810000F0B50A46C7
:1009A000002300240021002500F00046B6F1004F8E
:1009B00002D11D4EF16901E01B4E7168C0F3034581
:1009C00083B200F44016B6F5401F08D121F07061E3
:1009D000154E766826F07066134F7E6012E000F4C4
:1009E0008016B6F5801F06D1032606FA05F4A1434A
:1009F00041F0706106E0460D360103FA06F6B14398
:100A000041F0706122B1460D360103FA06F631431A
:100A100000F00046B6F1004F02D1034EF16101E053
:100A2000014E7160F0BD0000000001404FF6FF7103
:100A30000180022181700421C170704700BFFEE770
:100A400000BFFEE77047000070B5002100230F22B1
:100A5000C47804B3154C246804F4E064C4F5E0647D
:100A6000210AC1F10403CA40447804FA03F18478EE
:100A70001440214309010E4C0678A155047804F076
:100A80001F050124AC4005786D11AD0005F1E0258E
:100A9000C5F8004109E0047804F01F050124AC40CA
:100AA000044D0678761145F8264070BD0CED00E047
:100AB00000E400E080E100E002490143024A1160E5
:100AC000704700000000FA050CED00E02DE9F84F3A
:100AD00004460F46164639463046FFF799FB054651
:100AE00029466069FFF742FB60612846E168FFF72D
:100AF0008FFB8346A168FFF791FB814661696068BF
:100B0000FFF78CFB834629462068FFF787FB594691
:100B10000090FFF72BFB82464946FFF727FB8046F4
:100B2000E5604046BDE8F88F2DE9FC5F04460F46BE
:100B3000164639463046FFF76BFB05464FF08040BE
:100B4000E168FFF76BFB29460090FFF764FB8346E3
:100B50002169FFF70BFB8246A168FFF75FFB814627
:100B600029466068FFF75AFB00902846E168FFF7C6
:100B70004FFB83462168FFF751FB82460099FFF740
:100B8000F5FA49460190FFF7F1FA8046E0682061E6
:100B9000E5604046BDE8FC9F30B5039C0160836082
:100BA0004260012C03D10025C5600561456130BD5F
:100BB0007047000029B1064A52690243044B5A614A
:100BC00004E0034A52698243014B5A6170470000B6
:100BD0000010024029B1064AD2690243044BDA618F
:100BE00004E0034AD2698243014BDA617047000096
:100BF0000010024029B1064A92690243044B9A61EF
:100C000004E0034A92698243014B9A6170470000F5
:100C10000010024030B500210022002400232D4D99
:100C20006D6805F00C0121B1042905D0082923D1F4
:100C300005E0294D056022E0274D05601FE0254DA8
:100C40006D6805F47012234D6D6805F4803402253B
:100C500005EB92421CB9214D554305600BE01D4D3B
:100C60006D6805F400351DB11C4D5543056002E06B
:100C7000194D5543056002E0174D056000BF00BFE8
:100C8000144D6D6805F0F0010909154D6B5C0568A0
:100C9000DD4045600F4D6D6805F4E061090A104DB7
:100CA0006B5C4568DD4085600A4D6D6805F46051F8
:100CB000C90A0B4D6B5C4568DD40C560054D6D682C
:100CC00005F44041890B074D6B5CC568B5FBF3F536
:100CD000056130BD0010024000127A0000093D009D
:100CE0000000002010000020704710B500F002F84E
:100CF00010BD00000CB50020019000903348006842
:100D000040F480303149086000BF3048006800F48A
:100D1000003000900198401C0190009818B901988B
:100D2000B0F5A06FF1D12948006800F4003010B18F
:100D30000120009001E0002000900098012843D19C
:100D40002348006840F01000214908600846006808
:100D500020F0030008600846006840F002000860C8
:100D60001A48406819494860084640684860084683
:100D7000406840F4806048600846406820F47C1079
:100D800048600846406840F4E8104860084600683B
:100D900040F08070086000BF0C48006800F00070F0
:100DA0000028F9D00948406820F00300074948604E
:100DB0000846406840F00200486000BF03484068B1
:100DC00000F00C000828F9D10CBD00000010024012
:100DD00000200240042808D14FF0E021096941F0C9
:100DE00004014FF0E022116107E04FF0E0210969B2
:100DF00021F004014FF0E0221161704770470000BC
:100E000010B51348006840F0010011490860084619
:100E10004068104908400E494860084600680E497D
:100E200008400B4908600846006820F480200860EC
:100E30000846406820F4FE0048604FF41F008860B8
:100E4000FFF753FF4FF000600449086010BD000039
:100E5000001002400000FFF8FFFFF6FE08ED00E082
:100E6000F0B50C46154600220021068C4FF6FE77A1
:100E70003E400684028B018C4FF60C7632407E1C7D
:100E800006EA03162E433243104EB0420ED0104EE7
:100E9000B0420BD0B0F1804F08D00E4EB04205D01A
:100EA0000D4EB04202D00D4EB04206D14FF6FD7647
:100EB000314044F00106314305E04FF6F57631400C
:100EC00044F00106314302830184F0BD002C01404F
:100ED000003401400004004000080040000C0040C5
:100EE000F0B50C461546002200210026078C4FF66F
:100EF000EF7C07EA0C070784028B018C4FF6FF7723
:100F000007EA041640F6FF473A404FF6FF7707EA34
:100F100003373A434FF6FF7707EA05273A43114F65
:100F2000B8420ED0104FB8420BD0B0F1804F08D06D
:100F30000E4FB84205D00E4FB84202D00D4FB84206
:100F400006D14FF6DF77394046F01007394305E008
:100F50004FF65F77394044F010073943028301842C
:100F6000F0BD0000002C01400034014000040040AE
:100F700000080040000C0040F0B50C461546002269
:100F800000210026078C4FF6FF6C07EA0C07078448
:100F9000828B018C4FF6FF7707EA04264FF60C7719
:100FA0003A404FF6FF7707EA03172F433A43114FB2
:100FB000B8420ED0104FB8420BD0B0F1804F08D0DD
:100FC0000E4FB84205D00E4FB84202D00D4FB84276
:100FD00006D14FF6FF57394046F48077394305E094
:100FE0004FF2FF57394044F48077394382830184BC
:100FF000F0BD0000002C014000340140000400401E
:1010000000080040000C0040F0B50C4615460022D8
:1010100000210026078C4EF6FF7C07EA0C070784A8
:10102000828B018C4FF6FF7707EA043640F6FF47C4
:101030003A404FF6FF7707EA05273A434FF6FF7726
:1010400007EA03373A43114FB8420ED0104FB84267
:101050000BD0B0F1804F08D00E4FB84205D00E4FE4
:10106000B84202D00D4FB84206D14DF6FF77394055
:1010700046F48057394305E047F6FF57394044F4BA
:101080008057394382830184F0BD0000002C014069
:10109000003401400004004000080040000C004003
:1010A0002DE9F0439FB0002500260027A846A94659
:1010B000FFF750FB0121734800F02EF972480068D9
:1010C000632801DB002002E06F480068401C6E4985
:1010D000086000201A901B901C901D90169017908D
:1010E00018901990129013901490684B1590CDE9B8
:1010F0000E301090119066486649674A674BCDE9FB
:101100000A32CDE90C1000206549664A664BCDE9EC
:101110000632CDE9081065480021654A654BCDE9E6
:101120000232CDE904106448644900231A46CDE92F
:1011300000101946022001F081F9012000F0FAFDAB
:10114000441C2046FFF77DF95D490860022000F04D
:10115000F1FD441C2046FFF774F95A4908605048D5
:10116000016859480068FFF7CDF909D34C48006879
:1011700080F00044544801682046FFF7C3F908D2C4
:1011800052480268504801685148FFF79FFC514996
:1011900008603F48016850480068FFF7B3F909D379
:1011A0003B48006880F000444B4801682046FFF748
:1011B000A9F908D235480268474801684748FFF74F
:1011C00085FC47490860474802683D480168464831
:1011D000FFF7AAFC4549086045480268394801689C
:1011E0004448FFF7A1FC4449086000231A4608461A
:1011F00001683E48006800F095FF4049002000F07B
:10120000E3FE2149086800EBD0714910A0EB4101D1
:10121000002933D1FFF774FA044600201A901B907E
:101220001C901D9016901790189019901290139082
:10123000149015900E900F90109011900A900B90B2
:101240000C902D4A0D901268CDE907400692099046
:1012500026480022016826480068224B1B68CDE919
:101260000230CDE904211748006815490968134682
:10127000CDE900101146022001F074FA1FB0BDE85C
:10128000F083000000100040B001002004020020A4
:101290000C02002000020020FC010020F8010020C8
:1012A000F0010020E4010020E0010020DC0100202A
:1012B000C8010020BC010020B8010020B4010020BA
:1012C000CC010020D0010020EC010020E80100202A
:1012D000800C0020F401002008020020980C00205F
:1012E00010020020C0010020500C0020D40100207A
:1012F000C4010020680C0020D801002000002F4508
:1013000021B1028842F08002028004E002884FF698
:101310007F731A4002807047CA430282704721B12E
:10132000028842F00102028004E002884FF6FE7358
:101330001A400280704731B1B0F8442042F40042B4
:10134000A0F8442005E0B0F84420C2F30E02A0F853
:1013500044207047F0B50C4615461E460021002279
:1013600000230189028B038C4FF6F8773940214323
:101370004FF6FC473A4040F201173A434FF6DD770B
:101380003B404FF6FF7707EA06172F433B430181A7
:1013900002830384F0BD0146888C704770B5054612
:1013A0000C46244885420ED0234885420BD0B5F127
:1013B000804F08D02148854205D02148854202D07F
:1013C0002048854200D100E000BF208850B9238921
:1013D000A28861882846FFF743FDE188284600F08F
:1013E000ABF925E0208804280AD12389A2886188E6
:1013F0002846FFF775FDE188284600F0A6F917E0BA
:10140000208808280AD12389A28861882846FFF706
:10141000B3FDE188284600F0A5F909E02389A288F8
:1014200061882846FFF7F0FDE188284600F0A3F91F
:1014300070BD0000002C0140003401400004004059
:1014400000080040000C0040002101804180012183
:1014500081800021C180018170471AB183890B43CB
:10146000838102E083898B438381704770B50024B8
:1014700000220023058C4FF6FE7635400584028C51
:101480008388048B4FF68F752C40B51E2C400D8839
:101490002C43751E2A400D892A434D882A43144D3A
:1014A000A8420BD0134DA84208D0134DA84205D036
:1014B000124DA84202D0124DA84213D14FF6F77533
:1014C0002A404D892A434FF6FB752A408D882A43CE
:1014D0004FF6FF652B404FF6FF552B408D892B4370
:1014E000CD892B4383800483CD888586028470BD9B
:1014F000002C014000340140004001400044014004
:10150000004801400A460021018B4FF6F77319404D
:10151000114301837047000070B5002400220023AE
:10152000058C4FF6EF7635400584028C8388048B5A
:1015300048F6FF752C404FF6FF452C400D884FF6BE
:10154000FF7606EA05252C434FF6DF752A400D8904
:1015500006EA05152A434D8806EA05152A43154D66
:10156000A84202D0144DA8421DD14FF67F752A40E3
:101570004D894FF6FF7606EA05152A434FF6BF75EB
:101580002A408D8806EA05152A434FF6FF352B4081
:101590004FF2FF752B408D8906EA85052B43CD89D7
:1015A00006EA85052B4383800483CD880587028462
:1015B00070BD0000002C0140003401400A460021AB
:1015C000018B4FF2FF7319404FF6FF7303EA0223BA
:1015D000194301837047000070B5002400220023E6
:1015E000058C4FF6FF6635400584028C8388848B1A
:1015F0004FF68F752C404FF6FC752C400D882C4310
:101600004FF6FF552A400D894FF6FF7606EA05256D
:101610002A434D8806EA05252A43154DA84202D0E3
:10162000144DA8421DD14FF2FF752A404D894FF647
:10163000FF7606EA05252A434FF6FF352A408D88B6
:1016400006EA05252A434EF6FF752B404DF6FF7539
:101650002B408D8906EA05152B43CD8906EA051531
:101660002B4383808483CD888587028470BD0000EE
:10167000002C0140003401400A460021818B4FF6C6
:10168000F7731940114381837047000070B5002241
:1016900000230024058C4EF6FF7635400584038C2C
:1016A0008488828B48F6FF752A404FF6FF452A4012
:1016B0000D884FF6FF7606EA05252A434DF6FF759D
:1016C0002B400D8906EA05352B434D8806EA053582
:1016D0002B430B4DA84202D00A4DA84208D14BF62D
:1016E000FF752C408D894FF6FF7606EA85152C4351
:1016F00084808283CD88A0F84050038470BD0000B0
:10170000002C0140003401400A460021818B4FF239
:10171000FF7319404FF6FF7303EA022319438183D5
:101720007047818670470187704781877047A0F8AE
:101730004010704781847047028B4FF6F3731A4054
:101740000283028B0A4302837047028B4FF2FF33FE
:101750001A400283028B4FF6FF7303EA01231A43F8
:1017600002837047828B4FF6F3731A408283828B19
:101770000A4382837047828B4FF2FF331A40828381
:10178000828B4FF6FF7303EA01231A43828370476B
:10179000002202881D4B98420ED01D4B98420BD060
:1017A000B0F1804F08D01B4B984205D01A4B98429D
:1017B00002D01A4B984204D14FF68F731A404B88CF
:1017C0001A43174B984207D0164B984204D04FF655
:1017D000FF431A40CB881A4302808B8883850B888D
:1017E00003850A4B98420BD0094B984208D00E4B08
:1017F000984205D00D4B984202D00D4B984201D132
:101800000B7A03860123838270470000002C01407D
:10181000003401400004004000080040000C00407B
:10182000001000400014004000400140004401400E
:10183000004801404FF6FF71818000210180C18086
:1018400041800172704710B5042000F0F5F810BD1A
:1018500010B5012000F0F0F810BD10B5022000F026
:10186000EBF810BD10B5032000F0E6F810BD10B580
:101870000022002340F66A14A14200D100BF0A12E0
:1018800001249440A3B2DC43048010BD21B18289BD
:1018900042F40052828104E082894DF6FF731A40BF
:1018A000828170471AB1838A0B43838202E0838A64
:1018B0008B438382704770B50246002400230025C5
:1018C000002040F66A16B14200D100BFC1F34215B4
:1018D00001F01F03012606FA03F3012D02D19689B8
:1018E000334006E0022D02D1168A334001E0968A89
:1018F00033400C12012606FA04F41688344013B162
:101900000CB1012000E0002070BDF0B503460024BA
:1019100000260025002040F66A17B94200D100BF1A
:101920001846C1F3421401F01F06012707FA06F515
:10193000012C01D10C3004E0022C01D1103000E068
:1019400014301AB107682F43076002E00768AF43FD
:101950000760F0BD2DE9F04786B005460E4600242D
:10196000A24600BFA1460027B08900B100BF2F46A4
:101970002C8A4CF6FF700440F08804432C82AC891A
:101980004EF6F3100440B08831890843718908434A
:101990000443AC81AC8A4FF6FF400440B089044355
:1019A000AC8201A8FFF736F91F48874202D1DDF863
:1019B00010A001E0DDF80CA0A88900F4004040B1BF
:1019C0000AEBCA0000EB0A1031684900B0FBF1F8DD
:1019D00007E00AEBCA0000EB0A1031688900B0FB8F
:1019E000F1F86420B8FBF0F004012009642101FB48
:1019F0001089A88900F4004040B1322000EBC900F2
:101A0000B0FBF1F000F00700044308E0322000EBE7
:101A100009106421B0FBF1F000F00F0004432C81A9
:101A200006B0BDE8F0870000003801400146888814
:101A3000C0F308007047000070B50446002600257A
:101A4000641E254951F8240040F22441FFF733FF7A
:101A5000002840D0204951F82400FFF7E7FF1F4934
:101A600051F824000021FEF781FE1C4951F82400A2
:101A7000FEF788FEC0F1C800C6B2194850F824002D
:101A8000066000BF0DE004EBC40000EB0410154934
:101A900001EBC000405D144951F824104855681C02
:101AA00085B2B54204DA114850F82400A842EAD8B9
:101AB000094951F8240040F22441FFF7D8FE0749B4
:101AC00051F82400C821FEF77FFE044951F8240094
:101AD0000121FEF74BFE70BD800000205001002068
:101AE00074060020280200204C060020600600201A
:101AF00000BFFEE702E008C8121F08C1002AFAD1A1
:101B000070477047002001E001C1121F002AFBD17D
:101B10007047000010B56FF00400FFF75BF90A484A
:101B200000680A49B0FBF1F00949087008460078DE
:101B300000EB4001C1EBC0104FF6FF7101EAC0009D
:101B40000449088010BD00001402002000127A0031
:101B5000140000201600002010B58CB0044619496E
:101B600051F824000121FFF725F804EBC40000EB35
:101B70000410154901EBC0000290144850F82400ED
:101B8000001D019000200390C820049000200890C0
:101B90008020069000200790059009904FF4005097
:101BA0000A9000200B900A4951F8240001A9FEF781
:101BB000EDFD074951F824000121FEF7D7FD0CB0D7
:101BC00010BD000028010020280200208000002015
:101BD0005001002010B58CB00446154951F824007E
:101BE0000121FEF7E7FF134850F824000290124845
:101BF00050F82400001D0190102003900020049054
:101C000008908020069000200790059009900A9087
:101C10000B900A4951F8240001A9FEF7B7FD0749C6
:101C200051F824000121FEF7A1FD0CB010BD000009
:101C30002801002024060020800000203C01002014
:101C400038B5044644B901210846FEF7D3FF012107
:101C50001648FEF7A3FE09E0012C07D10121084632
:101C6000FEF7C8FF01210803FEF798FE104951F85E
:101C700024000121FEF7BEFF6846FEF7D7FE0D489F
:101C800030F824000C4931F82410084380B2ADF834
:101C9000000004208DF8030003208DF8020007499E
:101CA00051F824006946FEF7EDFD38BD00081A0022
:101CB0005000002060000020700000204000002044
:101CC00038B50446164951F824000121FEF766FE96
:101CD000144951F824000121FEF78CFF124830F816
:101CE000240080B2ADF8000018208DF80300032016
:101CF0008DF802000D4951F824006946FEF7C2FD37
:101D00000B4830F8240080B2ADF8000004208DF8B4
:101D10000300064951F824006946FEF7B3FD38BDBB
:101D2000BC000020E4000020F8000020D0000020CB
:101D30000C01002070B50446641E074850F82400CA
:101D4000808C00B24542044951F824004FF6FF71DF
:101D5000FFF7F0FC284670BD2000002010B50446B7
:101D6000641E2046FFF76CFF204600F027FB034966
:101D700051F824000121FFF7D2FA10BD2000002005
:101D800008B54FF4A060FEF797FE01210846FEF764
:101D900031FF01211B48FEF701FEFFF7BBFE4FF4A8
:101DA000E131022000F0AAFD00F04AF80120FFF71F
:101DB000D5FF0220FFF7D2FF012000231A46194663
:101DC00000901148FEF7E8FE012000231A4619464C
:101DD00000900E48FEF7E0FE012000231A46194647
:101DE00000900B48FEF7D8FE012000231A46194642
:101DF00000900848FEF7D0FE0A2000F00DF800BF62
:101E0000FEE7000000023000500C0020680C0020AB
:101E1000800C0020980C002010B50446204600F0ED
:101E2000A7FA012211460548FFF717FB00F0A8F8B2
:101E300001210248FFF773FA10BD000000100040B6
:101E400010B5012000F09AF9012000F011FA10BD40
:101E500010B5002145480068FEF754FB0DD84348F3
:101E60000068FEF715FB84B221464148FFF759FC94
:101E700000213F48FFF757FC0CE000213C48FFF7EA
:101E800050FC3A480068FEF703FB84B2214638480C
:101E9000FFF749FC002137480068FEF733FB0DD8F7
:101EA00034480068FEF7F4FA84B221463048FFF760
:101EB0003CFC00212E48FFF73AFC0CE000212C48A6
:101EC000FFF733FC2B480068FEF7E2FA84B22146A4
:101ED0002748FFF72CFC002127480068FEF712FB7B
:101EE0000FD825480068FEF7D3FA84B221464FF098
:101EF0008040FFF716FC00214FF08040FFF713FCF5
:101F00000EE000214FF08040FFF70BFC1A480068FC
:101F1000FEF7BEFA84B221464FF08040FFF703FC83
:101F2000002116480068FEF7EDFA0FD81348006844
:101F3000FEF7AEFA84B221464FF08040FFF7F5FB82
:101F400000214FF08040FFF7F2FB0EE000214FF040
:101F50008040FFF7EAFB09480068FEF799FA84B26F
:101F600021464FF08040FFF7E2FB10BDA0010020AA
:101F7000002C0140A4010020A8010020AC01002099
:101F800008B536208DF8000001208DF803000220EE
:101F90008DF801008DF802006846FEF755FD08BD7A
:101FA00038B504460748005D8DF8000001208DF823
:101FB00001008DF802008DF803006846FEF744FD2D
:101FC00038BD00002001002070B504460D462946AA
:101FD0002046FEF797FA00D22C4685F000462146AF
:101FE0003046FEF78FFA01D285F0004484F00040BD
:101FF0003E49086084F000403D49086084F000409C
:102000003C49086084F000403B4908603B48016857
:1020100036480068FEF7AAF8394908603949384857
:102020000068FEF76FFA03D236483549086008E0C9
:10203000354933480068FEF75BFA02D2324830492E
:102040000860324801682A480068FEF78FF8304976
:1020500008602C492E480068FEF754FA03D229483C
:102060002B49086008E0284929480068FEF740FA33
:1020700002D2254826490860264801681D480068A4
:10208000FEF774F8244908601E4923480068FEF7EB
:1020900039FA03D21B482049086008E01A491E4853
:1020A0000068FEF725FA02D217481B4908601B4852
:1020B000016811480068FEF759F81949086011498C
:1020C00017480068FEF71EFA03D20E48144908604C
:1020D00008E00D4912480068FEF70AFA02D20A48E1
:1020E0000F490860FFF7B4FE70BD000090010020AA
:1020F00094010020980100209C0100208001002014
:10210000A001002000C0DA4500C0DAC5840100202B
:10211000A401002088010020A80100208C010020DB
:10212000AC0100202DE9F04106460F4614461D463D
:102130000E4801683046FEF719F80C490860394628
:102140000B480068FEF764F8094908602146094811
:102150000068FEF75DF807490860294606480068F0
:10216000FEF704F804490860BDE8F0818001002012
:1021700084010020880100208C01002010B588B067
:10218000044601214FF40460FEF734FD01210846A6
:10219000FEF730FD01213348FEF700FC18208DF8D2
:1021A00003004FF4D440ADF8000003208DF8020086
:1021B00069462D48FEF766FB41F61F40ADF8180052
:1021C00004EB84004000401E80B2ADF814000020F3
:1021D000ADF81600ADF81A0005A92448FFF7D8FAA3
:1021E0006020ADF804000020ADF80C00ADF80E0042
:1021F0000120ADF806000020ADF80800ADF80A0097
:10220000ADF81000ADF8120001A91848FFF72EF93B
:1022100001A91648FFF780F901A91448FFF7DCF976
:1022200001A91248FFF732FA08211048FFF76AF9AE
:1022300008210E48FFF7C2F908210C48FFF71CFAE5
:1022400008210A48FFF760FA01210848FFF773F8F0
:1022500001210648FFF754F801210448FFF75FF811
:1022600008B010BDC000160000180140002C01404D
:1022700010B588B0044601210846FEF7ABFC0121E9
:102280000D20FEF7B7FC01213648FEF787FB18202A
:102290008DF803004FF40040ADF8000003208DF8E6
:1022A000020069463048FEF7EDFA18208DF8030069
:1022B00040F60840ADF8000003208DF802006946A2
:1022C0002A48FEF7DFFA41F61F40ADF8180004EB8C
:1022D00084004000401E80B2ADF814000020ADF82C
:1022E0001600ADF81A0005A94FF08040FFF750FA2C
:1022F0006020ADF804000120ADF806000020ADF824
:102300000A00ADF80C0001A94FF08040FFF7AEF8CD
:1023100001A94FF08040FFF7FFF801A94FF080407E
:10232000FFF75AF901A94FF08040FFF7AFF90821F4
:10233000C806FFF7E7F80821C806FFF73FF90821AC
:10234000C806FFF799F90821C806FFF7DDF9012152
:102350008807FEF7D5FF01218807FEF7E0FF08B0E8
:1023600010BD00000003180000080140000C0140EF
:102370003EB5044601211020FEF72CFC40F2CF2090
:10238000ADF80000642104FB01F0401E80B2ADF8FE
:1023900004000020ADF80200ADF8060069460548CB
:1023A000FFF7F6F9642104FB01F0401E02490880A2
:1023B0003EBD0000001000401800002010B586B09F
:1023C0000446032C04D101214803FEF713FC05E069
:1023D000184951F824000121FEF7FCFB03A8FFF780
:1023E00029FA0020ADF80C004FF6FF70ADF8100090
:1023F0000020ADF81200ADF80E000F4951F824008E
:1024000003A9FFF7C5F90C4951F8240000231A4627
:102410000321FEF79FFF6846FFF716F80020ADF88E
:102420000800054951F824006946FEF7B7FF06B0D9
:1024300010BD000030000020200000202DE9F04FEA
:10244000044609AD95E8E010DDE90E9ADDF8348028
:10245000601EDFF808B35BF820007E287ED131B122
:10246000601EDFF8FCB20BEBC0104078087032B190
:10247000601EDFF8ECB20BEBC0108078107033B147
:10248000601EDFF8DCB20BEBC010C078107035B105
:10249000601EDFF8CCB20BEBC0104068286036B18C
:1024A000601EDFF8BCB20BEBC0108068306037B143
:1024B000601EDFF8ACB20BEBC010C0683860BCF136
:1024C000000F07D0601EDFF898B20BEBC010006958
:1024D000CCF80000B8F1000F07D0601EDFF880B222
:1024E0000BEBC0104069C8F80000B9F1000F07D02D
:1024F000601EDFF86CB20BEBC0108069C9F80000F9
:10250000BAF1000F07D0601EDFF854B20BEBC01019
:10251000C069CAF80000109848B1601EDFF840B2E8
:102520000BEBC010D0F820B01098C0F800B0119894
:1025300048B1601EDFF828B20BEBC010D0F824B011
:102540001198C0F800B0129858B1601EDFF810B2B0
:102550000BEBC010D0F828B0129800E0FBE0C0F8F8
:1025600000B0139848B1601EDFF8F4B10BEBC01057
:10257000D0F82CB01398C0F800B0149848B1601E81
:10258000DFF8DCB10BEBC010D0F830B01498C0F815
:1025900000B0159848B1601EDFF8C4B10BEBC01055
:1025A000D0F834B01598C0F800B0169848B1601E45
:1025B000DFF8ACB10BEBC010D0F838B01698C0F80B
:1025C00000B0179848B1601EDFF894B10BEBC01053
:1025D000D0F83CB01798C0F800B0189848B1601E09
:1025E000DFF87CB10BEBC010D0F840B01898C0F801
:1025F00000B0199848B1601EDFF864B10BEBC01051
:10260000D0F844B01998C0F800B01A9848B1601ECC
:10261000DFF84CB10BEBC010D0F848B01A98C0F8F6
:1026200000B01B9848B1601EDFF834B10BEBC0104E
:10263000D0F84CB01B98C0F800B01C9848B1601E90
:10264000DFF81CB10BEBC010D0F850B01C98C0F8EC
:1026500000B01D9848B1601EDFF804B10BEBC0104C
:10266000D0F854B01D98C0F800B01E9848B1601E54
:10267000DFF8ECB00BEBC010D0F858B01E98C0F8E3
:1026800000B01F9848B1601EDFF8D4B00BEBC0104B
:10269000D0F85CB01F98C0F800B0209848B1601E18
:1026A000DFF8BCB00BEBC010D0F860B02098C0F8D9
:1026B00000B0219848B1601EDFF8A4B00BEBC01049
:1026C000D0F864B02198C0F800B0229848B1601EDC
:1026D000DFF88CB00BEBC010D0F868B02298C0F8CF
:1026E00000B0239848B1601EDFF874B00BEBC01047
:1026F000D0F86CB02398C0F800B0249848B1601EA0
:10270000DFF85CB00BEBC010D0F870B02498C0F8C4
:1027100000B0259848B1601EDFF844B00BEBC01044
:10272000D0F874B02598C0F800B0269848B1601E63
:10273000DFF82CB00BEBC010D0F878B02698C0F8BA
:1027400000B04FF0000B601EDFF810E04EF820B034
:102750000120BDE8F08F0020FBE70000880A002080
:10276000880800202DE9F84F04460E461746984683
:10277000DDE90AAB601E604901EBC010451C4FF05B
:1027800000097B200090601E01EBC0104670601EA7
:1027900001EBC0108770601E01EBC01080F8038051
:1027A000601E01EBC010C0F804A0601E01EBC01059
:1027B000C0F808B0611E504A02EBC1110C98C86005
:1027C000611E02EBC1110D980861611E02EBC1117F
:1027D0000E984861611E02EBC1110F988861611E5D
:1027E00002EBC1111098C861611E02EBC111119872
:1027F0000862611E02EBC11112984862611E02EB71
:10280000C11113988862611E02EBC1111498C8624D
:10281000611E02EBC11115980863611E02EBC11124
:1028200016984863611E02EBC11117988863611EF8
:1028300002EBC1111898C863611E02EBC11119980F
:102840000864611E02EBC1111A984864611E02EB14
:10285000C1111B988864611E02EBC1111C98C864E9
:10286000611E02EBC1111D980865611E02EBC111CA
:102870001E984865611E02EBC1111F988865611E94
:1028800002EBC1112098C865611E02EBC1112198AD
:102890000866611E02EBC11122984866611E02EBB8
:1028A000C11123988866611E02EBC1112498C86685
:1028B000611E02EBC11125980867611E02EBC11170
:1028C00026984867611E02EBC1112798886705E0CA
:1028D00015F8011B01EB090000F0FF090098411EEB
:1028E00089B200910028F3D185F80090204600F0CD
:1028F0008FF8BDE8F88F0000880600203EB504463A
:102900000D46601E104901EB80007E22611E0F4BB8
:1029100003EBC111CDE900120290601E0C4901EBDE
:10292000C0127E232946204600F014F8A521601E1F
:10293000074A02EBC01001705A21601E02EBC01062
:1029400080F87D103EBD0000880A00208808002025
:10295000880600202DE9F04704460D4616461F461E
:10296000DDE9099ADDF82080641E204840F82450F3
:102970001F4840F824601F4840F824801E4840F853
:1029800024701E4840F824901D4840F824A020469A
:10299000FFF706FB1B4850F8240010B12046FFF754
:1029A00019F9194850F8240010B12046FFF7D4F85F
:1029B000204600F053F82046FFF782F9134951F8FA
:1029C0002400012240F22441FEF79FFF0F4951F8F5
:1029D00024000122C021FEF765FF0C4951F82400B4
:1029E0000121FEF753FFBDE8F0870000100600202C
:1029F000240600204C060020380600206006002037
:102A0000740600203C0100205001002080000020BE
:102A100010B50446641E0F4951F82400FDF7B2FEBC
:102A200008B100BFFEE70B4951F824000021FDF773
:102A30009DFE094A32F8242091B2064A52F8240039
:102A4000FDF7C2FE034951F824000121FDF78EFE77
:102A500010BD00003C010020380600201FB50446D0
:102A6000114951F824000121FEF7C4F80F4951F82B
:102A700024000121FEF7AEF80D4850F82400009024
:102A80000C20ADF80A000020ADF80400ADF80800F5
:102A9000ADF80600ADF80C00064951F8240069466F
:102AA000FEF758FF1FBD0000A80000209400002082
:102AB0001006002080000020D82A00080000002016
:102AC00028020000A4060008982B00082802002015
:102AD000884A0000041B0008412D0102030404D0B1
:102AE000090607080902040608120412401A08041D
:102AF0001A0C043D34014002132139253220140CF4
:102B000001401A14041A08042C100140182917292E
:102B1000245A1004290532015A401C29052948422B
:102B2000801A38381A441B1A48041A4C043A5027A1
:102B300031A96A194159160110291E12309A14112F
:102B4000599029041990290429462978290479944F
:102B5000195F398C299969AD19083967297B39E1E1
:102B6000215E2526273435276904291F4112441C7C
:102B7000024080041A1C043C5804023B1A580C1AE8
:102B80006C042A3004591401B184A24A04000900DB
:082B9000010203040607080915
:0400000508000131BD
:00000001FF
